{
  "fileName": "Graph.sol",
  "contractName": "Graph",
  "source": "pragma solidity ^0.5.0;\npragma experimental ABIEncoderV2;\n\nimport \"@openzeppelin/contracts-ethereum-package/contracts/math/SafeMath.sol\";\nimport \"@openzeppelin/contracts-ethereum-package/contracts/utils/Address.sol\";\nimport \"@openzeppelin/contracts-ethereum-package/contracts/token/ERC20/IERC20.sol\";\nimport \"./GraphBase.sol\";\n\n\ncontract Graph is GraphBase {\n    string public constant VERSION = \"1.0.0\";\n\n    using SafeMath for uint256;\n\n    constructor(GraphBase.Element[] memory _elements) public {\n        for (uint256 i; i < _elements.length; i++) {\n            elements.length++;\n            elements[i] = Element({\n                hash: _elements[i].hash,\n                addr: _elements[i].addr,\n                params: _elements[i].params,\n                outputsIndexes: _elements[i].outputsIndexes,\n                outputsInputIndexes: _elements[i].outputsInputIndexes,\n                x: _elements[i].x,\n                y: _elements[i].y\n            });\n        }\n    }\n\n    /**\n     * Fallback function accepts Ether transactions.\n     */\n    function() external payable {}\n\n    /**\n     * Execute many operations.\n     * @param _paramsList params for each element to execute\n     * @param _maxElementInputs max inputs an element has\n     */\n    function execute(bytes[] memory _paramsList, uint256 _maxElementInputs)\n        public\n        payable\n    {\n        uint256[][] memory inputs = new uint256[][](elements.length);\n        for (uint256 i; i < elements.length; i++) {\n            inputs[i] = new uint256[](_maxElementInputs);\n        }\n        for (uint8 i = 0; i < _paramsList.length; i++) {\n            GraphBase.Element memory element = elements[i];\n            bytes memory params = _paramsList[i];\n            if (element.addr == address(1)) {\n                //InputElement\n                (address asset, uint256 amount) = abi.decode(\n                    params,\n                    (address, uint256)\n                );\n                if (asset != address(0)) {\n                    //No transferFrom for ethers\n                    IERC20(asset).transferFrom(\n                        msg.sender,\n                        address(this),\n                        amount\n                    );\n                }\n                //Input element has one output\n                addAmountToInput(\n                    inputs,\n                    element.outputsIndexes[0],\n                    element.outputsInputIndexes[0],\n                    amount\n                );\n            } else if (element.addr == address(2)) {\n                //SplitterElement\n                uint8 percentage = abi.decode(params, (uint8));\n                uint256 firstShare = inputs[i][0].mul(percentage).div(100);\n                //Spliiter element has one output\n                addAmountToInput(\n                    inputs,\n                    element.outputsIndexes[0],\n                    element.outputsInputIndexes[0],\n                    firstShare\n                );\n                addAmountToInput(\n                    inputs,\n                    element.outputsIndexes[0],\n                    element.outputsInputIndexes[0],\n                    inputs[i][0].sub(firstShare)\n                );\n            } else if (element.addr == address(3)) {\n                //AddressElement\n                address payable addr = abi.decode(params, (address));\n                if (inputs[i][0] > 0) {\n                    //ETH\n                    Address.sendValue(addr, inputs[i][0]);\n                } else if (inputs[i][1] > 0) {\n                    //DAI\n                    IERC20(0x6B175474E89094C44Da98b954EedeAC495271d0F).transfer(\n                        addr,\n                        inputs[i][1]\n                    );\n                } else if (inputs[i][2] > 0) {\n                    // WETH\n                    IERC20(0xC02aaA39b223FE8D0A0e5C4F27eAD9083C756Cc2).transfer(\n                        addr,\n                        inputs[i][2]\n                    );\n                } else if (inputs[i][3] > 0) {\n                    //USDC\n                    IERC20(0xA0b86991c6218b36c1d19D4a2e9Eb0cE3606eB48).transfer(\n                        addr,\n                        inputs[i][3]\n                    );\n                } else if (inputs[i][4] > 0) {\n                    //USDT\n                    IERC20(0xdAC17F958D2ee523a2206206994597C13D831ec7).transfer(\n                        addr,\n                        inputs[i][4]\n                    );\n                } else if (inputs[i][5] > 0) {\n                    //SUSD\n                    IERC20(0x57Ab1ec28D129707052df4dF418D58a2D46d5f51).transfer(\n                        addr,\n                        inputs[i][5]\n                    );\n                } else if (inputs[i][6] > 0) {\n                    //WBTC\n                    IERC20(0x2260FAC5E5542a773Aa44fBCfeDf7C193bc2C599).transfer(\n                        addr,\n                        inputs[i][6]\n                    );\n                } else if (inputs[i][7] > 0) {\n                    //REP\n                    IERC20(0x1985365e9f78359a9B6AD760e32412f4a445E862).transfer(\n                        addr,\n                        inputs[i][7]\n                    );\n                } else if (inputs[i][8] > 0) {\n                    //CDAI\n                    IERC20(0x5d3a536E4D6DbD6114cc1Ead35777bAB948E3643).transfer(\n                        addr,\n                        inputs[i][8]\n                    );\n                } else if (inputs[i][9] > 0) {\n                    //CUSDC\n                    IERC20(0x39AA39c021dfbaE8faC545936693aC917d5E7563).transfer(\n                        addr,\n                        inputs[i][9]\n                    );\n                } else if (inputs[i][10] > 0) {\n                    //CWBTC\n                    IERC20(0xC11b1268C1A384e55C48c2391d8d480264A3A7F4).transfer(\n                        addr,\n                        inputs[i][10]\n                    );\n                } else if (inputs[i][11] > 0) {\n                    //CETH\n                    IERC20(0x4Ddc2D193948926D02f9B1fE9e1daa0718270ED5).transfer(\n                        addr,\n                        inputs[i][11]\n                    );\n                }\n            } else {\n                uint256[] memory outAmounts = executeOperation(\n                    element.addr,\n                    inputs[i],\n                    element.params\n                );\n                //Redirect\n                for (uint8 j = 0; j < element.outputsIndexes.length; j++) {\n                    addAmountToInput(\n                        inputs,\n                        element.outputsIndexes[j],\n                        element.outputsInputIndexes[j],\n                        outAmounts[j]\n                    );\n                }\n            }\n        }\n    }\n\n    /**\n     * Execute one operation.\n     * @param _operation operaetion to execute\n     * @param _inAmounts params is the amount to swap\n     * @param _params params contains the min amount to buy and the time deadline\n     */\n    function executeOperation(\n        address _operation,\n        uint256[] memory _inAmounts,\n        bytes memory _params\n    ) public returns (uint256[] memory outAmounts) {\n        bytes memory data = abi.encodeWithSelector(\n            bytes4(keccak256(\"operate(uint256[],bytes)\")),\n            _inAmounts,\n            _params\n        );\n        (bool success, bytes memory returnedData) = _operation.delegatecall(\n            data\n        );\n        require(success, string(returnedData));\n        outAmounts = abi.decode(returnedData, (uint256[]));\n    }\n\n    function addAmountToInput(\n        uint256[][] memory inputs,\n        uint64 index1,\n        uint64 index2,\n        uint256 amount\n    ) private {\n        inputs[index1][index2] = inputs[index1][index2] == 0\n            ? amount\n            : (inputs[index1][index2]).add(amount);\n    }\n\n    function getElements() public view returns (GraphBase.Element[] memory) {\n        return elements;\n    }\n}\n",
  "sourcePath": "contracts/Graph.sol",
  "abi": [
    {
      "inputs": [
        {
          "components": [
            {
              "internalType": "string",
              "name": "hash",
              "type": "string"
            },
            {
              "internalType": "address",
              "name": "addr",
              "type": "address"
            },
            {
              "internalType": "bytes",
              "name": "params",
              "type": "bytes"
            },
            {
              "internalType": "uint64[]",
              "name": "outputsIndexes",
              "type": "uint64[]"
            },
            {
              "internalType": "uint64[]",
              "name": "outputsInputIndexes",
              "type": "uint64[]"
            },
            {
              "internalType": "uint8",
              "name": "x",
              "type": "uint8"
            },
            {
              "internalType": "uint8",
              "name": "y",
              "type": "uint8"
            }
          ],
          "internalType": "struct GraphBase.Element[]",
          "name": "_elements",
          "type": "tuple[]"
        }
      ],
      "payable": false,
      "stateMutability": "nonpayable",
      "type": "constructor"
    },
    {
      "payable": true,
      "stateMutability": "payable",
      "type": "fallback"
    },
    {
      "constant": true,
      "inputs": [],
      "name": "VERSION",
      "outputs": [
        {
          "internalType": "string",
          "name": "",
          "type": "string"
        }
      ],
      "payable": false,
      "stateMutability": "view",
      "type": "function"
    },
    {
      "constant": true,
      "inputs": [
        {
          "internalType": "uint256",
          "name": "",
          "type": "uint256"
        }
      ],
      "name": "elements",
      "outputs": [
        {
          "internalType": "string",
          "name": "hash",
          "type": "string"
        },
        {
          "internalType": "address",
          "name": "addr",
          "type": "address"
        },
        {
          "internalType": "bytes",
          "name": "params",
          "type": "bytes"
        },
        {
          "internalType": "uint8",
          "name": "x",
          "type": "uint8"
        },
        {
          "internalType": "uint8",
          "name": "y",
          "type": "uint8"
        }
      ],
      "payable": false,
      "stateMutability": "view",
      "type": "function"
    },
    {
      "constant": false,
      "inputs": [
        {
          "internalType": "bytes[]",
          "name": "_paramsList",
          "type": "bytes[]"
        },
        {
          "internalType": "uint256",
          "name": "_maxElementInputs",
          "type": "uint256"
        }
      ],
      "name": "execute",
      "outputs": [],
      "payable": true,
      "stateMutability": "payable",
      "type": "function"
    },
    {
      "constant": false,
      "inputs": [
        {
          "internalType": "address",
          "name": "_operation",
          "type": "address"
        },
        {
          "internalType": "uint256[]",
          "name": "_inAmounts",
          "type": "uint256[]"
        },
        {
          "internalType": "bytes",
          "name": "_params",
          "type": "bytes"
        }
      ],
      "name": "executeOperation",
      "outputs": [
        {
          "internalType": "uint256[]",
          "name": "outAmounts",
          "type": "uint256[]"
        }
      ],
      "payable": false,
      "stateMutability": "nonpayable",
      "type": "function"
    },
    {
      "constant": true,
      "inputs": [],
      "name": "getElements",
      "outputs": [
        {
          "components": [
            {
              "internalType": "string",
              "name": "hash",
              "type": "string"
            },
            {
              "internalType": "address",
              "name": "addr",
              "type": "address"
            },
            {
              "internalType": "bytes",
              "name": "params",
              "type": "bytes"
            },
            {
              "internalType": "uint64[]",
              "name": "outputsIndexes",
              "type": "uint64[]"
            },
            {
              "internalType": "uint64[]",
              "name": "outputsInputIndexes",
              "type": "uint64[]"
            },
            {
              "internalType": "uint8",
              "name": "x",
              "type": "uint8"
            },
            {
              "internalType": "uint8",
              "name": "y",
              "type": "uint8"
            }
          ],
          "internalType": "struct GraphBase.Element[]",
          "name": "",
          "type": "tuple[]"
        }
      ],
      "payable": false,
      "stateMutability": "view",
      "type": "function"
    }
  ],
  "bytecode": "0x60806040523480156200001157600080fd5b50604051620029733803806200297383398101604081905262000034916200076d565b60005b81518110156200023457600180549062000054908281016200023c565b506040518060e001604052808383815181106200006d57fe5b60200260200101516000015181526020018383815181106200008b57fe5b6020026020010151602001516001600160a01b03168152602001838381518110620000b257fe5b6020026020010151604001518152602001838381518110620000d057fe5b6020026020010151606001518152602001838381518110620000ee57fe5b60200260200101516080015181526020018383815181106200010c57fe5b602002602001015160a0015160ff1681526020018383815181106200012d57fe5b602002602001015160c0015160ff16815250600182815481106200014d57fe5b906000526020600020906006020160008201518160000190805190602001906200017992919062000270565b506020828101516001830180546001600160a01b0319166001600160a01b0390921691909117905560408301518051620001ba926002850192019062000270565b5060608201518051620001d8916003840191602090910190620002f5565b5060808201518051620001f6916004840191602090910190620002f5565b5060a08201516005909101805460c09093015160ff9081166101000261ff00199190931660ff19909416939093179290921617905560010162000037565b5050620008a1565b8154818355818111156200026b576006028160060283600052602060002091820191016200026b9190620003b0565b505050565b828054600181600116156101000203166002900490600052602060002090601f016020900481019282601f10620002b357805160ff1916838001178555620002e3565b82800160010185558215620002e3579182015b82811115620002e3578251825591602001919060010190620002c6565b50620002f19291506200042a565b5090565b82805482825590600052602060002090600301600490048101928215620003a25791602002820160005b838211156200036b57835183826101000a8154816001600160401b0302191690836001600160401b0316021790555092602001926008016020816007010492830192600103026200031f565b8015620003a05782816101000a8154906001600160401b0302191690556008016020816007010492830192600103026200036b565b505b50620002f192915062000447565b6200042791905b80821115620002f1576000620003ce82826200046e565b6001820180546001600160a01b0319169055620003f06002830160006200046e565b62000400600383016000620004b9565b62000410600483016000620004b9565b5060058101805461ffff19169055600601620003b7565b90565b6200042791905b80821115620002f1576000815560010162000431565b6200042791905b80821115620002f15780546001600160401b03191681556001016200044e565b50805460018160011615610100020316600290046000825580601f10620004965750620004b6565b601f016020900490600052602060002090810190620004b691906200042a565b50565b508054600082556003016004900490600052602060002090810190620004b691906200042a565b8051620004ed8162000874565b92915050565b600082601f8301126200050557600080fd5b81516200051c6200051682620007d4565b620007ad565b81815260209384019390925082018360005b838110156200055e578151860162000547888262000637565b84525060209283019291909101906001016200052e565b5050505092915050565b600082601f8301126200057a57600080fd5b81516200058b6200051682620007d4565b91508181835260208401935060208101905083856020840282011115620005b157600080fd5b60005b838110156200055e5781620005ca888262000753565b8452506020928301929190910190600101620005b4565b600082601f830112620005f357600080fd5b8151620006046200051682620007f5565b915080825260208301602083018583830111156200062157600080fd5b6200062e83828462000841565b50505092915050565b600060e082840312156200064a57600080fd5b6200065660e0620007ad565b82519091506001600160401b038111156200067057600080fd5b6200067e84828501620005e1565b82525060206200069184848301620004e0565b60208301525060408201516001600160401b03811115620006b157600080fd5b620006bf84828501620005e1565b60408301525060608201516001600160401b03811115620006df57600080fd5b620006ed8482850162000568565b60608301525060808201516001600160401b038111156200070d57600080fd5b6200071b8482850162000568565b60808301525060a0620007318482850162000760565b60a08301525060c0620007478482850162000760565b60c08301525092915050565b8051620004ed816200088b565b8051620004ed8162000896565b6000602082840312156200078057600080fd5b81516001600160401b038111156200079757600080fd5b620007a584828501620004f3565b949350505050565b6040518181016001600160401b0381118282101715620007cc57600080fd5b604052919050565b60006001600160401b03821115620007eb57600080fd5b5060209081020190565b60006001600160401b038211156200080c57600080fd5b506020601f91909101601f19160190565b60006001600160a01b038216620004ed565b6001600160401b031690565b60ff1690565b60005b838110156200085e57818101518382015260200162000844565b838111156200086e576000848401525b50505050565b6200087f816200081d565b8114620004b657600080fd5b6200087f816200082f565b6200087f816200083b565b6120c280620008b16000396000f3fe60806040526004361061004a5760003560e01c80633ac7f6101461004c578063b1a18cc71461005f578063d0ec27cf1461008a578063e0d64b37146100b7578063ffa1ad74146100e8575b005b61004a61005a36600461193d565b61010a565b34801561006b57600080fd5b50610074610e11565b6040516100819190611e54565b60405180910390f35b34801561009657600080fd5b506100aa6100a53660046118c2565b6110e1565b6040516100819190611e65565b3480156100c357600080fd5b506100d76100d23660046119d5565b6111ea565b604051610081959493929190611eac565b3480156100f457600080fd5b506100fd611350565b6040516100819190611e9b565b600154604080518281526020808402820101909152606091801561014257816020015b606081526020019060019003908161012d5790505b50905060005b60015481101561019c578260405190808252806020026020018201604052801561017c578160200160208202803883390190505b5082828151811061018957fe5b6020908102919091010152600101610148565b5060005b83518160ff161015610e0b576101b4611639565b60018260ff16815481106101c457fe5b6000918252602091829020604080516006939093029091018054600260018216156101009081026000190190921604601f81018690049095028401810190925260e08301848152929390928492909184918401828280156102665780601f1061023b57610100808354040283529160200191610266565b820191906000526020600020905b81548152906001019060200180831161024957829003601f168201915b50505091835250506001828101546001600160a01b0316602080840191909152600280850180546040805161010096831615969096026000190190911692909204601f810184900484028501840183528085529190940193918301828280156103105780601f106102e557610100808354040283529160200191610310565b820191906000526020600020905b8154815290600101906020018083116102f357829003601f168201915b505050505081526020016003820180548060200260200160405190810160405280929190818152602001828054801561039a57602002820191906000526020600020906000905b82829054906101000a90046001600160401b03166001600160401b0316815260200190600801906020826007010492830192600103820291508084116103575790505b505050505081526020016004820180548060200260200160405190810160405280929190818152602001828054801561042457602002820191906000526020600020906000905b82829054906101000a90046001600160401b03166001600160401b0316815260200190600801906020826007010492830192600103820291508084116103e15790505b50505091835250506005919091015460ff8082166020840152610100909104811660409092019190915286519192506060918791851690811061046357fe5b6020026020010151905060016001600160a01b031682602001516001600160a01b0316141561057e57600080828060200190516104a39190810190611888565b90925090506001600160a01b0382161561053b576040516323b872dd60e01b81526001600160a01b038316906323b872dd906104e790339030908690600401611e11565b602060405180830381600087803b15801561050157600080fd5b505af1158015610515573d6000803e3d6000fd5b505050506040513d601f19601f8201168201806040525061053991908101906119b7565b505b61057786856060015160008151811061055057fe5b6020026020010151866080015160008151811061056957fe5b602002602001015184611371565b5050610e01565b60208201516001600160a01b03166002141561068e576000818060200190516105aa91908101906119f3565b905060006105ff60646105f38460ff16898960ff16815181106105c957fe5b60200260200101516000815181106105dd57fe5b602002602001015161144690919063ffffffff16565b9063ffffffff61148916565b905061061686856060015160008151811061055057fe5b61057786856060015160008151811061062b57fe5b6020026020010151866080015160008151811061064457fe5b6020026020010151610689858b8b60ff168151811061065f57fe5b602002602001015160008151811061067357fe5b60200260200101516114cb90919063ffffffff16565b611371565b60208201516001600160a01b031660031415610d60576000818060200190516106ba9190810190611862565b90506000858560ff16815181106106cd57fe5b60200260200101516000815181106106e157fe5b602002602001015111156107285761072381868660ff168151811061070257fe5b602002602001015160008151811061071657fe5b602002602001015161150d565b610d5a565b6000858560ff168151811061073957fe5b602002602001015160018151811061074d57fe5b6020026020010151111561081f57736b175474e89094c44da98b954eedeac495271d0f6001600160a01b031663a9059cbb82878760ff168151811061078e57fe5b60200260200101516001815181106107a257fe5b60200260200101516040518363ffffffff1660e01b81526004016107c7929190611e39565b602060405180830381600087803b1580156107e157600080fd5b505af11580156107f5573d6000803e3d6000fd5b505050506040513d601f19601f8201168201806040525061081991908101906119b7565b50610d5a565b6000858560ff168151811061083057fe5b602002602001015160028151811061084457fe5b602002602001015111156108995773c02aaa39b223fe8d0a0e5c4f27ead9083c756cc26001600160a01b031663a9059cbb82878760ff168151811061088557fe5b60200260200101516002815181106107a257fe5b6000858560ff16815181106108aa57fe5b60200260200101516003815181106108be57fe5b602002602001015111156109135773a0b86991c6218b36c1d19d4a2e9eb0ce3606eb486001600160a01b031663a9059cbb82878760ff16815181106108ff57fe5b60200260200101516003815181106107a257fe5b6000858560ff168151811061092457fe5b602002602001015160048151811061093857fe5b6020026020010151111561098d5773dac17f958d2ee523a2206206994597c13d831ec76001600160a01b031663a9059cbb82878760ff168151811061097957fe5b60200260200101516004815181106107a257fe5b6000858560ff168151811061099e57fe5b60200260200101516005815181106109b257fe5b60200260200101511115610a07577357ab1ec28d129707052df4df418d58a2d46d5f516001600160a01b031663a9059cbb82878760ff16815181106109f357fe5b60200260200101516005815181106107a257fe5b6000858560ff1681518110610a1857fe5b6020026020010151600681518110610a2c57fe5b60200260200101511115610a8157732260fac5e5542a773aa44fbcfedf7c193bc2c5996001600160a01b031663a9059cbb82878760ff1681518110610a6d57fe5b60200260200101516006815181106107a257fe5b6000858560ff1681518110610a9257fe5b6020026020010151600781518110610aa657fe5b60200260200101511115610afb57731985365e9f78359a9b6ad760e32412f4a445e8626001600160a01b031663a9059cbb82878760ff1681518110610ae757fe5b60200260200101516007815181106107a257fe5b6000858560ff1681518110610b0c57fe5b6020026020010151600881518110610b2057fe5b60200260200101511115610b7557735d3a536e4d6dbd6114cc1ead35777bab948e36436001600160a01b031663a9059cbb82878760ff1681518110610b6157fe5b60200260200101516008815181106107a257fe5b6000858560ff1681518110610b8657fe5b6020026020010151600981518110610b9a57fe5b60200260200101511115610bef577339aa39c021dfbae8fac545936693ac917d5e75636001600160a01b031663a9059cbb82878760ff1681518110610bdb57fe5b60200260200101516009815181106107a257fe5b6000858560ff1681518110610c0057fe5b6020026020010151600a81518110610c1457fe5b60200260200101511115610c695773c11b1268c1a384e55c48c2391d8d480264a3a7f46001600160a01b031663a9059cbb82878760ff1681518110610c5557fe5b6020026020010151600a815181106107a257fe5b6000858560ff1681518110610c7a57fe5b6020026020010151600b81518110610c8e57fe5b60200260200101511115610d5a57734ddc2d193948926d02f9b1fe9e1daa0718270ed56001600160a01b031663a9059cbb82878760ff1681518110610ccf57fe5b6020026020010151600b81518110610ce357fe5b60200260200101516040518363ffffffff1660e01b8152600401610d08929190611e39565b602060405180830381600087803b158015610d2257600080fd5b505af1158015610d36573d6000803e3d6000fd5b505050506040513d601f19601f8201168201806040525061057791908101906119b7565b50610e01565b6060610d8b8360200151868660ff1681518110610d7957fe5b602002602001015185604001516110e1565b905060005b8360600151518160ff161015610dfe57610df68685606001518360ff1681518110610db757fe5b602002602001015186608001518460ff1681518110610dd257fe5b6020026020010151858560ff1681518110610de957fe5b6020026020010151611371565b600101610d90565b50505b50506001016101a0565b50505050565b60606001805480602002602001604051908101604052809291908181526020016000905b828210156110d857600084815260209081902060408051600686029092018054600260018216156101009081026000190190921604601f81018690049095028401810190925260e0830184815292939092849290918491840182828015610edd5780601f10610eb257610100808354040283529160200191610edd565b820191906000526020600020905b815481529060010190602001808311610ec057829003601f168201915b50505091835250506001828101546001600160a01b0316602080840191909152600280850180546040805161010096831615969096026000190190911692909204601f81018490048402850184018352808552919094019391830182828015610f875780601f10610f5c57610100808354040283529160200191610f87565b820191906000526020600020905b815481529060010190602001808311610f6a57829003601f168201915b505050505081526020016003820180548060200260200160405190810160405280929190818152602001828054801561101157602002820191906000526020600020906000905b82829054906101000a90046001600160401b03166001600160401b031681526020019060080190602082600701049283019260010382029150808411610fce5790505b505050505081526020016004820180548060200260200160405190810160405280929190818152602001828054801561109b57602002820191906000526020600020906000905b82829054906101000a90046001600160401b03166001600160401b0316815260200190600801906020826007010492830192600103820291508084116110585790505b50505091835250506005919091015460ff808216602080850191909152610100909204166040909201919091529082526001929092019101610e35565b50505050905090565b6060806040516110f090611dfb565b6040518091039020848460405160240161110b929190611e76565b604051602081830303815290604052906001600160e01b0319166020820180516001600160e01b038381831617835250505050905060006060866001600160a01b03168360405161115c9190611def565b600060405180830381855af49150503d8060008114611197576040519150601f19603f3d011682016040523d82523d6000602084013e61119c565b606091505b50915091508181906111ca5760405162461bcd60e51b81526004016111c19190611e9b565b60405180910390fd5b50808060200190516111df9190810190611983565b979650505050505050565b600181815481106111f757fe5b60009182526020918290206006919091020180546040805160026001841615610100026000190190931692909204601f8101859004850283018501909152808252919350918391908301828280156112905780601f1061126557610100808354040283529160200191611290565b820191906000526020600020905b81548152906001019060200180831161127357829003601f168201915b505050506001838101546002808601805460408051602061010097841615979097026000190190921693909304601f810186900486028201860190935282815295966001600160a01b039093169592945091928301828280156113345780601f1061130957610100808354040283529160200191611334565b820191906000526020600020905b81548152906001019060200180831161131757829003601f168201915b5050506005909301549192505060ff8082169161010090041685565b604051806040016040528060058152602001640312e302e360dc1b81525081565b83836001600160401b03168151811061138657fe5b6020026020010151826001600160401b0316815181106113a257fe5b6020026020010151600014611401576113fc8185856001600160401b0316815181106113ca57fe5b6020026020010151846001600160401b0316815181106113e657fe5b60200260200101516115af90919063ffffffff16565b611403565b805b84846001600160401b03168151811061141857fe5b6020026020010151836001600160401b03168151811061143457fe5b60200260200101818152505050505050565b60008261145557506000611483565b8282028284828161146257fe5b04146114805760405162461bcd60e51b81526004016111c190611f34565b90505b92915050565b600061148083836040518060400160405280601a81526020017f536166654d6174683a206469766973696f6e206279207a65726f0000000000008152506115d4565b600061148083836040518060400160405280601e81526020017f536166654d6174683a207375627472616374696f6e206f766572666c6f77000081525061160d565b303181111561152e5760405162461bcd60e51b81526004016111c190611f24565b6000826001600160a01b03168260405161154790611e06565b60006040518083038185875af1925050503d8060008114611584576040519150601f19603f3d011682016040523d82523d6000602084013e611589565b606091505b50509050806115aa5760405162461bcd60e51b81526004016111c190611f14565b505050565b6000828201838110156114805760405162461bcd60e51b81526004016111c190611f04565b600081836115f55760405162461bcd60e51b81526004016111c19190611e9b565b50600083858161160157fe5b049150505b9392505050565b600081848411156116315760405162461bcd60e51b81526004016111c19190611e9b565b505050900390565b6040518060e001604052806060815260200160006001600160a01b03168152602001606081526020016060815260200160608152602001600060ff168152602001600060ff1681525090565b80356114838161204d565b80516114838161204d565b600082601f8301126116ac57600080fd5b81356116bf6116ba82611f6a565b611f44565b81815260209384019390925082018360005b838110156116fd57813586016116e788826117f2565b84525060209283019291909101906001016116d1565b5050505092915050565b600082601f83011261171857600080fd5b81516117266116ba82611f6a565b9150818183526020840193506020810190508385602084028201111561174b57600080fd5b60005b838110156116fd5781611761888261184c565b845250602092830192919091019060010161174e565b600082601f83011261178857600080fd5b81356117966116ba82611f6a565b915081818352602084019350602081019050838560208402820111156117bb57600080fd5b60005b838110156116fd57816117d18882611841565b84525060209283019291909101906001016117be565b805161148381612064565b600082601f83011261180357600080fd5b81356118116116ba82611f8a565b9150808252602083016020830185838301111561182d57600080fd5b61183883828461200b565b50505092915050565b80356114838161206d565b80516114838161206d565b805161148381612076565b60006020828403121561187457600080fd5b60006118808484611690565b949350505050565b6000806040838503121561189b57600080fd5b60006118a78585611690565b92505060206118b88582860161184c565b9150509250929050565b6000806000606084860312156118d757600080fd5b60006118e38686611685565b93505060208401356001600160401b038111156118ff57600080fd5b61190b86828701611777565b92505060408401356001600160401b0381111561192757600080fd5b611933868287016117f2565b9150509250925092565b6000806040838503121561195057600080fd5b82356001600160401b0381111561196657600080fd5b6119728582860161169b565b92505060206118b885828601611841565b60006020828403121561199557600080fd5b81516001600160401b038111156119ab57600080fd5b61188084828501611707565b6000602082840312156119c957600080fd5b600061188084846117e7565b6000602082840312156119e757600080fd5b60006118808484611841565b600060208284031215611a0557600080fd5b60006118808484611857565b60006114808383611d2b565b6000611a298383611dd4565b505060200190565b6000611a298383611ddd565b611a4681611ffa565b82525050565b611a4681611fc9565b6000611a6082611fb7565b611a6a8185611fbb565b935083602082028501611a7c85611fb1565b8060005b85811015611ab65784840389528151611a998582611a11565b9450611aa483611fb1565b60209a909a0199925050600101611a80565b5091979650505050505050565b6000611ace82611fb7565b611ad88185611fbb565b9350611ae383611fb1565b8060005b83811015611b11578151611afb8882611a1d565b9750611b0683611fb1565b925050600101611ae7565b509495945050505050565b6000611b2782611fb7565b611b318185611fbb565b9350611b3c83611fb1565b8060005b83811015611b11578151611b548882611a31565b9750611b5f83611fb1565b925050600101611b40565b6000611b7582611fb7565b611b7f8185611fbb565b9350611b8f818560208601612017565b611b9881612043565b9093019392505050565b6000611bad82611fb7565b611bb78185611fc4565b9350611bc7818560208601612017565b9290920192915050565b6000611bde601b83611fbb565b7f536166654d6174683a206164646974696f6e206f766572666c6f770000000000815260200192915050565b6000611c17603a83611fbb565b7f416464726573733a20756e61626c6520746f2073656e642076616c75652c207281527f6563697069656e74206d61792068617665207265766572746564000000000000602082015260400192915050565b6000611c76601d83611fbb565b7f416464726573733a20696e73756666696369656e742062616c616e6365000000815260200192915050565b6000611caf602183611fbb565b7f536166654d6174683a206d756c7469706c69636174696f6e206f766572666c6f8152607760f81b602082015260400192915050565b6000611cf2601883611fc4565b7f6f7065726174652875696e743235365b5d2c6279746573290000000000000000815260180192915050565b6000611483600083611fc4565b805160e080845260009190840190611d438282611b6a565b9150506020830151611d586020860182611a4c565b5060408301518482036040860152611d708282611b6a565b91505060608301518482036060860152611d8a8282611b1c565b91505060808301518482036080860152611da48282611b1c565b91505060a0830151611db960a0860182611de6565b5060c0830151611dcc60c0860182611de6565b509392505050565b611a4681611fe5565b611a4681611fe8565b611a4681611ff4565b60006116068284611ba2565b600061148382611ce5565b600061148382611d1e565b60608101611e1f8286611a3d565b611e2c6020830185611a3d565b6118806040830184611dd4565b60408101611e478285611a3d565b6116066020830184611dd4565b602080825281016114808184611a55565b602080825281016114808184611ac3565b60408082528101611e878185611ac3565b905081810360208301526118808184611b6a565b602080825281016114808184611b6a565b60a08082528101611ebd8188611b6a565b9050611ecc6020830187611a4c565b8181036040830152611ede8186611b6a565b9050611eed6060830185611de6565b611efa6080830184611de6565b9695505050505050565b6020808252810161148381611bd1565b6020808252810161148381611c0a565b6020808252810161148381611c69565b6020808252810161148381611ca2565b6040518181016001600160401b0381118282101715611f6257600080fd5b604052919050565b60006001600160401b03821115611f8057600080fd5b5060209081020190565b60006001600160401b03821115611fa057600080fd5b506020601f91909101601f19160190565b60200190565b5190565b90815260200190565b919050565b600061148382611fd9565b151590565b6001600160a01b031690565b90565b6001600160401b031690565b60ff1690565b600061148382600061148382611fc9565b82818337506000910152565b60005b8381101561203257818101518382015260200161201a565b83811115610e0b5750506000910152565b601f01601f191690565b61205681611fc9565b811461206157600080fd5b50565b61205681611fd4565b61205681611fe5565b61205681611ff456fea365627a7a723158201d4eb395325d47465bf94edb1678e546044bd2cc1c0f90d5e72d319c81e942816c6578706572696d656e74616cf564736f6c63430005110040",
  "compiler": {
    "name": "solc",
    "version": "0.5.17+commit.d19bba13.Emscripten.clang",
    "optimizer": {
      "enabled": true,
      "runs": 200
    },
    "evmVersion": "petersburg"
  }
}