{
  "fileName": "Graph.sol",
  "contractName": "Graph",
  "source": "pragma solidity ^0.5.0;\npragma experimental ABIEncoderV2;\n\nimport \"@openzeppelin/contracts-ethereum-package/contracts/math/SafeMath.sol\";\nimport \"@openzeppelin/contracts-ethereum-package/contracts/utils/Address.sol\";\nimport \"@openzeppelin/contracts-ethereum-package/contracts/token/ERC20/IERC20.sol\";\nimport \"./GraphBase.sol\";\nimport \"./operations/uniswapv2/IPair.sol\";\n\n\ncontract Graph is GraphBase {\n    string public constant VERSION = \"1.0.0\";\n\n    using SafeMath for uint256;\n\n    constructor(GraphBase.Element[] memory _elements) public {\n        for (uint256 i; i < _elements.length; i++) {\n            elements.length++;\n            elements[i] = Element({\n                hash: _elements[i].hash,\n                addr: _elements[i].addr,\n                params: _elements[i].params,\n                outputsIndexes: _elements[i].outputsIndexes,\n                outputsInputIndexes: _elements[i].outputsInputIndexes,\n                x: _elements[i].x,\n                y: _elements[i].y\n            });\n        }\n    }\n\n    /**\n     * Fallback function accepts Ether transactions.\n     */\n    function() external payable {}\n\n    /**\n     * Execute .\n     * @param _paramsList params for each element to execute\n     * @param _maxElementInputs max inputs an element has\n     */\n    function execute(bytes[] memory _paramsList, uint256 _maxElementInputs)\n        public\n        payable\n    {\n        uint256[][] memory inputs = new uint256[][](elements.length);\n        bool hasFlashSwap = false;\n        uint256 flashSwapInIndex;\n        for (uint256 i; i < elements.length; i++) {\n            if (elements[i].addr == address(4)) {\n                //FlashSwap (only one allowed)\n                hasFlashSwap = true;\n                flashSwapInIndex = i;\n            }\n            inputs[i] = new uint256[](_maxElementInputs);\n        }\n        if (hasFlashSwap) {\n            //Execute element with flash swap\n            bytes memory data = abi.encode(_paramsList, inputs);\n            (address pair, uint256 index, uint256 amount) = abi.decode(\n                _paramsList[flashSwapInIndex],\n                (address, uint256, uint256)\n            );\n            IPair(pair).swap(\n                index == 0 ? amount : 0,\n                index == 0 ? 0 : amount,\n                address(this),\n                data\n            );\n        } else {\n            //Execute elements\n            executeElements(_paramsList, inputs);\n        }\n    }\n\n    /**\n     * Uniswap v2 flash swap callback .\n     */\n    function uniswapV2Call(\n        address sender,\n        uint256 amount0,\n        uint256 amount1,\n        bytes calldata data\n    ) external {\n        (bytes[] memory paramsList, uint256[][] memory inputs) = abi.decode(\n            data,\n            (bytes[], uint256[][])\n        );\n        executeElements(paramsList, inputs);\n    }\n\n    /**\n     * Execute .\n     * @param _paramsList params for each element to execute\n     * @param _inputs inputs for each element\n     */\n    function executeElements(\n        bytes[] memory _paramsList,\n        uint256[][] memory _inputs\n    ) public {\n        for (uint8 i = 0; i < _paramsList.length; i++) {\n            GraphBase.Element memory element = elements[i];\n            bytes memory params = _paramsList[i];\n            if (element.addr == address(1)) {\n                //InputElement\n                (address asset, uint256 amount) = abi.decode(\n                    params,\n                    (address, uint256)\n                );\n                if (asset != address(0) && amount > 0) {\n                    //No transferFrom for ethers\n                    IERC20(asset).transferFrom(\n                        msg.sender,\n                        address(this),\n                        amount\n                    );\n                }\n                //Input element has one output\n                addAmountToInput(\n                    _inputs,\n                    element.outputsIndexes[0],\n                    element.outputsInputIndexes[0],\n                    amount\n                );\n            } else if (element.addr == address(2)) {\n                //SplitterElement\n                uint8 percentage = abi.decode(params, (uint8));\n                uint256 firstShare = _inputs[i][0].mul(percentage).div(100);\n                //Spliiter element has one output\n                addAmountToInput(\n                    _inputs,\n                    element.outputsIndexes[0],\n                    element.outputsInputIndexes[0],\n                    firstShare\n                );\n                addAmountToInput(\n                    _inputs,\n                    element.outputsIndexes[1],\n                    element.outputsInputIndexes[1],\n                    _inputs[i][0].sub(firstShare)\n                );\n            } else if (element.addr == address(6)) {\n                //SplitterElementFixed\n                uint256 firstShare = abi.decode(params, (uint256));\n                //Spliiter element has one output\n                addAmountToInput(\n                    _inputs,\n                    element.outputsIndexes[0],\n                    element.outputsInputIndexes[0],\n                    firstShare\n                );\n                addAmountToInput(\n                    _inputs,\n                    element.outputsIndexes[1],\n                    element.outputsInputIndexes[1],\n                    _inputs[i][0].sub(firstShare)\n                );\n            } else if (element.addr == address(3)) {\n                //AddressElement\n                address payable addr = abi.decode(params, (address));\n                if (_inputs[i][0] > 0) {\n                    //ETH\n                    Address.sendValue(addr, _inputs[i][0]);\n                } else if (_inputs[i][1] > 0) {\n                    //DAI\n                    IERC20(0x6B175474E89094C44Da98b954EedeAC495271d0F).transfer(\n                        addr,\n                        _inputs[i][1]\n                    );\n                } else if (_inputs[i][2] > 0) {\n                    // WETH\n                    IERC20(0xC02aaA39b223FE8D0A0e5C4F27eAD9083C756Cc2).transfer(\n                        addr,\n                        _inputs[i][2]\n                    );\n                } else if (_inputs[i][3] > 0) {\n                    //USDC\n                    IERC20(0xA0b86991c6218b36c1d19D4a2e9Eb0cE3606eB48).transfer(\n                        addr,\n                        _inputs[i][3]\n                    );\n                } else if (_inputs[i][4] > 0) {\n                    //USDT\n                    IERC20(0xdAC17F958D2ee523a2206206994597C13D831ec7).transfer(\n                        addr,\n                        _inputs[i][4]\n                    );\n                } else if (_inputs[i][5] > 0) {\n                    //SUSD\n                    IERC20(0x57Ab1ec28D129707052df4dF418D58a2D46d5f51).transfer(\n                        addr,\n                        _inputs[i][5]\n                    );\n                } else if (_inputs[i][6] > 0) {\n                    //WBTC\n                    IERC20(0x2260FAC5E5542a773Aa44fBCfeDf7C193bc2C599).transfer(\n                        addr,\n                        _inputs[i][6]\n                    );\n                } else if (_inputs[i][7] > 0) {\n                    //REP\n                    IERC20(0x1985365e9f78359a9B6AD760e32412f4a445E862).transfer(\n                        addr,\n                        _inputs[i][7]\n                    );\n                } else if (_inputs[i][8] > 0) {\n                    //CDAI\n                    IERC20(0x5d3a536E4D6DbD6114cc1Ead35777bAB948E3643).transfer(\n                        addr,\n                        _inputs[i][8]\n                    );\n                } else if (_inputs[i][9] > 0) {\n                    //CUSDC\n                    IERC20(0x39AA39c021dfbaE8faC545936693aC917d5E7563).transfer(\n                        addr,\n                        _inputs[i][9]\n                    );\n                } else if (_inputs[i][10] > 0) {\n                    //CWBTC\n                    IERC20(0xC11b1268C1A384e55C48c2391d8d480264A3A7F4).transfer(\n                        addr,\n                        _inputs[i][10]\n                    );\n                } else if (_inputs[i][11] > 0) {\n                    //CETH\n                    IERC20(0x4Ddc2D193948926D02f9B1fE9e1daa0718270ED5).transfer(\n                        addr,\n                        _inputs[i][11]\n                    );\n                }\n            } else if (element.addr == address(4)) {\n                //Nothing, flash swap in\n                (, , uint256 amount) = abi.decode(\n                    params,\n                    (address, uint256, uint256)\n                );\n                addAmountToInput(\n                    _inputs,\n                    element.outputsIndexes[0],\n                    element.outputsInputIndexes[0],\n                    amount\n                );\n            } else if (element.addr == address(5)) {\n                (address pair, address asset) = abi.decode(\n                    params,\n                    (address, address)\n                );\n                IERC20(asset).transfer(pair, _inputs[i][0]);\n            } else {\n                uint256[] memory outAmounts = executeOperation(\n                    element.addr,\n                    _inputs[i],\n                    params\n                );\n                //Redirect\n                for (uint8 j = 0; j < element.outputsIndexes.length; j++) {\n                    addAmountToInput(\n                        _inputs,\n                        element.outputsIndexes[j],\n                        element.outputsInputIndexes[j],\n                        outAmounts[j]\n                    );\n                }\n            }\n        }\n        //TODO: send all remains to sender\n    }\n\n    /**\n     * Execute one operation.\n     * @param _operation operaetion to execute\n     * @param _inAmounts params is the amount to swap\n     * @param _params params contains the min amount to buy and the time deadline\n     */\n    function executeOperation(\n        address _operation,\n        uint256[] memory _inAmounts,\n        bytes memory _params\n    ) public returns (uint256[] memory outAmounts) {\n        bytes memory data = abi.encodeWithSelector(\n            bytes4(keccak256(\"operate(uint256[],bytes)\")),\n            _inAmounts,\n            _params\n        );\n        (bool success, bytes memory returnedData) = _operation.delegatecall(\n            data\n        );\n        require(success, string(returnedData));\n        outAmounts = abi.decode(returnedData, (uint256[]));\n    }\n\n    function addAmountToInput(\n        uint256[][] memory inputs,\n        uint64 index1,\n        uint64 index2,\n        uint256 amount\n    ) private {\n        inputs[index1][index2] = inputs[index1][index2] == 0\n            ? amount\n            : (inputs[index1][index2]).add(amount);\n    }\n\n    function getElements() public view returns (GraphBase.Element[] memory) {\n        return elements;\n    }\n}\n",
  "sourcePath": "contracts/Graph.sol",
  "abi": [
    {
      "inputs": [
        {
          "components": [
            {
              "internalType": "string",
              "name": "hash",
              "type": "string"
            },
            {
              "internalType": "address",
              "name": "addr",
              "type": "address"
            },
            {
              "internalType": "bytes",
              "name": "params",
              "type": "bytes"
            },
            {
              "internalType": "uint64[]",
              "name": "outputsIndexes",
              "type": "uint64[]"
            },
            {
              "internalType": "uint64[]",
              "name": "outputsInputIndexes",
              "type": "uint64[]"
            },
            {
              "internalType": "uint8",
              "name": "x",
              "type": "uint8"
            },
            {
              "internalType": "uint8",
              "name": "y",
              "type": "uint8"
            }
          ],
          "internalType": "struct GraphBase.Element[]",
          "name": "_elements",
          "type": "tuple[]"
        }
      ],
      "payable": false,
      "stateMutability": "nonpayable",
      "type": "constructor"
    },
    {
      "payable": true,
      "stateMutability": "payable",
      "type": "fallback"
    },
    {
      "constant": true,
      "inputs": [],
      "name": "VERSION",
      "outputs": [
        {
          "internalType": "string",
          "name": "",
          "type": "string"
        }
      ],
      "payable": false,
      "stateMutability": "view",
      "type": "function"
    },
    {
      "constant": true,
      "inputs": [
        {
          "internalType": "uint256",
          "name": "",
          "type": "uint256"
        }
      ],
      "name": "elements",
      "outputs": [
        {
          "internalType": "string",
          "name": "hash",
          "type": "string"
        },
        {
          "internalType": "address",
          "name": "addr",
          "type": "address"
        },
        {
          "internalType": "bytes",
          "name": "params",
          "type": "bytes"
        },
        {
          "internalType": "uint8",
          "name": "x",
          "type": "uint8"
        },
        {
          "internalType": "uint8",
          "name": "y",
          "type": "uint8"
        }
      ],
      "payable": false,
      "stateMutability": "view",
      "type": "function"
    },
    {
      "constant": false,
      "inputs": [
        {
          "internalType": "bytes[]",
          "name": "_paramsList",
          "type": "bytes[]"
        },
        {
          "internalType": "uint256",
          "name": "_maxElementInputs",
          "type": "uint256"
        }
      ],
      "name": "execute",
      "outputs": [],
      "payable": true,
      "stateMutability": "payable",
      "type": "function"
    },
    {
      "constant": false,
      "inputs": [
        {
          "internalType": "bytes[]",
          "name": "_paramsList",
          "type": "bytes[]"
        },
        {
          "internalType": "uint256[][]",
          "name": "_inputs",
          "type": "uint256[][]"
        }
      ],
      "name": "executeElements",
      "outputs": [],
      "payable": false,
      "stateMutability": "nonpayable",
      "type": "function"
    },
    {
      "constant": false,
      "inputs": [
        {
          "internalType": "address",
          "name": "_operation",
          "type": "address"
        },
        {
          "internalType": "uint256[]",
          "name": "_inAmounts",
          "type": "uint256[]"
        },
        {
          "internalType": "bytes",
          "name": "_params",
          "type": "bytes"
        }
      ],
      "name": "executeOperation",
      "outputs": [
        {
          "internalType": "uint256[]",
          "name": "outAmounts",
          "type": "uint256[]"
        }
      ],
      "payable": false,
      "stateMutability": "nonpayable",
      "type": "function"
    },
    {
      "constant": true,
      "inputs": [],
      "name": "getElements",
      "outputs": [
        {
          "components": [
            {
              "internalType": "string",
              "name": "hash",
              "type": "string"
            },
            {
              "internalType": "address",
              "name": "addr",
              "type": "address"
            },
            {
              "internalType": "bytes",
              "name": "params",
              "type": "bytes"
            },
            {
              "internalType": "uint64[]",
              "name": "outputsIndexes",
              "type": "uint64[]"
            },
            {
              "internalType": "uint64[]",
              "name": "outputsInputIndexes",
              "type": "uint64[]"
            },
            {
              "internalType": "uint8",
              "name": "x",
              "type": "uint8"
            },
            {
              "internalType": "uint8",
              "name": "y",
              "type": "uint8"
            }
          ],
          "internalType": "struct GraphBase.Element[]",
          "name": "",
          "type": "tuple[]"
        }
      ],
      "payable": false,
      "stateMutability": "view",
      "type": "function"
    },
    {
      "constant": false,
      "inputs": [
        {
          "internalType": "address",
          "name": "sender",
          "type": "address"
        },
        {
          "internalType": "uint256",
          "name": "amount0",
          "type": "uint256"
        },
        {
          "internalType": "uint256",
          "name": "amount1",
          "type": "uint256"
        },
        {
          "internalType": "bytes",
          "name": "data",
          "type": "bytes"
        }
      ],
      "name": "uniswapV2Call",
      "outputs": [],
      "payable": false,
      "stateMutability": "nonpayable",
      "type": "function"
    }
  ],
  "bytecode": "0x60806040523480156200001157600080fd5b506040516200323f3803806200323f83398101604081905262000034916200076d565b60005b81518110156200023457600180549062000054908281016200023c565b506040518060e001604052808383815181106200006d57fe5b60200260200101516000015181526020018383815181106200008b57fe5b6020026020010151602001516001600160a01b03168152602001838381518110620000b257fe5b6020026020010151604001518152602001838381518110620000d057fe5b6020026020010151606001518152602001838381518110620000ee57fe5b60200260200101516080015181526020018383815181106200010c57fe5b602002602001015160a0015160ff1681526020018383815181106200012d57fe5b602002602001015160c0015160ff16815250600182815481106200014d57fe5b906000526020600020906006020160008201518160000190805190602001906200017992919062000270565b506020828101516001830180546001600160a01b0319166001600160a01b0390921691909117905560408301518051620001ba926002850192019062000270565b5060608201518051620001d8916003840191602090910190620002f5565b5060808201518051620001f6916004840191602090910190620002f5565b5060a08201516005909101805460c09093015160ff9081166101000261ff00199190931660ff19909416939093179290921617905560010162000037565b5050620008a1565b8154818355818111156200026b576006028160060283600052602060002091820191016200026b9190620003b0565b505050565b828054600181600116156101000203166002900490600052602060002090601f016020900481019282601f10620002b357805160ff1916838001178555620002e3565b82800160010185558215620002e3579182015b82811115620002e3578251825591602001919060010190620002c6565b50620002f19291506200042a565b5090565b82805482825590600052602060002090600301600490048101928215620003a25791602002820160005b838211156200036b57835183826101000a8154816001600160401b0302191690836001600160401b0316021790555092602001926008016020816007010492830192600103026200031f565b8015620003a05782816101000a8154906001600160401b0302191690556008016020816007010492830192600103026200036b565b505b50620002f192915062000447565b6200042791905b80821115620002f1576000620003ce82826200046e565b6001820180546001600160a01b0319169055620003f06002830160006200046e565b62000400600383016000620004b9565b62000410600483016000620004b9565b5060058101805461ffff19169055600601620003b7565b90565b6200042791905b80821115620002f1576000815560010162000431565b6200042791905b80821115620002f15780546001600160401b03191681556001016200044e565b50805460018160011615610100020316600290046000825580601f10620004965750620004b6565b601f016020900490600052602060002090810190620004b691906200042a565b50565b508054600082556003016004900490600052602060002090810190620004b691906200042a565b8051620004ed8162000874565b92915050565b600082601f8301126200050557600080fd5b81516200051c6200051682620007d4565b620007ad565b81815260209384019390925082018360005b838110156200055e578151860162000547888262000637565b84525060209283019291909101906001016200052e565b5050505092915050565b600082601f8301126200057a57600080fd5b81516200058b6200051682620007d4565b91508181835260208401935060208101905083856020840282011115620005b157600080fd5b60005b838110156200055e5781620005ca888262000753565b8452506020928301929190910190600101620005b4565b600082601f830112620005f357600080fd5b8151620006046200051682620007f5565b915080825260208301602083018583830111156200062157600080fd5b6200062e83828462000841565b50505092915050565b600060e082840312156200064a57600080fd5b6200065660e0620007ad565b82519091506001600160401b038111156200067057600080fd5b6200067e84828501620005e1565b82525060206200069184848301620004e0565b60208301525060408201516001600160401b03811115620006b157600080fd5b620006bf84828501620005e1565b60408301525060608201516001600160401b03811115620006df57600080fd5b620006ed8482850162000568565b60608301525060808201516001600160401b038111156200070d57600080fd5b6200071b8482850162000568565b60808301525060a0620007318482850162000760565b60a08301525060c0620007478482850162000760565b60c08301525092915050565b8051620004ed816200088b565b8051620004ed8162000896565b6000602082840312156200078057600080fd5b81516001600160401b038111156200079757600080fd5b620007a584828501620004f3565b949350505050565b6040518181016001600160401b0381118282101715620007cc57600080fd5b604052919050565b60006001600160401b03821115620007eb57600080fd5b5060209081020190565b60006001600160401b038211156200080c57600080fd5b506020601f91909101601f19160190565b60006001600160a01b038216620004ed565b6001600160401b031690565b60ff1690565b60005b838110156200085e57818101518382015260200162000844565b838111156200086e576000848401525b50505050565b6200087f816200081d565b8114620004b657600080fd5b6200087f816200082f565b6200087f816200083b565b61298e80620008b16000396000f3fe6080604052600436106100705760003560e01c8063b1a18cc71161004e578063b1a18cc7146100c5578063d0ec27cf146100f0578063e0d64b371461011d578063ffa1ad741461014e57610070565b806310d1e85c146100725780633ac7f610146100925780636f38d20d146100a5575b005b34801561007e57600080fd5b5061007061008d366004611f1b565b610170565b6100706100a0366004611ff5565b610196565b3480156100b157600080fd5b506100706100c0366004611f98565b610368565b3480156100d157600080fd5b506100da6111b2565b6040516100e791906126e2565b60405180910390f35b3480156100fc57600080fd5b5061011061010b366004611eaa565b611482565b6040516100e791906126f3565b34801561012957600080fd5b5061013d6101383660046120ea565b61158b565b6040516100e795949392919061273a565b34801561015a57600080fd5b506101636116f1565b6040516100e79190612729565b60608061017f8385018561203b565b9150915061018d8282610368565b50505050505050565b60015460408051828152602080840282010190915260609180156101ce57816020015b60608152602001906001900390816101b95790505b509050600080805b60015481101561026d5760046001600160a01b0316600182815481106101f857fe5b60009182526020909120600160069092020101546001600160a01b0316141561022357600192508091505b8460405190808252806020026020018201604052801561024d578160200160208202803883390190505b5084828151811061025a57fe5b60209081029190910101526001016101d6565b50811561035757606085846040516020016102899291906126bd565b604051602081830303815290604052905060008060008885815181106102ab57fe5b60200260200101518060200190516102c69190810190611e5d565b925092509250826001600160a01b031663022c0d9f836000146102ea5760006102ec565b825b84156102f857836102fb565b60005b30886040518563ffffffff1660e01b815260040161031c94939291906127d2565b600060405180830381600087803b15801561033657600080fd5b505af115801561034a573d6000803e3d6000fd5b5050505050505050610361565b6103618584610368565b5050505050565b60005b82518160ff1610156111ad5761037f6119d5565b60018260ff168154811061038f57fe5b6000918252602091829020604080516006939093029091018054600260018216156101009081026000190190921604601f81018690049095028401810190925260e08301848152929390928492909184918401828280156104315780601f1061040657610100808354040283529160200191610431565b820191906000526020600020905b81548152906001019060200180831161041457829003601f168201915b50505091835250506001828101546001600160a01b0316602080840191909152600280850180546040805161010096831615969096026000190190911692909204601f810184900484028501840183528085529190940193918301828280156104db5780601f106104b0576101008083540402835291602001916104db565b820191906000526020600020905b8154815290600101906020018083116104be57829003601f168201915b505050505081526020016003820180548060200260200160405190810160405280929190818152602001828054801561056557602002820191906000526020600020906000905b82829054906101000a90046001600160401b03166001600160401b0316815260200190600801906020826007010492830192600103820291508084116105225790505b50505050508152602001600482018054806020026020016040519081016040528092919081815260200182805480156105ef57602002820191906000526020600020906000905b82829054906101000a90046001600160401b03166001600160401b0316815260200190600801906020826007010492830192600103820291508084116105ac5790505b50505091835250506005919091015460ff8082166020840152610100909104811660409092019190915285519192506060918691851690811061062e57fe5b6020026020010151905060016001600160a01b031682602001516001600160a01b03161415610757576000808280602001905161066e9190810190611e2d565b90925090506001600160a01b0382161580159061068b5750600081115b15610714576040516323b872dd60e01b81526001600160a01b038316906323b872dd906106c09033903090869060040161266c565b602060405180830381600087803b1580156106da57600080fd5b505af11580156106ee573d6000803e3d6000fd5b505050506040513d601f19601f8201168201806040525061071291908101906120cc565b505b61075086856060015160008151811061072957fe5b6020026020010151866080015160008151811061074257fe5b602002602001015184611712565b50506111a3565b60208201516001600160a01b031660021415610867576000818060200190516107839190810190612126565b905060006107d860646107cc8460ff16898960ff16815181106107a257fe5b60200260200101516000815181106107b657fe5b60200260200101516117e790919063ffffffff16565b9063ffffffff61182a16565b90506107ef86856060015160008151811061072957fe5b61075086856060015160018151811061080457fe5b6020026020010151866080015160018151811061081d57fe5b6020026020010151610862858b8b60ff168151811061083857fe5b602002602001015160008151811061084c57fe5b602002602001015161186c90919063ffffffff16565b611712565b60208201516001600160a01b031660061415610912576000818060200190516108939190810190612108565b90506108c38584606001516000815181106108aa57fe5b6020026020010151856080015160008151811061074257fe5b61090c8584606001516001815181106108d857fe5b602002602001015185608001516001815181106108f157fe5b6020026020010151610862858a8a60ff168151811061083857fe5b506111a3565b60208201516001600160a01b031660031415610fde5760008180602001905161093e9190810190611dcd565b90506000858560ff168151811061095157fe5b602002602001015160008151811061096557fe5b602002602001015111156109ac576109a781868660ff168151811061098657fe5b602002602001015160008151811061099a57fe5b60200260200101516118ae565b61090c565b6000858560ff16815181106109bd57fe5b60200260200101516001815181106109d157fe5b60200260200101511115610aa357736b175474e89094c44da98b954eedeac495271d0f6001600160a01b031663a9059cbb82878760ff1681518110610a1257fe5b6020026020010151600181518110610a2657fe5b60200260200101516040518363ffffffff1660e01b8152600401610a4b929190612694565b602060405180830381600087803b158015610a6557600080fd5b505af1158015610a79573d6000803e3d6000fd5b505050506040513d601f19601f82011682018060405250610a9d91908101906120cc565b5061090c565b6000858560ff1681518110610ab457fe5b6020026020010151600281518110610ac857fe5b60200260200101511115610b1d5773c02aaa39b223fe8d0a0e5c4f27ead9083c756cc26001600160a01b031663a9059cbb82878760ff1681518110610b0957fe5b6020026020010151600281518110610a2657fe5b6000858560ff1681518110610b2e57fe5b6020026020010151600381518110610b4257fe5b60200260200101511115610b975773a0b86991c6218b36c1d19d4a2e9eb0ce3606eb486001600160a01b031663a9059cbb82878760ff1681518110610b8357fe5b6020026020010151600381518110610a2657fe5b6000858560ff1681518110610ba857fe5b6020026020010151600481518110610bbc57fe5b60200260200101511115610c115773dac17f958d2ee523a2206206994597c13d831ec76001600160a01b031663a9059cbb82878760ff1681518110610bfd57fe5b6020026020010151600481518110610a2657fe5b6000858560ff1681518110610c2257fe5b6020026020010151600581518110610c3657fe5b60200260200101511115610c8b577357ab1ec28d129707052df4df418d58a2d46d5f516001600160a01b031663a9059cbb82878760ff1681518110610c7757fe5b6020026020010151600581518110610a2657fe5b6000858560ff1681518110610c9c57fe5b6020026020010151600681518110610cb057fe5b60200260200101511115610d0557732260fac5e5542a773aa44fbcfedf7c193bc2c5996001600160a01b031663a9059cbb82878760ff1681518110610cf157fe5b6020026020010151600681518110610a2657fe5b6000858560ff1681518110610d1657fe5b6020026020010151600781518110610d2a57fe5b60200260200101511115610d7f57731985365e9f78359a9b6ad760e32412f4a445e8626001600160a01b031663a9059cbb82878760ff1681518110610d6b57fe5b6020026020010151600781518110610a2657fe5b6000858560ff1681518110610d9057fe5b6020026020010151600881518110610da457fe5b60200260200101511115610df957735d3a536e4d6dbd6114cc1ead35777bab948e36436001600160a01b031663a9059cbb82878760ff1681518110610de557fe5b6020026020010151600881518110610a2657fe5b6000858560ff1681518110610e0a57fe5b6020026020010151600981518110610e1e57fe5b60200260200101511115610e73577339aa39c021dfbae8fac545936693ac917d5e75636001600160a01b031663a9059cbb82878760ff1681518110610e5f57fe5b6020026020010151600981518110610a2657fe5b6000858560ff1681518110610e8457fe5b6020026020010151600a81518110610e9857fe5b60200260200101511115610eed5773c11b1268c1a384e55c48c2391d8d480264a3a7f46001600160a01b031663a9059cbb82878760ff1681518110610ed957fe5b6020026020010151600a81518110610a2657fe5b6000858560ff1681518110610efe57fe5b6020026020010151600b81518110610f1257fe5b6020026020010151111561090c57734ddc2d193948926d02f9b1fe9e1daa0718270ed56001600160a01b031663a9059cbb82878760ff1681518110610f5357fe5b6020026020010151600b81518110610f6757fe5b60200260200101516040518363ffffffff1660e01b8152600401610f8c929190612694565b602060405180830381600087803b158015610fa657600080fd5b505af1158015610fba573d6000803e3d6000fd5b505050506040513d601f19601f8201168201806040525061075091908101906120cc565b60208201516001600160a01b0316600414156110235760008180602001905161100a9190810190611e5d565b9250505061090c8584606001516000815181106108aa57fe5b60208201516001600160a01b03166005141561110657600080828060200190516110509190810190611df3565b91509150806001600160a01b031663a9059cbb83888860ff168151811061107357fe5b602002602001015160008151811061108757fe5b60200260200101516040518363ffffffff1660e01b81526004016110ac9291906126af565b602060405180830381600087803b1580156110c657600080fd5b505af11580156110da573d6000803e3d6000fd5b505050506040513d601f19601f820116820180604052506110fe91908101906120cc565b5050506111a3565b606061112d8360200151868660ff168151811061111f57fe5b602002602001015184611482565b905060005b8360600151518160ff1610156111a0576111988685606001518360ff168151811061115957fe5b602002602001015186608001518460ff168151811061117457fe5b6020026020010151858560ff168151811061118b57fe5b6020026020010151611712565b600101611132565b50505b505060010161036b565b505050565b60606001805480602002602001604051908101604052809291908181526020016000905b8282101561147957600084815260209081902060408051600686029092018054600260018216156101009081026000190190921604601f81018690049095028401810190925260e083018481529293909284929091849184018282801561127e5780601f106112535761010080835404028352916020019161127e565b820191906000526020600020905b81548152906001019060200180831161126157829003601f168201915b50505091835250506001828101546001600160a01b0316602080840191909152600280850180546040805161010096831615969096026000190190911692909204601f810184900484028501840183528085529190940193918301828280156113285780601f106112fd57610100808354040283529160200191611328565b820191906000526020600020905b81548152906001019060200180831161130b57829003601f168201915b50505050508152602001600382018054806020026020016040519081016040528092919081815260200182805480156113b257602002820191906000526020600020906000905b82829054906101000a90046001600160401b03166001600160401b03168152602001906008019060208260070104928301926001038202915080841161136f5790505b505050505081526020016004820180548060200260200160405190810160405280929190818152602001828054801561143c57602002820191906000526020600020906000905b82829054906101000a90046001600160401b03166001600160401b0316815260200190600801906020826007010492830192600103820291508084116113f95790505b50505091835250506005919091015460ff8082166020808501919091526101009092041660409092019190915290825260019290920191016111d6565b50505050905090565b60608060405161149190612656565b604051809103902084846040516024016114ac929190612704565b604051602081830303815290604052906001600160e01b0319166020820180516001600160e01b038381831617835250505050905060006060866001600160a01b0316836040516114fd919061264a565b600060405180830381855af49150503d8060008114611538576040519150601f19603f3d011682016040523d82523d6000602084013e61153d565b606091505b509150915081819061156b5760405162461bcd60e51b81526004016115629190612729565b60405180910390fd5b50808060200190516115809190810190612098565b979650505050505050565b6001818154811061159857fe5b60009182526020918290206006919091020180546040805160026001841615610100026000190190931692909204601f8101859004850283018501909152808252919350918391908301828280156116315780601f1061160657610100808354040283529160200191611631565b820191906000526020600020905b81548152906001019060200180831161161457829003601f168201915b505050506001838101546002808601805460408051602061010097841615979097026000190190921693909304601f810186900486028201860190935282815295966001600160a01b039093169592945091928301828280156116d55780601f106116aa576101008083540402835291602001916116d5565b820191906000526020600020905b8154815290600101906020018083116116b857829003601f168201915b5050506005909301549192505060ff8082169161010090041685565b604051806040016040528060058152602001640312e302e360dc1b81525081565b83836001600160401b03168151811061172757fe5b6020026020010151826001600160401b03168151811061174357fe5b60200260200101516000146117a25761179d8185856001600160401b03168151811061176b57fe5b6020026020010151846001600160401b03168151811061178757fe5b602002602001015161194b90919063ffffffff16565b6117a4565b805b84846001600160401b0316815181106117b957fe5b6020026020010151836001600160401b0316815181106117d557fe5b60200260200101818152505050505050565b6000826117f657506000611824565b8282028284828161180357fe5b04146118215760405162461bcd60e51b8152600401611562906127c2565b90505b92915050565b600061182183836040518060400160405280601a81526020017f536166654d6174683a206469766973696f6e206279207a65726f000000000000815250611970565b600061182183836040518060400160405280601e81526020017f536166654d6174683a207375627472616374696f6e206f766572666c6f7700008152506119a9565b30318111156118cf5760405162461bcd60e51b8152600401611562906127b2565b6000826001600160a01b0316826040516118e890612661565b60006040518083038185875af1925050503d8060008114611925576040519150601f19603f3d011682016040523d82523d6000602084013e61192a565b606091505b50509050806111ad5760405162461bcd60e51b8152600401611562906127a2565b6000828201838110156118215760405162461bcd60e51b815260040161156290612792565b600081836119915760405162461bcd60e51b81526004016115629190612729565b50600083858161199d57fe5b049150505b9392505050565b600081848411156119cd5760405162461bcd60e51b81526004016115629190612729565b505050900390565b6040518060e001604052806060815260200160006001600160a01b03168152602001606081526020016060815260200160608152602001600060ff168152602001600060ff1681525090565b803561182481612919565b805161182481612919565b600082601f830112611a4857600080fd5b8135611a5b611a5682612832565b61280c565b81815260209384019390925082018360005b83811015611a995781358601611a838882611bba565b8452506020928301929190910190600101611a6d565b5050505092915050565b600082601f830112611ab457600080fd5b8135611ac2611a5682612832565b81815260209384019390925082018360005b83811015611a995781358601611aea8882611bba565b8452506020928301929190910190600101611ad4565b600082601f830112611b1157600080fd5b8135611b1f611a5682612832565b81815260209384019390925082018360005b83811015611a995781358601611b478882611d5d565b8452506020928301929190910190600101611b31565b600082601f830112611b6e57600080fd5b8135611b7c611a5682612832565b81815260209384019390925082018360005b83811015611a995781358601611ba48882611d5d565b8452506020928301929190910190600101611b8e565b600082601f830112611bcb57600080fd5b8135611bd9611a5682612832565b91508181835260208401935060208101905083856020840282011115611bfe57600080fd5b60005b83811015611a995781611c148882611dac565b8452506020928301929190910190600101611c01565b600082601f830112611c3b57600080fd5b8151611c49611a5682612832565b91508181835260208401935060208101905083856020840282011115611c6e57600080fd5b60005b83811015611a995781611c848882611db7565b8452506020928301929190910190600101611c71565b600082601f830112611cab57600080fd5b8135611cb9611a5682612832565b91508181835260208401935060208101905083856020840282011115611cde57600080fd5b60005b83811015611a995781611cf48882611dac565b8452506020928301929190910190600101611ce1565b805161182481612930565b60008083601f840112611d2757600080fd5b5081356001600160401b03811115611d3e57600080fd5b602083019150836001820283011115611d5657600080fd5b9250929050565b600082601f830112611d6e57600080fd5b8135611d7c611a5682612852565b91508082526020830160208301858383011115611d9857600080fd5b611da38382846128d3565b50505092915050565b803561182481612939565b805161182481612939565b805161182481612942565b600060208284031215611ddf57600080fd5b6000611deb8484611a2c565b949350505050565b60008060408385031215611e0657600080fd5b6000611e128585611a2c565b9250506020611e2385828601611a2c565b9150509250929050565b60008060408385031215611e4057600080fd5b6000611e4c8585611a2c565b9250506020611e2385828601611db7565b600080600060608486031215611e7257600080fd5b6000611e7e8686611a2c565b9350506020611e8f86828701611db7565b9250506040611ea086828701611db7565b9150509250925092565b600080600060608486031215611ebf57600080fd5b6000611ecb8686611a21565b93505060208401356001600160401b03811115611ee757600080fd5b611ef386828701611c9a565b92505060408401356001600160401b03811115611f0f57600080fd5b611ea086828701611d5d565b600080600080600060808688031215611f3357600080fd5b6000611f3f8888611a21565b9550506020611f5088828901611dac565b9450506040611f6188828901611dac565b93505060608601356001600160401b03811115611f7d57600080fd5b611f8988828901611d15565b92509250509295509295909350565b60008060408385031215611fab57600080fd5b82356001600160401b03811115611fc157600080fd5b611fcd85828601611b5d565b92505060208301356001600160401b03811115611fe957600080fd5b611e2385828601611aa3565b6000806040838503121561200857600080fd5b82356001600160401b0381111561201e57600080fd5b61202a85828601611b5d565b9250506020611e2385828601611dac565b6000806040838503121561204e57600080fd5b82356001600160401b0381111561206457600080fd5b61207085828601611b00565b92505060208301356001600160401b0381111561208c57600080fd5b611e2385828601611a37565b6000602082840312156120aa57600080fd5b81516001600160401b038111156120c057600080fd5b611deb84828501611c2a565b6000602082840312156120de57600080fd5b6000611deb8484611d0a565b6000602082840312156120fc57600080fd5b6000611deb8484611dac565b60006020828403121561211a57600080fd5b6000611deb8484611db7565b60006020828403121561213857600080fd5b6000611deb8484611dc2565b60006118218383612329565b600061182183836123c5565b60006118218383612586565b6000612174838361262f565b505060200190565b60006121748383612638565b612191816128c2565b82525050565b61219181612891565b60006121ab8261287f565b6121b58185612883565b9350836020820285016121c785612879565b8060005b8581101561220157848403895281516121e48582612144565b94506121ef83612879565b60209a909a01999250506001016121cb565b5091979650505050505050565b60006122198261287f565b6122238185612883565b93508360208202850161223585612879565b8060005b8581101561220157848403895281516122528582612150565b945061225d83612879565b60209a909a0199925050600101612239565b600061227a8261287f565b6122848185612883565b93508360208202850161229685612879565b8060005b8581101561220157848403895281516122b3858261215c565b94506122be83612879565b60209a909a019992505060010161229a565b60006122db8261287f565b6122e58185612883565b93506122f083612879565b8060005b8381101561231e5781516123088882612168565b975061231383612879565b9250506001016122f4565b509495945050505050565b60006123348261287f565b61233e8185612883565b935061234983612879565b8060005b8381101561231e5781516123618882612168565b975061236c83612879565b92505060010161234d565b60006123828261287f565b61238c8185612883565b935061239783612879565b8060005b8381101561231e5781516123af888261217c565b97506123ba83612879565b92505060010161239b565b60006123d08261287f565b6123da8185612883565b93506123ea8185602086016128df565b6123f38161290f565b9093019392505050565b60006124088261287f565b612412818561288c565b93506124228185602086016128df565b9290920192915050565b6000612439601b83612883565b7f536166654d6174683a206164646974696f6e206f766572666c6f770000000000815260200192915050565b6000612472603a83612883565b7f416464726573733a20756e61626c6520746f2073656e642076616c75652c207281527f6563697069656e74206d61792068617665207265766572746564000000000000602082015260400192915050565b60006124d1601d83612883565b7f416464726573733a20696e73756666696369656e742062616c616e6365000000815260200192915050565b600061250a602183612883565b7f536166654d6174683a206d756c7469706c69636174696f6e206f766572666c6f8152607760f81b602082015260400192915050565b600061254d60188361288c565b7f6f7065726174652875696e743235365b5d2c6279746573290000000000000000815260180192915050565b600061182460008361288c565b805160e08084526000919084019061259e82826123c5565b91505060208301516125b36020860182612197565b50604083015184820360408601526125cb82826123c5565b915050606083015184820360608601526125e58282612377565b915050608083015184820360808601526125ff8282612377565b91505060a083015161261460a0860182612641565b5060c083015161262760c0860182612641565b509392505050565b612191816128ad565b612191816128b0565b612191816128bc565b60006119a282846123fd565b600061182482612540565b600061182482612579565b6060810161267a8286612188565b6126876020830185612188565b611deb604083018461262f565b604081016126a28285612188565b6119a2602083018461262f565b604081016126a28285612197565b604080825281016126ce818561220e565b90508181036020830152611deb81846121a0565b60208082528101611821818461226f565b6020808252810161182181846122d0565b6040808252810161271581856122d0565b90508181036020830152611deb81846123c5565b6020808252810161182181846123c5565b60a0808252810161274b81886123c5565b905061275a6020830187612197565b818103604083015261276c81866123c5565b905061277b6060830185612641565b6127886080830184612641565b9695505050505050565b602080825281016118248161242c565b6020808252810161182481612465565b60208082528101611824816124c4565b60208082528101611824816124fd565b608081016127e0828761262f565b6127ed602083018661262f565b6127fa6040830185612188565b818103606083015261278881846123c5565b6040518181016001600160401b038111828210171561282a57600080fd5b604052919050565b60006001600160401b0382111561284857600080fd5b5060209081020190565b60006001600160401b0382111561286857600080fd5b506020601f91909101601f19160190565b60200190565b5190565b90815260200190565b919050565b6000611824826128a1565b151590565b6001600160a01b031690565b90565b6001600160401b031690565b60ff1690565b600061182482600061182482612891565b82818337506000910152565b60005b838110156128fa5781810151838201526020016128e2565b83811115612909576000848401525b50505050565b601f01601f191690565b61292281612891565b811461292d57600080fd5b50565b6129228161289c565b612922816128ad565b612922816128bc56fea365627a7a72315820467f15d5d5808cfc8f39028a6689eb231d4c3fc3c55f5456b96a0c1f4200f8376c6578706572696d656e74616cf564736f6c63430005110040",
  "compiler": {
    "name": "solc",
    "version": "0.5.17+commit.d19bba13.Emscripten.clang",
    "optimizer": {
      "enabled": true,
      "runs": 200
    },
    "evmVersion": "petersburg"
  }
}