{
  "fileName": "Graph.sol",
  "contractName": "Graph",
  "source": "pragma solidity ^0.5.0;\npragma experimental ABIEncoderV2;\n\nimport \"@openzeppelin/contracts-ethereum-package/contracts/math/SafeMath.sol\";\nimport \"@openzeppelin/contracts-ethereum-package/contracts/utils/Address.sol\";\nimport \"@openzeppelin/contracts-ethereum-package/contracts/token/ERC20/IERC20.sol\";\nimport \"./GraphBase.sol\";\nimport \"./operations/uniswapv2/IPair.sol\";\n\n\ncontract Graph is GraphBase {\n    string public constant VERSION = \"1.0.0\";\n\n    using SafeMath for uint256;\n\n    constructor(GraphBase.Element[] memory _elements) public {\n        for (uint256 i; i < _elements.length; i++) {\n            elements.length++;\n            elements[i] = Element({\n                hash: _elements[i].hash,\n                addr: _elements[i].addr,\n                params: _elements[i].params,\n                outputsIndexes: _elements[i].outputsIndexes,\n                outputsInputIndexes: _elements[i].outputsInputIndexes,\n                x: _elements[i].x,\n                y: _elements[i].y\n            });\n        }\n    }\n\n    /**\n     * Fallback function accepts Ether transactions.\n     */\n    function() external payable {}\n\n    /**\n     * Execute .\n     * @param _paramsList params for each element to execute\n     * @param _maxElementInputs max inputs an element has\n     */\n    function execute(bytes[] memory _paramsList, uint256 _maxElementInputs)\n        public\n        payable\n    {\n        uint256[][] memory inputs = new uint256[][](elements.length);\n        bool hasFlashSwap = false;\n        uint256 flashSwapInIndex;\n        uint256 flashSwapOutIndex;\n        for (uint256 i; i < elements.length; i++) {\n            if (elements[i].addr == address(4)) {\n                //FlashSwap (only one allowed)\n                hasFlashSwap = true;\n                flashSwapInIndex = i;\n            } else if (elements[i].addr == address(5)) {\n                flashSwapOutIndex = i;\n            }\n            inputs[i] = new uint256[](_maxElementInputs);\n        }\n        if (hasFlashSwap) {\n            //Execute element with flash swap\n            bytes memory data = abi.encodeWithSelector(\n                bytes4(keccak256(\"executeElements(bytes[],uint256[][])\")),\n                _paramsList,\n                inputs\n            );\n            (address pair, uint256 index, uint256 amount) = abi.decode(\n                _paramsList[flashSwapInIndex],\n                (address, uint256, uint256)\n            );\n            IPair(pair).swap(\n                index == 0 ? amount : 0,\n                index == 0 ? 0 : amount,\n                address(this),\n                data\n            );\n\n            address asset = abi.decode(\n                _paramsList[flashSwapOutIndex],\n                (address)\n            );\n            IERC20(asset).transfer(pair, inputs[flashSwapOutIndex][0]);\n        } else {\n            //Execute elements\n            executeElements(_paramsList, inputs);\n        }\n    }\n\n    /**\n     * Execute .\n     * @param _paramsList params for each element to execute\n     * @param _inputs inputs for each element\n     */\n    function executeElements(\n        bytes[] memory _paramsList,\n        uint256[][] memory _inputs\n    ) public {\n        for (uint8 i = 0; i < _paramsList.length; i++) {\n            GraphBase.Element memory element = elements[i];\n            bytes memory params = _paramsList[i];\n            if (element.addr == address(1)) {\n                //InputElement\n                (address asset, uint256 amount) = abi.decode(\n                    params,\n                    (address, uint256)\n                );\n                if (asset != address(0) && amount > 0) {\n                    //No transferFrom for ethers\n                    IERC20(asset).transferFrom(\n                        msg.sender,\n                        address(this),\n                        amount\n                    );\n                }\n                //Input element has one output\n                addAmountToInput(\n                    _inputs,\n                    element.outputsIndexes[0],\n                    element.outputsInputIndexes[0],\n                    amount\n                );\n            } else if (element.addr == address(2)) {\n                //SplitterElement\n                uint8 percentage = abi.decode(params, (uint8));\n                uint256 firstShare = _inputs[i][0].mul(percentage).div(100);\n                //Spliiter element has one output\n                addAmountToInput(\n                    _inputs,\n                    element.outputsIndexes[0],\n                    element.outputsInputIndexes[0],\n                    firstShare\n                );\n                addAmountToInput(\n                    _inputs,\n                    element.outputsIndexes[1],\n                    element.outputsInputIndexes[1],\n                    _inputs[i][0].sub(firstShare)\n                );\n            } else if (element.addr == address(3)) {\n                //AddressElement\n                address payable addr = abi.decode(params, (address));\n                if (_inputs[i][0] > 0) {\n                    //ETH\n                    Address.sendValue(addr, _inputs[i][0]);\n                } else if (_inputs[i][1] > 0) {\n                    //DAI\n                    IERC20(0x6B175474E89094C44Da98b954EedeAC495271d0F).transfer(\n                        addr,\n                        _inputs[i][1]\n                    );\n                } else if (_inputs[i][2] > 0) {\n                    // WETH\n                    IERC20(0xC02aaA39b223FE8D0A0e5C4F27eAD9083C756Cc2).transfer(\n                        addr,\n                        _inputs[i][2]\n                    );\n                } else if (_inputs[i][3] > 0) {\n                    //USDC\n                    IERC20(0xA0b86991c6218b36c1d19D4a2e9Eb0cE3606eB48).transfer(\n                        addr,\n                        _inputs[i][3]\n                    );\n                } else if (_inputs[i][4] > 0) {\n                    //USDT\n                    IERC20(0xdAC17F958D2ee523a2206206994597C13D831ec7).transfer(\n                        addr,\n                        _inputs[i][4]\n                    );\n                } else if (_inputs[i][5] > 0) {\n                    //SUSD\n                    IERC20(0x57Ab1ec28D129707052df4dF418D58a2D46d5f51).transfer(\n                        addr,\n                        _inputs[i][5]\n                    );\n                } else if (_inputs[i][6] > 0) {\n                    //WBTC\n                    IERC20(0x2260FAC5E5542a773Aa44fBCfeDf7C193bc2C599).transfer(\n                        addr,\n                        _inputs[i][6]\n                    );\n                } else if (_inputs[i][7] > 0) {\n                    //REP\n                    IERC20(0x1985365e9f78359a9B6AD760e32412f4a445E862).transfer(\n                        addr,\n                        _inputs[i][7]\n                    );\n                } else if (_inputs[i][8] > 0) {\n                    //CDAI\n                    IERC20(0x5d3a536E4D6DbD6114cc1Ead35777bAB948E3643).transfer(\n                        addr,\n                        _inputs[i][8]\n                    );\n                } else if (_inputs[i][9] > 0) {\n                    //CUSDC\n                    IERC20(0x39AA39c021dfbaE8faC545936693aC917d5E7563).transfer(\n                        addr,\n                        _inputs[i][9]\n                    );\n                } else if (_inputs[i][10] > 0) {\n                    //CWBTC\n                    IERC20(0xC11b1268C1A384e55C48c2391d8d480264A3A7F4).transfer(\n                        addr,\n                        _inputs[i][10]\n                    );\n                } else if (_inputs[i][11] > 0) {\n                    //CETH\n                    IERC20(0x4Ddc2D193948926D02f9B1fE9e1daa0718270ED5).transfer(\n                        addr,\n                        _inputs[i][11]\n                    );\n                }\n            } else {\n                uint256[] memory outAmounts = executeOperation(\n                    element.addr,\n                    _inputs[i],\n                    params\n                );\n                //Redirect\n                for (uint8 j = 0; j < element.outputsIndexes.length; j++) {\n                    addAmountToInput(\n                        _inputs,\n                        element.outputsIndexes[j],\n                        element.outputsInputIndexes[j],\n                        outAmounts[j]\n                    );\n                }\n            }\n        }\n        //TODO: send all remains to sender\n    }\n\n    /**\n     * Execute one operation.\n     * @param _operation operaetion to execute\n     * @param _inAmounts params is the amount to swap\n     * @param _params params contains the min amount to buy and the time deadline\n     */\n    function executeOperation(\n        address _operation,\n        uint256[] memory _inAmounts,\n        bytes memory _params\n    ) public returns (uint256[] memory outAmounts) {\n        bytes memory data = abi.encodeWithSelector(\n            bytes4(keccak256(\"operate(uint256[],bytes)\")),\n            _inAmounts,\n            _params\n        );\n        (bool success, bytes memory returnedData) = _operation.delegatecall(\n            data\n        );\n        require(success, string(returnedData));\n        outAmounts = abi.decode(returnedData, (uint256[]));\n    }\n\n    function addAmountToInput(\n        uint256[][] memory inputs,\n        uint64 index1,\n        uint64 index2,\n        uint256 amount\n    ) private {\n        inputs[index1][index2] = inputs[index1][index2] == 0\n            ? amount\n            : (inputs[index1][index2]).add(amount);\n    }\n\n    function getElements() public view returns (GraphBase.Element[] memory) {\n        return elements;\n    }\n}\n",
  "sourcePath": "contracts/Graph.sol",
  "abi": [
    {
      "inputs": [
        {
          "components": [
            {
              "internalType": "string",
              "name": "hash",
              "type": "string"
            },
            {
              "internalType": "address",
              "name": "addr",
              "type": "address"
            },
            {
              "internalType": "bytes",
              "name": "params",
              "type": "bytes"
            },
            {
              "internalType": "uint64[]",
              "name": "outputsIndexes",
              "type": "uint64[]"
            },
            {
              "internalType": "uint64[]",
              "name": "outputsInputIndexes",
              "type": "uint64[]"
            },
            {
              "internalType": "uint8",
              "name": "x",
              "type": "uint8"
            },
            {
              "internalType": "uint8",
              "name": "y",
              "type": "uint8"
            }
          ],
          "internalType": "struct GraphBase.Element[]",
          "name": "_elements",
          "type": "tuple[]"
        }
      ],
      "payable": false,
      "stateMutability": "nonpayable",
      "type": "constructor"
    },
    {
      "payable": true,
      "stateMutability": "payable",
      "type": "fallback"
    },
    {
      "constant": true,
      "inputs": [],
      "name": "VERSION",
      "outputs": [
        {
          "internalType": "string",
          "name": "",
          "type": "string"
        }
      ],
      "payable": false,
      "stateMutability": "view",
      "type": "function"
    },
    {
      "constant": true,
      "inputs": [
        {
          "internalType": "uint256",
          "name": "",
          "type": "uint256"
        }
      ],
      "name": "elements",
      "outputs": [
        {
          "internalType": "string",
          "name": "hash",
          "type": "string"
        },
        {
          "internalType": "address",
          "name": "addr",
          "type": "address"
        },
        {
          "internalType": "bytes",
          "name": "params",
          "type": "bytes"
        },
        {
          "internalType": "uint8",
          "name": "x",
          "type": "uint8"
        },
        {
          "internalType": "uint8",
          "name": "y",
          "type": "uint8"
        }
      ],
      "payable": false,
      "stateMutability": "view",
      "type": "function"
    },
    {
      "constant": false,
      "inputs": [
        {
          "internalType": "bytes[]",
          "name": "_paramsList",
          "type": "bytes[]"
        },
        {
          "internalType": "uint256",
          "name": "_maxElementInputs",
          "type": "uint256"
        }
      ],
      "name": "execute",
      "outputs": [],
      "payable": true,
      "stateMutability": "payable",
      "type": "function"
    },
    {
      "constant": false,
      "inputs": [
        {
          "internalType": "bytes[]",
          "name": "_paramsList",
          "type": "bytes[]"
        },
        {
          "internalType": "uint256[][]",
          "name": "_inputs",
          "type": "uint256[][]"
        }
      ],
      "name": "executeElements",
      "outputs": [],
      "payable": false,
      "stateMutability": "nonpayable",
      "type": "function"
    },
    {
      "constant": false,
      "inputs": [
        {
          "internalType": "address",
          "name": "_operation",
          "type": "address"
        },
        {
          "internalType": "uint256[]",
          "name": "_inAmounts",
          "type": "uint256[]"
        },
        {
          "internalType": "bytes",
          "name": "_params",
          "type": "bytes"
        }
      ],
      "name": "executeOperation",
      "outputs": [
        {
          "internalType": "uint256[]",
          "name": "outAmounts",
          "type": "uint256[]"
        }
      ],
      "payable": false,
      "stateMutability": "nonpayable",
      "type": "function"
    },
    {
      "constant": true,
      "inputs": [],
      "name": "getElements",
      "outputs": [
        {
          "components": [
            {
              "internalType": "string",
              "name": "hash",
              "type": "string"
            },
            {
              "internalType": "address",
              "name": "addr",
              "type": "address"
            },
            {
              "internalType": "bytes",
              "name": "params",
              "type": "bytes"
            },
            {
              "internalType": "uint64[]",
              "name": "outputsIndexes",
              "type": "uint64[]"
            },
            {
              "internalType": "uint64[]",
              "name": "outputsInputIndexes",
              "type": "uint64[]"
            },
            {
              "internalType": "uint8",
              "name": "x",
              "type": "uint8"
            },
            {
              "internalType": "uint8",
              "name": "y",
              "type": "uint8"
            }
          ],
          "internalType": "struct GraphBase.Element[]",
          "name": "",
          "type": "tuple[]"
        }
      ],
      "payable": false,
      "stateMutability": "view",
      "type": "function"
    }
  ],
  "bytecode": "0x60806040523480156200001157600080fd5b5060405162002f8938038062002f8983398101604081905262000034916200076d565b60005b81518110156200023457600180549062000054908281016200023c565b506040518060e001604052808383815181106200006d57fe5b60200260200101516000015181526020018383815181106200008b57fe5b6020026020010151602001516001600160a01b03168152602001838381518110620000b257fe5b6020026020010151604001518152602001838381518110620000d057fe5b6020026020010151606001518152602001838381518110620000ee57fe5b60200260200101516080015181526020018383815181106200010c57fe5b602002602001015160a0015160ff1681526020018383815181106200012d57fe5b602002602001015160c0015160ff16815250600182815481106200014d57fe5b906000526020600020906006020160008201518160000190805190602001906200017992919062000270565b506020828101516001830180546001600160a01b0319166001600160a01b0390921691909117905560408301518051620001ba926002850192019062000270565b5060608201518051620001d8916003840191602090910190620002f5565b5060808201518051620001f6916004840191602090910190620002f5565b5060a08201516005909101805460c09093015160ff9081166101000261ff00199190931660ff19909416939093179290921617905560010162000037565b5050620008a1565b8154818355818111156200026b576006028160060283600052602060002091820191016200026b9190620003b0565b505050565b828054600181600116156101000203166002900490600052602060002090601f016020900481019282601f10620002b357805160ff1916838001178555620002e3565b82800160010185558215620002e3579182015b82811115620002e3578251825591602001919060010190620002c6565b50620002f19291506200042a565b5090565b82805482825590600052602060002090600301600490048101928215620003a25791602002820160005b838211156200036b57835183826101000a8154816001600160401b0302191690836001600160401b0316021790555092602001926008016020816007010492830192600103026200031f565b8015620003a05782816101000a8154906001600160401b0302191690556008016020816007010492830192600103026200036b565b505b50620002f192915062000447565b6200042791905b80821115620002f1576000620003ce82826200046e565b6001820180546001600160a01b0319169055620003f06002830160006200046e565b62000400600383016000620004b9565b62000410600483016000620004b9565b5060058101805461ffff19169055600601620003b7565b90565b6200042791905b80821115620002f1576000815560010162000431565b6200042791905b80821115620002f15780546001600160401b03191681556001016200044e565b50805460018160011615610100020316600290046000825580601f10620004965750620004b6565b601f016020900490600052602060002090810190620004b691906200042a565b50565b508054600082556003016004900490600052602060002090810190620004b691906200042a565b8051620004ed8162000874565b92915050565b600082601f8301126200050557600080fd5b81516200051c6200051682620007d4565b620007ad565b81815260209384019390925082018360005b838110156200055e578151860162000547888262000637565b84525060209283019291909101906001016200052e565b5050505092915050565b600082601f8301126200057a57600080fd5b81516200058b6200051682620007d4565b91508181835260208401935060208101905083856020840282011115620005b157600080fd5b60005b838110156200055e5781620005ca888262000753565b8452506020928301929190910190600101620005b4565b600082601f830112620005f357600080fd5b8151620006046200051682620007f5565b915080825260208301602083018583830111156200062157600080fd5b6200062e83828462000841565b50505092915050565b600060e082840312156200064a57600080fd5b6200065660e0620007ad565b82519091506001600160401b038111156200067057600080fd5b6200067e84828501620005e1565b82525060206200069184848301620004e0565b60208301525060408201516001600160401b03811115620006b157600080fd5b620006bf84828501620005e1565b60408301525060608201516001600160401b03811115620006df57600080fd5b620006ed8482850162000568565b60608301525060808201516001600160401b038111156200070d57600080fd5b6200071b8482850162000568565b60808301525060a0620007318482850162000760565b60a08301525060c0620007478482850162000760565b60c08301525092915050565b8051620004ed816200088b565b8051620004ed8162000896565b6000602082840312156200078057600080fd5b81516001600160401b038111156200079757600080fd5b620007a584828501620004f3565b949350505050565b6040518181016001600160401b0381118282101715620007cc57600080fd5b604052919050565b60006001600160401b03821115620007eb57600080fd5b5060209081020190565b60006001600160401b038211156200080c57600080fd5b506020601f91909101601f19160190565b60006001600160a01b038216620004ed565b6001600160401b031690565b60ff1690565b60005b838110156200085e57818101518382015260200162000844565b838111156200086e576000848401525b50505050565b6200087f816200081d565b8114620004b657600080fd5b6200087f816200082f565b6200087f816200083b565b6126d880620008b16000396000f3fe6080604052600436106100555760003560e01c80633ac7f610146100575780636f38d20d1461006a578063b1a18cc71461008a578063d0ec27cf146100b5578063e0d64b37146100e2578063ffa1ad7414610113575b005b610055610065366004611d69565b610135565b34801561007657600080fd5b50610055610085366004611d0c565b610458565b34801561009657600080fd5b5061009f6110d5565b6040516100ac919061242c565b60405180910390f35b3480156100c157600080fd5b506100d56100d0366004611c9b565b6113a5565b6040516100ac919061243d565b3480156100ee57600080fd5b506101026100fd366004611e01565b6114ae565b6040516100ac959493929190612484565b34801561011f57600080fd5b50610128611614565b6040516100ac9190612473565b600154604080518281526020808402820101909152606091801561016d57816020015b60608152602001906001900390816101585790505b50905060008080805b6001548110156102505760046001600160a01b03166001828154811061019857fe5b60009182526020909120600160069092020101546001600160a01b031614156101c75760019350809250610206565b60056001600160a01b0316600182815481106101df57fe5b60009182526020909120600160069092020101546001600160a01b03161415610206578091505b85604051908082528060200260200182016040528015610230578160200160208202803883390190505b5085828151811061023d57fe5b6020908102919091010152600101610176565b50821561044657606060405161026590612395565b60405180910390208786604051602401610280929190612407565b604051602081830303815290604052906001600160e01b0319166020820180516001600160e01b038381831617835250505050905060008060008986815181106102c657fe5b60200260200101518060200190516102e19190810190611c4e565b925092509250826001600160a01b031663022c0d9f83600014610305576000610307565b825b84156103135783610316565b60005b30886040518563ffffffff1660e01b8152600401610337949392919061251c565b600060405180830381600087803b15801561035157600080fd5b505af1158015610365573d6000803e3d6000fd5b5050505060008a868151811061037757fe5b60200260200101518060200190516103929190810190611bee565b9050806001600160a01b031663a9059cbb858b89815181106103b057fe5b60200260200101516000815181106103c457fe5b60200260200101516040518363ffffffff1660e01b81526004016103e99291906123f9565b602060405180830381600087803b15801561040357600080fd5b505af1158015610417573d6000803e3d6000fd5b505050506040513d601f19601f8201168201806040525061043b9190810190611de3565b505050505050610450565b6104508685610458565b505050505050565b60005b82518160ff1610156110d05761046f6118f8565b60018260ff168154811061047f57fe5b6000918252602091829020604080516006939093029091018054600260018216156101009081026000190190921604601f81018690049095028401810190925260e08301848152929390928492909184918401828280156105215780601f106104f657610100808354040283529160200191610521565b820191906000526020600020905b81548152906001019060200180831161050457829003601f168201915b50505091835250506001828101546001600160a01b0316602080840191909152600280850180546040805161010096831615969096026000190190911692909204601f810184900484028501840183528085529190940193918301828280156105cb5780601f106105a0576101008083540402835291602001916105cb565b820191906000526020600020905b8154815290600101906020018083116105ae57829003601f168201915b505050505081526020016003820180548060200260200160405190810160405280929190818152602001828054801561065557602002820191906000526020600020906000905b82829054906101000a90046001600160401b03166001600160401b0316815260200190600801906020826007010492830192600103820291508084116106125790505b50505050508152602001600482018054806020026020016040519081016040528092919081815260200182805480156106df57602002820191906000526020600020906000905b82829054906101000a90046001600160401b03166001600160401b03168152602001906008019060208260070104928301926001038202915080841161069c5790505b50505091835250506005919091015460ff8082166020840152610100909104811660409092019190915285519192506060918691851690811061071e57fe5b6020026020010151905060016001600160a01b031682602001516001600160a01b03161415610847576000808280602001905161075e9190810190611c14565b90925090506001600160a01b0382161580159061077b5750600081115b15610804576040516323b872dd60e01b81526001600160a01b038316906323b872dd906107b0903390309086906004016123b6565b602060405180830381600087803b1580156107ca57600080fd5b505af11580156107de573d6000803e3d6000fd5b505050506040513d601f19601f820116820180604052506108029190810190611de3565b505b61084086856060015160008151811061081957fe5b6020026020010151866080015160008151811061083257fe5b602002602001015184611635565b50506110c6565b60208201516001600160a01b031660021415610957576000818060200190516108739190810190611e1f565b905060006108c860646108bc8460ff16898960ff168151811061089257fe5b60200260200101516000815181106108a657fe5b602002602001015161170a90919063ffffffff16565b9063ffffffff61174d16565b90506108df86856060015160008151811061081957fe5b6108408685606001516001815181106108f457fe5b6020026020010151866080015160018151811061090d57fe5b6020026020010151610952858b8b60ff168151811061092857fe5b602002602001015160008151811061093c57fe5b602002602001015161178f90919063ffffffff16565b611635565b60208201516001600160a01b031660031415611029576000818060200190516109839190810190611bee565b90506000858560ff168151811061099657fe5b60200260200101516000815181106109aa57fe5b602002602001015111156109f1576109ec81868660ff16815181106109cb57fe5b60200260200101516000815181106109df57fe5b60200260200101516117d1565b611023565b6000858560ff1681518110610a0257fe5b6020026020010151600181518110610a1657fe5b60200260200101511115610ae857736b175474e89094c44da98b954eedeac495271d0f6001600160a01b031663a9059cbb82878760ff1681518110610a5757fe5b6020026020010151600181518110610a6b57fe5b60200260200101516040518363ffffffff1660e01b8152600401610a909291906123de565b602060405180830381600087803b158015610aaa57600080fd5b505af1158015610abe573d6000803e3d6000fd5b505050506040513d601f19601f82011682018060405250610ae29190810190611de3565b50611023565b6000858560ff1681518110610af957fe5b6020026020010151600281518110610b0d57fe5b60200260200101511115610b625773c02aaa39b223fe8d0a0e5c4f27ead9083c756cc26001600160a01b031663a9059cbb82878760ff1681518110610b4e57fe5b6020026020010151600281518110610a6b57fe5b6000858560ff1681518110610b7357fe5b6020026020010151600381518110610b8757fe5b60200260200101511115610bdc5773a0b86991c6218b36c1d19d4a2e9eb0ce3606eb486001600160a01b031663a9059cbb82878760ff1681518110610bc857fe5b6020026020010151600381518110610a6b57fe5b6000858560ff1681518110610bed57fe5b6020026020010151600481518110610c0157fe5b60200260200101511115610c565773dac17f958d2ee523a2206206994597c13d831ec76001600160a01b031663a9059cbb82878760ff1681518110610c4257fe5b6020026020010151600481518110610a6b57fe5b6000858560ff1681518110610c6757fe5b6020026020010151600581518110610c7b57fe5b60200260200101511115610cd0577357ab1ec28d129707052df4df418d58a2d46d5f516001600160a01b031663a9059cbb82878760ff1681518110610cbc57fe5b6020026020010151600581518110610a6b57fe5b6000858560ff1681518110610ce157fe5b6020026020010151600681518110610cf557fe5b60200260200101511115610d4a57732260fac5e5542a773aa44fbcfedf7c193bc2c5996001600160a01b031663a9059cbb82878760ff1681518110610d3657fe5b6020026020010151600681518110610a6b57fe5b6000858560ff1681518110610d5b57fe5b6020026020010151600781518110610d6f57fe5b60200260200101511115610dc457731985365e9f78359a9b6ad760e32412f4a445e8626001600160a01b031663a9059cbb82878760ff1681518110610db057fe5b6020026020010151600781518110610a6b57fe5b6000858560ff1681518110610dd557fe5b6020026020010151600881518110610de957fe5b60200260200101511115610e3e57735d3a536e4d6dbd6114cc1ead35777bab948e36436001600160a01b031663a9059cbb82878760ff1681518110610e2a57fe5b6020026020010151600881518110610a6b57fe5b6000858560ff1681518110610e4f57fe5b6020026020010151600981518110610e6357fe5b60200260200101511115610eb8577339aa39c021dfbae8fac545936693ac917d5e75636001600160a01b031663a9059cbb82878760ff1681518110610ea457fe5b6020026020010151600981518110610a6b57fe5b6000858560ff1681518110610ec957fe5b6020026020010151600a81518110610edd57fe5b60200260200101511115610f325773c11b1268c1a384e55c48c2391d8d480264a3a7f46001600160a01b031663a9059cbb82878760ff1681518110610f1e57fe5b6020026020010151600a81518110610a6b57fe5b6000858560ff1681518110610f4357fe5b6020026020010151600b81518110610f5757fe5b6020026020010151111561102357734ddc2d193948926d02f9b1fe9e1daa0718270ed56001600160a01b031663a9059cbb82878760ff1681518110610f9857fe5b6020026020010151600b81518110610fac57fe5b60200260200101516040518363ffffffff1660e01b8152600401610fd19291906123de565b602060405180830381600087803b158015610feb57600080fd5b505af1158015610fff573d6000803e3d6000fd5b505050506040513d601f19601f820116820180604052506108409190810190611de3565b506110c6565b60606110508360200151868660ff168151811061104257fe5b6020026020010151846113a5565b905060005b8360600151518160ff1610156110c3576110bb8685606001518360ff168151811061107c57fe5b602002602001015186608001518460ff168151811061109757fe5b6020026020010151858560ff16815181106110ae57fe5b6020026020010151611635565b600101611055565b50505b505060010161045b565b505050565b60606001805480602002602001604051908101604052809291908181526020016000905b8282101561139c57600084815260209081902060408051600686029092018054600260018216156101009081026000190190921604601f81018690049095028401810190925260e08301848152929390928492909184918401828280156111a15780601f10611176576101008083540402835291602001916111a1565b820191906000526020600020905b81548152906001019060200180831161118457829003601f168201915b50505091835250506001828101546001600160a01b0316602080840191909152600280850180546040805161010096831615969096026000190190911692909204601f8101849004840285018401835280855291909401939183018282801561124b5780601f106112205761010080835404028352916020019161124b565b820191906000526020600020905b81548152906001019060200180831161122e57829003601f168201915b50505050508152602001600382018054806020026020016040519081016040528092919081815260200182805480156112d557602002820191906000526020600020906000905b82829054906101000a90046001600160401b03166001600160401b0316815260200190600801906020826007010492830192600103820291508084116112925790505b505050505081526020016004820180548060200260200160405190810160405280929190818152602001828054801561135f57602002820191906000526020600020906000905b82829054906101000a90046001600160401b03166001600160401b03168152602001906008019060208260070104928301926001038202915080841161131c5790505b50505091835250506005919091015460ff8082166020808501919091526101009092041660409092019190915290825260019290920191016110f9565b50505050905090565b6060806040516113b4906123a0565b604051809103902084846040516024016113cf92919061244e565b604051602081830303815290604052906001600160e01b0319166020820180516001600160e01b038381831617835250505050905060006060866001600160a01b0316836040516114209190612389565b600060405180830381855af49150503d806000811461145b576040519150601f19603f3d011682016040523d82523d6000602084013e611460565b606091505b509150915081819061148e5760405162461bcd60e51b81526004016114859190612473565b60405180910390fd5b50808060200190516114a39190810190611daf565b979650505050505050565b600181815481106114bb57fe5b60009182526020918290206006919091020180546040805160026001841615610100026000190190931692909204601f8101859004850283018501909152808252919350918391908301828280156115545780601f1061152957610100808354040283529160200191611554565b820191906000526020600020905b81548152906001019060200180831161153757829003601f168201915b505050506001838101546002808601805460408051602061010097841615979097026000190190921693909304601f810186900486028201860190935282815295966001600160a01b039093169592945091928301828280156115f85780601f106115cd576101008083540402835291602001916115f8565b820191906000526020600020905b8154815290600101906020018083116115db57829003601f168201915b5050506005909301549192505060ff8082169161010090041685565b604051806040016040528060058152602001640312e302e360dc1b81525081565b83836001600160401b03168151811061164a57fe5b6020026020010151826001600160401b03168151811061166657fe5b60200260200101516000146116c5576116c08185856001600160401b03168151811061168e57fe5b6020026020010151846001600160401b0316815181106116aa57fe5b602002602001015161186e90919063ffffffff16565b6116c7565b805b84846001600160401b0316815181106116dc57fe5b6020026020010151836001600160401b0316815181106116f857fe5b60200260200101818152505050505050565b60008261171957506000611747565b8282028284828161172657fe5b04146117445760405162461bcd60e51b81526004016114859061250c565b90505b92915050565b600061174483836040518060400160405280601a81526020017f536166654d6174683a206469766973696f6e206279207a65726f000000000000815250611893565b600061174483836040518060400160405280601e81526020017f536166654d6174683a207375627472616374696f6e206f766572666c6f7700008152506118cc565b30318111156117f25760405162461bcd60e51b8152600401611485906124fc565b6000826001600160a01b03168260405161180b906123ab565b60006040518083038185875af1925050503d8060008114611848576040519150601f19603f3d011682016040523d82523d6000602084013e61184d565b606091505b50509050806110d05760405162461bcd60e51b8152600401611485906124ec565b6000828201838110156117445760405162461bcd60e51b8152600401611485906124dc565b600081836118b45760405162461bcd60e51b81526004016114859190612473565b5060008385816118c057fe5b049150505b9392505050565b600081848411156118f05760405162461bcd60e51b81526004016114859190612473565b505050900390565b6040518060e001604052806060815260200160006001600160a01b03168152602001606081526020016060815260200160608152602001600060ff168152602001600060ff1681525090565b803561174781612663565b805161174781612663565b600082601f83011261196b57600080fd5b813561197e6119798261257c565b612556565b81815260209384019390925082018360005b838110156119bc57813586016119a68882611a23565b8452506020928301929190910190600101611990565b5050505092915050565b600082601f8301126119d757600080fd5b81356119e56119798261257c565b81815260209384019390925082018360005b838110156119bc5781358601611a0d8882611b7e565b84525060209283019291909101906001016119f7565b600082601f830112611a3457600080fd5b8135611a426119798261257c565b91508181835260208401935060208101905083856020840282011115611a6757600080fd5b60005b838110156119bc5781611a7d8882611bcd565b8452506020928301929190910190600101611a6a565b600082601f830112611aa457600080fd5b8151611ab26119798261257c565b91508181835260208401935060208101905083856020840282011115611ad757600080fd5b60005b838110156119bc5781611aed8882611bd8565b8452506020928301929190910190600101611ada565b600082601f830112611b1457600080fd5b8135611b226119798261257c565b91508181835260208401935060208101905083856020840282011115611b4757600080fd5b60005b838110156119bc5781611b5d8882611bcd565b8452506020928301929190910190600101611b4a565b80516117478161267a565b600082601f830112611b8f57600080fd5b8135611b9d6119798261259c565b91508082526020830160208301858383011115611bb957600080fd5b611bc483828461261d565b50505092915050565b803561174781612683565b805161174781612683565b80516117478161268c565b600060208284031215611c0057600080fd5b6000611c0c848461194f565b949350505050565b60008060408385031215611c2757600080fd5b6000611c33858561194f565b9250506020611c4485828601611bd8565b9150509250929050565b600080600060608486031215611c6357600080fd5b6000611c6f868661194f565b9350506020611c8086828701611bd8565b9250506040611c9186828701611bd8565b9150509250925092565b600080600060608486031215611cb057600080fd5b6000611cbc8686611944565b93505060208401356001600160401b03811115611cd857600080fd5b611ce486828701611b03565b92505060408401356001600160401b03811115611d0057600080fd5b611c9186828701611b7e565b60008060408385031215611d1f57600080fd5b82356001600160401b03811115611d3557600080fd5b611d41858286016119c6565b92505060208301356001600160401b03811115611d5d57600080fd5b611c448582860161195a565b60008060408385031215611d7c57600080fd5b82356001600160401b03811115611d9257600080fd5b611d9e858286016119c6565b9250506020611c4485828601611bcd565b600060208284031215611dc157600080fd5b81516001600160401b03811115611dd757600080fd5b611c0c84828501611a93565b600060208284031215611df557600080fd5b6000611c0c8484611b73565b600060208284031215611e1357600080fd5b6000611c0c8484611bcd565b600060208284031215611e3157600080fd5b6000611c0c8484611be3565b60006117448383612022565b600061174483836120be565b600061174483836122c5565b6000611e6d838361236e565b505060200190565b6000611e6d8383612377565b611e8a8161260c565b82525050565b611e8a816125db565b6000611ea4826125c9565b611eae81856125cd565b935083602082028501611ec0856125c3565b8060005b85811015611efa5784840389528151611edd8582611e3d565b9450611ee8836125c3565b60209a909a0199925050600101611ec4565b5091979650505050505050565b6000611f12826125c9565b611f1c81856125cd565b935083602082028501611f2e856125c3565b8060005b85811015611efa5784840389528151611f4b8582611e49565b9450611f56836125c3565b60209a909a0199925050600101611f32565b6000611f73826125c9565b611f7d81856125cd565b935083602082028501611f8f856125c3565b8060005b85811015611efa5784840389528151611fac8582611e55565b9450611fb7836125c3565b60209a909a0199925050600101611f93565b6000611fd4826125c9565b611fde81856125cd565b9350611fe9836125c3565b8060005b838110156120175781516120018882611e61565b975061200c836125c3565b925050600101611fed565b509495945050505050565b600061202d826125c9565b61203781856125cd565b9350612042836125c3565b8060005b8381101561201757815161205a8882611e61565b9750612065836125c3565b925050600101612046565b600061207b826125c9565b61208581856125cd565b9350612090836125c3565b8060005b838110156120175781516120a88882611e75565b97506120b3836125c3565b925050600101612094565b60006120c9826125c9565b6120d381856125cd565b93506120e3818560208601612629565b6120ec81612659565b9093019392505050565b6000612101826125c9565b61210b81856125d6565b935061211b818560208601612629565b9290920192915050565b6000612132601b836125cd565b7f536166654d6174683a206164646974696f6e206f766572666c6f770000000000815260200192915050565b600061216b603a836125cd565b7f416464726573733a20756e61626c6520746f2073656e642076616c75652c207281527f6563697069656e74206d61792068617665207265766572746564000000000000602082015260400192915050565b60006121ca601d836125cd565b7f416464726573733a20696e73756666696369656e742062616c616e6365000000815260200192915050565b60006122036024836125d6565b7f65786563757465456c656d656e74732862797465735b5d2c75696e743235365b8152635d5b5d2960e01b602082015260240192915050565b60006122496021836125cd565b7f536166654d6174683a206d756c7469706c69636174696f6e206f766572666c6f8152607760f81b602082015260400192915050565b600061228c6018836125d6565b7f6f7065726174652875696e743235365b5d2c6279746573290000000000000000815260180192915050565b60006117476000836125d6565b805160e0808452600091908401906122dd82826120be565b91505060208301516122f26020860182611e90565b506040830151848203604086015261230a82826120be565b915050606083015184820360608601526123248282612070565b9150506080830151848203608086015261233e8282612070565b91505060a083015161235360a0860182612380565b5060c083015161236660c0860182612380565b509392505050565b611e8a816125f7565b611e8a816125fa565b611e8a81612606565b60006118c582846120f6565b6000611747826121f6565b60006117478261227f565b6000611747826122b8565b606081016123c48286611e81565b6123d16020830185611e81565b611c0c604083018461236e565b604081016123ec8285611e81565b6118c5602083018461236e565b604081016123ec8285611e90565b604080825281016124188185611f07565b90508181036020830152611c0c8184611e99565b602080825281016117448184611f68565b602080825281016117448184611fc9565b6040808252810161245f8185611fc9565b90508181036020830152611c0c81846120be565b6020808252810161174481846120be565b60a0808252810161249581886120be565b90506124a46020830187611e90565b81810360408301526124b681866120be565b90506124c56060830185612380565b6124d26080830184612380565b9695505050505050565b6020808252810161174781612125565b602080825281016117478161215e565b60208082528101611747816121bd565b602080825281016117478161223c565b6080810161252a828761236e565b612537602083018661236e565b6125446040830185611e81565b81810360608301526124d281846120be565b6040518181016001600160401b038111828210171561257457600080fd5b604052919050565b60006001600160401b0382111561259257600080fd5b5060209081020190565b60006001600160401b038211156125b257600080fd5b506020601f91909101601f19160190565b60200190565b5190565b90815260200190565b919050565b6000611747826125eb565b151590565b6001600160a01b031690565b90565b6001600160401b031690565b60ff1690565b6000611747826000611747826125db565b82818337506000910152565b60005b8381101561264457818101518382015260200161262c565b83811115612653576000848401525b50505050565b601f01601f191690565b61266c816125db565b811461267757600080fd5b50565b61266c816125e6565b61266c816125f7565b61266c8161260656fea365627a7a7231582010d2afa8e89491c1820b8775d0b365443e96f4846b94e586fdb5de9ecda10d546c6578706572696d656e74616cf564736f6c63430005110040",
  "compiler": {
    "name": "solc",
    "version": "0.5.17+commit.d19bba13.Emscripten.clang",
    "optimizer": {
      "enabled": true,
      "runs": 200
    },
    "evmVersion": "petersburg"
  }
}