{
  "fileName": "Graph.sol",
  "contractName": "Graph",
  "source": "pragma solidity ^0.5.0;\npragma experimental ABIEncoderV2;\n\nimport \"@openzeppelin/contracts-ethereum-package/contracts/math/SafeMath.sol\";\nimport \"@openzeppelin/contracts-ethereum-package/contracts/utils/Address.sol\";\nimport \"@openzeppelin/contracts-ethereum-package/contracts/token/ERC20/IERC20.sol\";\nimport \"./GraphBase.sol\";\nimport \"./operations/uniswapv2/IPair.sol\";\n\n\ncontract Graph is GraphBase {\n    string public constant VERSION = \"1.0.0\";\n\n    using SafeMath for uint256;\n\n    constructor(GraphBase.Element[] memory _elements) public {\n        for (uint256 i; i < _elements.length; i++) {\n            elements.length++;\n            elements[i] = Element({\n                hash: _elements[i].hash,\n                addr: _elements[i].addr,\n                params: _elements[i].params,\n                outputsIndexes: _elements[i].outputsIndexes,\n                outputsInputIndexes: _elements[i].outputsInputIndexes,\n                x: _elements[i].x,\n                y: _elements[i].y\n            });\n        }\n    }\n\n    /**\n     * Fallback function accepts Ether transactions.\n     */\n    function() external payable {}\n\n    /**\n     * Execute .\n     * @param _paramsList params for each element to execute\n     * @param _maxElementInputs max inputs an element has\n     */\n    function execute(bytes[] memory _paramsList, uint256 _maxElementInputs)\n        public\n        payable\n    {\n        uint256[][] memory inputs = new uint256[][](elements.length);\n        bool hasFlashSwap = false;\n        uint256 flashSwapInIndex;\n        for (uint256 i; i < elements.length; i++) {\n            if (elements[i].addr == address(4)) {\n                //FlashSwap (only one allowed)\n                hasFlashSwap = true;\n                flashSwapInIndex = i;\n            }\n            inputs[i] = new uint256[](_maxElementInputs);\n        }\n        if (hasFlashSwap) {\n            //Execute element with flash swap\n            bytes memory data = abi.encode(_paramsList, inputs);\n            (address pair, uint256 index, uint256 amount) = abi.decode(\n                _paramsList[flashSwapInIndex],\n                (address, uint256, uint256)\n            );\n            IPair(pair).swap(\n                index == 0 ? amount : 0,\n                index == 0 ? 0 : amount,\n                address(this),\n                data\n            );\n        } else {\n            //Execute elements\n            executeElements(_paramsList, inputs);\n        }\n    }\n\n    /**\n     * Uniswap v2 flash swap callback .\n     */\n    function uniswapV2Call(\n        address sender,\n        uint256 amount0,\n        uint256 amount1,\n        bytes calldata data\n    ) external {\n        (bytes[] memory paramsList, uint256[][] memory inputs) = abi.decode(\n            data,\n            (bytes[], uint256[][])\n        );\n        executeElements(paramsList, inputs);\n    }\n\n    /**\n     * Execute .\n     * @param _paramsList params for each element to execute\n     * @param _inputs inputs for each element\n     */\n    function executeElements(\n        bytes[] memory _paramsList,\n        uint256[][] memory _inputs\n    ) public {\n        for (uint8 i = 0; i < _paramsList.length; i++) {\n            GraphBase.Element memory element = elements[i];\n            bytes memory params = _paramsList[i];\n            if (element.addr == address(1)) {\n                //InputElement\n                (address asset, uint256 amount) = abi.decode(\n                    params,\n                    (address, uint256)\n                );\n                if (asset != address(0) && amount > 0) {\n                    //No transferFrom for ethers\n                    IERC20(asset).transferFrom(\n                        msg.sender,\n                        address(this),\n                        amount\n                    );\n                }\n                //Input element has one output\n                addAmountToInput(\n                    _inputs,\n                    element.outputsIndexes[0],\n                    element.outputsInputIndexes[0],\n                    amount\n                );\n            } else if (element.addr == address(2)) {\n                //SplitterElement\n                uint8 percentage = abi.decode(params, (uint8));\n                uint256 firstShare = _inputs[i][0].mul(percentage).div(100);\n                //Spliiter element has one output\n                addAmountToInput(\n                    _inputs,\n                    element.outputsIndexes[0],\n                    element.outputsInputIndexes[0],\n                    firstShare\n                );\n                addAmountToInput(\n                    _inputs,\n                    element.outputsIndexes[1],\n                    element.outputsInputIndexes[1],\n                    _inputs[i][0].sub(firstShare)\n                );\n            } else if (element.addr == address(3)) {\n                //AddressElement\n                address payable addr = abi.decode(params, (address));\n                if (_inputs[i][0] > 0) {\n                    //ETH\n                    Address.sendValue(addr, _inputs[i][0]);\n                } else if (_inputs[i][1] > 0) {\n                    //DAI\n                    IERC20(0x6B175474E89094C44Da98b954EedeAC495271d0F).transfer(\n                        addr,\n                        _inputs[i][1]\n                    );\n                } else if (_inputs[i][2] > 0) {\n                    // WETH\n                    IERC20(0xC02aaA39b223FE8D0A0e5C4F27eAD9083C756Cc2).transfer(\n                        addr,\n                        _inputs[i][2]\n                    );\n                } else if (_inputs[i][3] > 0) {\n                    //USDC\n                    IERC20(0xA0b86991c6218b36c1d19D4a2e9Eb0cE3606eB48).transfer(\n                        addr,\n                        _inputs[i][3]\n                    );\n                } else if (_inputs[i][4] > 0) {\n                    //USDT\n                    IERC20(0xdAC17F958D2ee523a2206206994597C13D831ec7).transfer(\n                        addr,\n                        _inputs[i][4]\n                    );\n                } else if (_inputs[i][5] > 0) {\n                    //SUSD\n                    IERC20(0x57Ab1ec28D129707052df4dF418D58a2D46d5f51).transfer(\n                        addr,\n                        _inputs[i][5]\n                    );\n                } else if (_inputs[i][6] > 0) {\n                    //WBTC\n                    IERC20(0x2260FAC5E5542a773Aa44fBCfeDf7C193bc2C599).transfer(\n                        addr,\n                        _inputs[i][6]\n                    );\n                } else if (_inputs[i][7] > 0) {\n                    //REP\n                    IERC20(0x1985365e9f78359a9B6AD760e32412f4a445E862).transfer(\n                        addr,\n                        _inputs[i][7]\n                    );\n                } else if (_inputs[i][8] > 0) {\n                    //CDAI\n                    IERC20(0x5d3a536E4D6DbD6114cc1Ead35777bAB948E3643).transfer(\n                        addr,\n                        _inputs[i][8]\n                    );\n                } else if (_inputs[i][9] > 0) {\n                    //CUSDC\n                    IERC20(0x39AA39c021dfbaE8faC545936693aC917d5E7563).transfer(\n                        addr,\n                        _inputs[i][9]\n                    );\n                } else if (_inputs[i][10] > 0) {\n                    //CWBTC\n                    IERC20(0xC11b1268C1A384e55C48c2391d8d480264A3A7F4).transfer(\n                        addr,\n                        _inputs[i][10]\n                    );\n                } else if (_inputs[i][11] > 0) {\n                    //CETH\n                    IERC20(0x4Ddc2D193948926D02f9B1fE9e1daa0718270ED5).transfer(\n                        addr,\n                        _inputs[i][11]\n                    );\n                }\n            } else if (element.addr == address(4)) {\n                //Nothing, flash swap in\n                (, , uint256 amount) = abi.decode(\n                    params,\n                    (address, uint256, uint256)\n                );\n                addAmountToInput(\n                    _inputs,\n                    element.outputsIndexes[0],\n                    element.outputsInputIndexes[0],\n                    amount\n                );\n            } else if (element.addr == address(5)) {\n                (address pair, address asset) = abi.decode(\n                    params,\n                    (address, address)\n                );\n                IERC20(asset).transfer(pair, _inputs[i][0]);\n            } else {\n                uint256[] memory outAmounts = executeOperation(\n                    element.addr,\n                    _inputs[i],\n                    params\n                );\n                //Redirect\n                for (uint8 j = 0; j < element.outputsIndexes.length; j++) {\n                    addAmountToInput(\n                        _inputs,\n                        element.outputsIndexes[j],\n                        element.outputsInputIndexes[j],\n                        outAmounts[j]\n                    );\n                }\n            }\n        }\n        //TODO: send all remains to sender\n    }\n\n    /**\n     * Execute one operation.\n     * @param _operation operaetion to execute\n     * @param _inAmounts params is the amount to swap\n     * @param _params params contains the min amount to buy and the time deadline\n     */\n    function executeOperation(\n        address _operation,\n        uint256[] memory _inAmounts,\n        bytes memory _params\n    ) public returns (uint256[] memory outAmounts) {\n        bytes memory data = abi.encodeWithSelector(\n            bytes4(keccak256(\"operate(uint256[],bytes)\")),\n            _inAmounts,\n            _params\n        );\n        (bool success, bytes memory returnedData) = _operation.delegatecall(\n            data\n        );\n        require(success, string(returnedData));\n        outAmounts = abi.decode(returnedData, (uint256[]));\n    }\n\n    function addAmountToInput(\n        uint256[][] memory inputs,\n        uint64 index1,\n        uint64 index2,\n        uint256 amount\n    ) private {\n        inputs[index1][index2] = inputs[index1][index2] == 0\n            ? amount\n            : (inputs[index1][index2]).add(amount);\n    }\n\n    function getElements() public view returns (GraphBase.Element[] memory) {\n        return elements;\n    }\n}\n",
  "sourcePath": "contracts/Graph.sol",
  "abi": [
    {
      "inputs": [
        {
          "components": [
            {
              "internalType": "string",
              "name": "hash",
              "type": "string"
            },
            {
              "internalType": "address",
              "name": "addr",
              "type": "address"
            },
            {
              "internalType": "bytes",
              "name": "params",
              "type": "bytes"
            },
            {
              "internalType": "uint64[]",
              "name": "outputsIndexes",
              "type": "uint64[]"
            },
            {
              "internalType": "uint64[]",
              "name": "outputsInputIndexes",
              "type": "uint64[]"
            },
            {
              "internalType": "uint8",
              "name": "x",
              "type": "uint8"
            },
            {
              "internalType": "uint8",
              "name": "y",
              "type": "uint8"
            }
          ],
          "internalType": "struct GraphBase.Element[]",
          "name": "_elements",
          "type": "tuple[]"
        }
      ],
      "payable": false,
      "stateMutability": "nonpayable",
      "type": "constructor"
    },
    {
      "payable": true,
      "stateMutability": "payable",
      "type": "fallback"
    },
    {
      "constant": true,
      "inputs": [],
      "name": "VERSION",
      "outputs": [
        {
          "internalType": "string",
          "name": "",
          "type": "string"
        }
      ],
      "payable": false,
      "stateMutability": "view",
      "type": "function"
    },
    {
      "constant": true,
      "inputs": [
        {
          "internalType": "uint256",
          "name": "",
          "type": "uint256"
        }
      ],
      "name": "elements",
      "outputs": [
        {
          "internalType": "string",
          "name": "hash",
          "type": "string"
        },
        {
          "internalType": "address",
          "name": "addr",
          "type": "address"
        },
        {
          "internalType": "bytes",
          "name": "params",
          "type": "bytes"
        },
        {
          "internalType": "uint8",
          "name": "x",
          "type": "uint8"
        },
        {
          "internalType": "uint8",
          "name": "y",
          "type": "uint8"
        }
      ],
      "payable": false,
      "stateMutability": "view",
      "type": "function"
    },
    {
      "constant": false,
      "inputs": [
        {
          "internalType": "bytes[]",
          "name": "_paramsList",
          "type": "bytes[]"
        },
        {
          "internalType": "uint256",
          "name": "_maxElementInputs",
          "type": "uint256"
        }
      ],
      "name": "execute",
      "outputs": [],
      "payable": true,
      "stateMutability": "payable",
      "type": "function"
    },
    {
      "constant": false,
      "inputs": [
        {
          "internalType": "bytes[]",
          "name": "_paramsList",
          "type": "bytes[]"
        },
        {
          "internalType": "uint256[][]",
          "name": "_inputs",
          "type": "uint256[][]"
        }
      ],
      "name": "executeElements",
      "outputs": [],
      "payable": false,
      "stateMutability": "nonpayable",
      "type": "function"
    },
    {
      "constant": false,
      "inputs": [
        {
          "internalType": "address",
          "name": "_operation",
          "type": "address"
        },
        {
          "internalType": "uint256[]",
          "name": "_inAmounts",
          "type": "uint256[]"
        },
        {
          "internalType": "bytes",
          "name": "_params",
          "type": "bytes"
        }
      ],
      "name": "executeOperation",
      "outputs": [
        {
          "internalType": "uint256[]",
          "name": "outAmounts",
          "type": "uint256[]"
        }
      ],
      "payable": false,
      "stateMutability": "nonpayable",
      "type": "function"
    },
    {
      "constant": true,
      "inputs": [],
      "name": "getElements",
      "outputs": [
        {
          "components": [
            {
              "internalType": "string",
              "name": "hash",
              "type": "string"
            },
            {
              "internalType": "address",
              "name": "addr",
              "type": "address"
            },
            {
              "internalType": "bytes",
              "name": "params",
              "type": "bytes"
            },
            {
              "internalType": "uint64[]",
              "name": "outputsIndexes",
              "type": "uint64[]"
            },
            {
              "internalType": "uint64[]",
              "name": "outputsInputIndexes",
              "type": "uint64[]"
            },
            {
              "internalType": "uint8",
              "name": "x",
              "type": "uint8"
            },
            {
              "internalType": "uint8",
              "name": "y",
              "type": "uint8"
            }
          ],
          "internalType": "struct GraphBase.Element[]",
          "name": "",
          "type": "tuple[]"
        }
      ],
      "payable": false,
      "stateMutability": "view",
      "type": "function"
    },
    {
      "constant": false,
      "inputs": [
        {
          "internalType": "address",
          "name": "sender",
          "type": "address"
        },
        {
          "internalType": "uint256",
          "name": "amount0",
          "type": "uint256"
        },
        {
          "internalType": "uint256",
          "name": "amount1",
          "type": "uint256"
        },
        {
          "internalType": "bytes",
          "name": "data",
          "type": "bytes"
        }
      ],
      "name": "uniswapV2Call",
      "outputs": [],
      "payable": false,
      "stateMutability": "nonpayable",
      "type": "function"
    }
  ],
  "bytecode": "0x60806040523480156200001157600080fd5b50604051620031953803806200319583398101604081905262000034916200076d565b60005b81518110156200023457600180549062000054908281016200023c565b506040518060e001604052808383815181106200006d57fe5b60200260200101516000015181526020018383815181106200008b57fe5b6020026020010151602001516001600160a01b03168152602001838381518110620000b257fe5b6020026020010151604001518152602001838381518110620000d057fe5b6020026020010151606001518152602001838381518110620000ee57fe5b60200260200101516080015181526020018383815181106200010c57fe5b602002602001015160a0015160ff1681526020018383815181106200012d57fe5b602002602001015160c0015160ff16815250600182815481106200014d57fe5b906000526020600020906006020160008201518160000190805190602001906200017992919062000270565b506020828101516001830180546001600160a01b0319166001600160a01b0390921691909117905560408301518051620001ba926002850192019062000270565b5060608201518051620001d8916003840191602090910190620002f5565b5060808201518051620001f6916004840191602090910190620002f5565b5060a08201516005909101805460c09093015160ff9081166101000261ff00199190931660ff19909416939093179290921617905560010162000037565b5050620008a1565b8154818355818111156200026b576006028160060283600052602060002091820191016200026b9190620003b0565b505050565b828054600181600116156101000203166002900490600052602060002090601f016020900481019282601f10620002b357805160ff1916838001178555620002e3565b82800160010185558215620002e3579182015b82811115620002e3578251825591602001919060010190620002c6565b50620002f19291506200042a565b5090565b82805482825590600052602060002090600301600490048101928215620003a25791602002820160005b838211156200036b57835183826101000a8154816001600160401b0302191690836001600160401b0316021790555092602001926008016020816007010492830192600103026200031f565b8015620003a05782816101000a8154906001600160401b0302191690556008016020816007010492830192600103026200036b565b505b50620002f192915062000447565b6200042791905b80821115620002f1576000620003ce82826200046e565b6001820180546001600160a01b0319169055620003f06002830160006200046e565b62000400600383016000620004b9565b62000410600483016000620004b9565b5060058101805461ffff19169055600601620003b7565b90565b6200042791905b80821115620002f1576000815560010162000431565b6200042791905b80821115620002f15780546001600160401b03191681556001016200044e565b50805460018160011615610100020316600290046000825580601f10620004965750620004b6565b601f016020900490600052602060002090810190620004b691906200042a565b50565b508054600082556003016004900490600052602060002090810190620004b691906200042a565b8051620004ed8162000874565b92915050565b600082601f8301126200050557600080fd5b81516200051c6200051682620007d4565b620007ad565b81815260209384019390925082018360005b838110156200055e578151860162000547888262000637565b84525060209283019291909101906001016200052e565b5050505092915050565b600082601f8301126200057a57600080fd5b81516200058b6200051682620007d4565b91508181835260208401935060208101905083856020840282011115620005b157600080fd5b60005b838110156200055e5781620005ca888262000753565b8452506020928301929190910190600101620005b4565b600082601f830112620005f357600080fd5b8151620006046200051682620007f5565b915080825260208301602083018583830111156200062157600080fd5b6200062e83828462000841565b50505092915050565b600060e082840312156200064a57600080fd5b6200065660e0620007ad565b82519091506001600160401b038111156200067057600080fd5b6200067e84828501620005e1565b82525060206200069184848301620004e0565b60208301525060408201516001600160401b03811115620006b157600080fd5b620006bf84828501620005e1565b60408301525060608201516001600160401b03811115620006df57600080fd5b620006ed8482850162000568565b60608301525060808201516001600160401b038111156200070d57600080fd5b6200071b8482850162000568565b60808301525060a0620007318482850162000760565b60a08301525060c0620007478482850162000760565b60c08301525092915050565b8051620004ed816200088b565b8051620004ed8162000896565b6000602082840312156200078057600080fd5b81516001600160401b038111156200079757600080fd5b620007a584828501620004f3565b949350505050565b6040518181016001600160401b0381118282101715620007cc57600080fd5b604052919050565b60006001600160401b03821115620007eb57600080fd5b5060209081020190565b60006001600160401b038211156200080c57600080fd5b506020601f91909101601f19160190565b60006001600160a01b038216620004ed565b6001600160401b031690565b60ff1690565b60005b838110156200085e57818101518382015260200162000844565b838111156200086e576000848401525b50505050565b6200087f816200081d565b8114620004b657600080fd5b6200087f816200082f565b6200087f816200083b565b6128e480620008b16000396000f3fe6080604052600436106100705760003560e01c8063b1a18cc71161004e578063b1a18cc7146100c5578063d0ec27cf146100f0578063e0d64b371461011d578063ffa1ad741461014e57610070565b806310d1e85c146100725780633ac7f610146100925780636f38d20d146100a5575b005b34801561007e57600080fd5b5061007061008d366004611e8f565b610170565b6100706100a0366004611f69565b610196565b3480156100b157600080fd5b506100706100c0366004611f0c565b610368565b3480156100d157600080fd5b506100da611126565b6040516100e79190612638565b60405180910390f35b3480156100fc57600080fd5b5061011061010b366004611e1e565b6113f6565b6040516100e79190612649565b34801561012957600080fd5b5061013d61013836600461205e565b6114ff565b6040516100e7959493929190612690565b34801561015a57600080fd5b50610163611665565b6040516100e7919061267f565b60608061017f83850185611faf565b9150915061018d8282610368565b50505050505050565b60015460408051828152602080840282010190915260609180156101ce57816020015b60608152602001906001900390816101b95790505b509050600080805b60015481101561026d5760046001600160a01b0316600182815481106101f857fe5b60009182526020909120600160069092020101546001600160a01b0316141561022357600192508091505b8460405190808252806020026020018201604052801561024d578160200160208202803883390190505b5084828151811061025a57fe5b60209081029190910101526001016101d6565b5081156103575760608584604051602001610289929190612613565b604051602081830303815290604052905060008060008885815181106102ab57fe5b60200260200101518060200190516102c69190810190611dd1565b925092509250826001600160a01b031663022c0d9f836000146102ea5760006102ec565b825b84156102f857836102fb565b60005b30886040518563ffffffff1660e01b815260040161031c9493929190612728565b600060405180830381600087803b15801561033657600080fd5b505af115801561034a573d6000803e3d6000fd5b5050505050505050610361565b6103618584610368565b5050505050565b60005b82518160ff1610156111215761037f611949565b60018260ff168154811061038f57fe5b6000918252602091829020604080516006939093029091018054600260018216156101009081026000190190921604601f81018690049095028401810190925260e08301848152929390928492909184918401828280156104315780601f1061040657610100808354040283529160200191610431565b820191906000526020600020905b81548152906001019060200180831161041457829003601f168201915b50505091835250506001828101546001600160a01b0316602080840191909152600280850180546040805161010096831615969096026000190190911692909204601f810184900484028501840183528085529190940193918301828280156104db5780601f106104b0576101008083540402835291602001916104db565b820191906000526020600020905b8154815290600101906020018083116104be57829003601f168201915b505050505081526020016003820180548060200260200160405190810160405280929190818152602001828054801561056557602002820191906000526020600020906000905b82829054906101000a90046001600160401b03166001600160401b0316815260200190600801906020826007010492830192600103820291508084116105225790505b50505050508152602001600482018054806020026020016040519081016040528092919081815260200182805480156105ef57602002820191906000526020600020906000905b82829054906101000a90046001600160401b03166001600160401b0316815260200190600801906020826007010492830192600103820291508084116105ac5790505b50505091835250506005919091015460ff8082166020840152610100909104811660409092019190915285519192506060918691851690811061062e57fe5b6020026020010151905060016001600160a01b031682602001516001600160a01b03161415610757576000808280602001905161066e9190810190611da1565b90925090506001600160a01b0382161580159061068b5750600081115b15610714576040516323b872dd60e01b81526001600160a01b038316906323b872dd906106c0903390309086906004016125c2565b602060405180830381600087803b1580156106da57600080fd5b505af11580156106ee573d6000803e3d6000fd5b505050506040513d601f19601f820116820180604052506107129190810190612040565b505b61075086856060015160008151811061072957fe5b6020026020010151866080015160008151811061074257fe5b602002602001015184611686565b5050611117565b60208201516001600160a01b03166002141561086757600081806020019051610783919081019061207c565b905060006107d860646107cc8460ff16898960ff16815181106107a257fe5b60200260200101516000815181106107b657fe5b602002602001015161175b90919063ffffffff16565b9063ffffffff61179e16565b90506107ef86856060015160008151811061072957fe5b61075086856060015160018151811061080457fe5b6020026020010151866080015160018151811061081d57fe5b6020026020010151610862858b8b60ff168151811061083857fe5b602002602001015160008151811061084c57fe5b60200260200101516117e090919063ffffffff16565b611686565b60208201516001600160a01b031660031415610f39576000818060200190516108939190810190611d41565b90506000858560ff16815181106108a657fe5b60200260200101516000815181106108ba57fe5b60200260200101511115610901576108fc81868660ff16815181106108db57fe5b60200260200101516000815181106108ef57fe5b6020026020010151611822565b610f33565b6000858560ff168151811061091257fe5b602002602001015160018151811061092657fe5b602002602001015111156109f857736b175474e89094c44da98b954eedeac495271d0f6001600160a01b031663a9059cbb82878760ff168151811061096757fe5b602002602001015160018151811061097b57fe5b60200260200101516040518363ffffffff1660e01b81526004016109a09291906125ea565b602060405180830381600087803b1580156109ba57600080fd5b505af11580156109ce573d6000803e3d6000fd5b505050506040513d601f19601f820116820180604052506109f29190810190612040565b50610f33565b6000858560ff1681518110610a0957fe5b6020026020010151600281518110610a1d57fe5b60200260200101511115610a725773c02aaa39b223fe8d0a0e5c4f27ead9083c756cc26001600160a01b031663a9059cbb82878760ff1681518110610a5e57fe5b602002602001015160028151811061097b57fe5b6000858560ff1681518110610a8357fe5b6020026020010151600381518110610a9757fe5b60200260200101511115610aec5773a0b86991c6218b36c1d19d4a2e9eb0ce3606eb486001600160a01b031663a9059cbb82878760ff1681518110610ad857fe5b602002602001015160038151811061097b57fe5b6000858560ff1681518110610afd57fe5b6020026020010151600481518110610b1157fe5b60200260200101511115610b665773dac17f958d2ee523a2206206994597c13d831ec76001600160a01b031663a9059cbb82878760ff1681518110610b5257fe5b602002602001015160048151811061097b57fe5b6000858560ff1681518110610b7757fe5b6020026020010151600581518110610b8b57fe5b60200260200101511115610be0577357ab1ec28d129707052df4df418d58a2d46d5f516001600160a01b031663a9059cbb82878760ff1681518110610bcc57fe5b602002602001015160058151811061097b57fe5b6000858560ff1681518110610bf157fe5b6020026020010151600681518110610c0557fe5b60200260200101511115610c5a57732260fac5e5542a773aa44fbcfedf7c193bc2c5996001600160a01b031663a9059cbb82878760ff1681518110610c4657fe5b602002602001015160068151811061097b57fe5b6000858560ff1681518110610c6b57fe5b6020026020010151600781518110610c7f57fe5b60200260200101511115610cd457731985365e9f78359a9b6ad760e32412f4a445e8626001600160a01b031663a9059cbb82878760ff1681518110610cc057fe5b602002602001015160078151811061097b57fe5b6000858560ff1681518110610ce557fe5b6020026020010151600881518110610cf957fe5b60200260200101511115610d4e57735d3a536e4d6dbd6114cc1ead35777bab948e36436001600160a01b031663a9059cbb82878760ff1681518110610d3a57fe5b602002602001015160088151811061097b57fe5b6000858560ff1681518110610d5f57fe5b6020026020010151600981518110610d7357fe5b60200260200101511115610dc8577339aa39c021dfbae8fac545936693ac917d5e75636001600160a01b031663a9059cbb82878760ff1681518110610db457fe5b602002602001015160098151811061097b57fe5b6000858560ff1681518110610dd957fe5b6020026020010151600a81518110610ded57fe5b60200260200101511115610e425773c11b1268c1a384e55c48c2391d8d480264a3a7f46001600160a01b031663a9059cbb82878760ff1681518110610e2e57fe5b6020026020010151600a8151811061097b57fe5b6000858560ff1681518110610e5357fe5b6020026020010151600b81518110610e6757fe5b60200260200101511115610f3357734ddc2d193948926d02f9b1fe9e1daa0718270ed56001600160a01b031663a9059cbb82878760ff1681518110610ea857fe5b6020026020010151600b81518110610ebc57fe5b60200260200101516040518363ffffffff1660e01b8152600401610ee19291906125ea565b602060405180830381600087803b158015610efb57600080fd5b505af1158015610f0f573d6000803e3d6000fd5b505050506040513d601f19601f820116820180604052506107509190810190612040565b50611117565b60208201516001600160a01b031660041415610f9757600081806020019051610f659190810190611dd1565b92505050610f33858460600151600081518110610f7e57fe5b6020026020010151856080015160008151811061074257fe5b60208201516001600160a01b03166005141561107a5760008082806020019051610fc49190810190611d67565b91509150806001600160a01b031663a9059cbb83888860ff1681518110610fe757fe5b6020026020010151600081518110610ffb57fe5b60200260200101516040518363ffffffff1660e01b8152600401611020929190612605565b602060405180830381600087803b15801561103a57600080fd5b505af115801561104e573d6000803e3d6000fd5b505050506040513d601f19601f820116820180604052506110729190810190612040565b505050611117565b60606110a18360200151868660ff168151811061109357fe5b6020026020010151846113f6565b905060005b8360600151518160ff1610156111145761110c8685606001518360ff16815181106110cd57fe5b602002602001015186608001518460ff16815181106110e857fe5b6020026020010151858560ff16815181106110ff57fe5b6020026020010151611686565b6001016110a6565b50505b505060010161036b565b505050565b60606001805480602002602001604051908101604052809291908181526020016000905b828210156113ed57600084815260209081902060408051600686029092018054600260018216156101009081026000190190921604601f81018690049095028401810190925260e08301848152929390928492909184918401828280156111f25780601f106111c7576101008083540402835291602001916111f2565b820191906000526020600020905b8154815290600101906020018083116111d557829003601f168201915b50505091835250506001828101546001600160a01b0316602080840191909152600280850180546040805161010096831615969096026000190190911692909204601f8101849004840285018401835280855291909401939183018282801561129c5780601f106112715761010080835404028352916020019161129c565b820191906000526020600020905b81548152906001019060200180831161127f57829003601f168201915b505050505081526020016003820180548060200260200160405190810160405280929190818152602001828054801561132657602002820191906000526020600020906000905b82829054906101000a90046001600160401b03166001600160401b0316815260200190600801906020826007010492830192600103820291508084116112e35790505b50505050508152602001600482018054806020026020016040519081016040528092919081815260200182805480156113b057602002820191906000526020600020906000905b82829054906101000a90046001600160401b03166001600160401b03168152602001906008019060208260070104928301926001038202915080841161136d5790505b50505091835250506005919091015460ff80821660208085019190915261010090920416604090920191909152908252600192909201910161114a565b50505050905090565b606080604051611405906125ac565b6040518091039020848460405160240161142092919061265a565b604051602081830303815290604052906001600160e01b0319166020820180516001600160e01b038381831617835250505050905060006060866001600160a01b03168360405161147191906125a0565b600060405180830381855af49150503d80600081146114ac576040519150601f19603f3d011682016040523d82523d6000602084013e6114b1565b606091505b50915091508181906114df5760405162461bcd60e51b81526004016114d6919061267f565b60405180910390fd5b50808060200190516114f4919081019061200c565b979650505050505050565b6001818154811061150c57fe5b60009182526020918290206006919091020180546040805160026001841615610100026000190190931692909204601f8101859004850283018501909152808252919350918391908301828280156115a55780601f1061157a576101008083540402835291602001916115a5565b820191906000526020600020905b81548152906001019060200180831161158857829003601f168201915b505050506001838101546002808601805460408051602061010097841615979097026000190190921693909304601f810186900486028201860190935282815295966001600160a01b039093169592945091928301828280156116495780601f1061161e57610100808354040283529160200191611649565b820191906000526020600020905b81548152906001019060200180831161162c57829003601f168201915b5050506005909301549192505060ff8082169161010090041685565b604051806040016040528060058152602001640312e302e360dc1b81525081565b83836001600160401b03168151811061169b57fe5b6020026020010151826001600160401b0316815181106116b757fe5b6020026020010151600014611716576117118185856001600160401b0316815181106116df57fe5b6020026020010151846001600160401b0316815181106116fb57fe5b60200260200101516118bf90919063ffffffff16565b611718565b805b84846001600160401b03168151811061172d57fe5b6020026020010151836001600160401b03168151811061174957fe5b60200260200101818152505050505050565b60008261176a57506000611798565b8282028284828161177757fe5b04146117955760405162461bcd60e51b81526004016114d690612718565b90505b92915050565b600061179583836040518060400160405280601a81526020017f536166654d6174683a206469766973696f6e206279207a65726f0000000000008152506118e4565b600061179583836040518060400160405280601e81526020017f536166654d6174683a207375627472616374696f6e206f766572666c6f77000081525061191d565b30318111156118435760405162461bcd60e51b81526004016114d690612708565b6000826001600160a01b03168260405161185c906125b7565b60006040518083038185875af1925050503d8060008114611899576040519150601f19603f3d011682016040523d82523d6000602084013e61189e565b606091505b50509050806111215760405162461bcd60e51b81526004016114d6906126f8565b6000828201838110156117955760405162461bcd60e51b81526004016114d6906126e8565b600081836119055760405162461bcd60e51b81526004016114d6919061267f565b50600083858161191157fe5b049150505b9392505050565b600081848411156119415760405162461bcd60e51b81526004016114d6919061267f565b505050900390565b6040518060e001604052806060815260200160006001600160a01b03168152602001606081526020016060815260200160608152602001600060ff168152602001600060ff1681525090565b80356117988161286f565b80516117988161286f565b600082601f8301126119bc57600080fd5b81356119cf6119ca82612788565b612762565b81815260209384019390925082018360005b83811015611a0d57813586016119f78882611b2e565b84525060209283019291909101906001016119e1565b5050505092915050565b600082601f830112611a2857600080fd5b8135611a366119ca82612788565b81815260209384019390925082018360005b83811015611a0d5781358601611a5e8882611b2e565b8452506020928301929190910190600101611a48565b600082601f830112611a8557600080fd5b8135611a936119ca82612788565b81815260209384019390925082018360005b83811015611a0d5781358601611abb8882611cd1565b8452506020928301929190910190600101611aa5565b600082601f830112611ae257600080fd5b8135611af06119ca82612788565b81815260209384019390925082018360005b83811015611a0d5781358601611b188882611cd1565b8452506020928301929190910190600101611b02565b600082601f830112611b3f57600080fd5b8135611b4d6119ca82612788565b91508181835260208401935060208101905083856020840282011115611b7257600080fd5b60005b83811015611a0d5781611b888882611d20565b8452506020928301929190910190600101611b75565b600082601f830112611baf57600080fd5b8151611bbd6119ca82612788565b91508181835260208401935060208101905083856020840282011115611be257600080fd5b60005b83811015611a0d5781611bf88882611d2b565b8452506020928301929190910190600101611be5565b600082601f830112611c1f57600080fd5b8135611c2d6119ca82612788565b91508181835260208401935060208101905083856020840282011115611c5257600080fd5b60005b83811015611a0d5781611c688882611d20565b8452506020928301929190910190600101611c55565b805161179881612886565b60008083601f840112611c9b57600080fd5b5081356001600160401b03811115611cb257600080fd5b602083019150836001820283011115611cca57600080fd5b9250929050565b600082601f830112611ce257600080fd5b8135611cf06119ca826127a8565b91508082526020830160208301858383011115611d0c57600080fd5b611d17838284612829565b50505092915050565b80356117988161288f565b80516117988161288f565b805161179881612898565b600060208284031215611d5357600080fd5b6000611d5f84846119a0565b949350505050565b60008060408385031215611d7a57600080fd5b6000611d8685856119a0565b9250506020611d97858286016119a0565b9150509250929050565b60008060408385031215611db457600080fd5b6000611dc085856119a0565b9250506020611d9785828601611d2b565b600080600060608486031215611de657600080fd5b6000611df286866119a0565b9350506020611e0386828701611d2b565b9250506040611e1486828701611d2b565b9150509250925092565b600080600060608486031215611e3357600080fd5b6000611e3f8686611995565b93505060208401356001600160401b03811115611e5b57600080fd5b611e6786828701611c0e565b92505060408401356001600160401b03811115611e8357600080fd5b611e1486828701611cd1565b600080600080600060808688031215611ea757600080fd5b6000611eb38888611995565b9550506020611ec488828901611d20565b9450506040611ed588828901611d20565b93505060608601356001600160401b03811115611ef157600080fd5b611efd88828901611c89565b92509250509295509295909350565b60008060408385031215611f1f57600080fd5b82356001600160401b03811115611f3557600080fd5b611f4185828601611ad1565b92505060208301356001600160401b03811115611f5d57600080fd5b611d9785828601611a17565b60008060408385031215611f7c57600080fd5b82356001600160401b03811115611f9257600080fd5b611f9e85828601611ad1565b9250506020611d9785828601611d20565b60008060408385031215611fc257600080fd5b82356001600160401b03811115611fd857600080fd5b611fe485828601611a74565b92505060208301356001600160401b0381111561200057600080fd5b611d97858286016119ab565b60006020828403121561201e57600080fd5b81516001600160401b0381111561203457600080fd5b611d5f84828501611b9e565b60006020828403121561205257600080fd5b6000611d5f8484611c7e565b60006020828403121561207057600080fd5b6000611d5f8484611d20565b60006020828403121561208e57600080fd5b6000611d5f8484611d36565b6000611795838361227f565b6000611795838361231b565b600061179583836124dc565b60006120ca8383612585565b505060200190565b60006120ca838361258e565b6120e781612818565b82525050565b6120e7816127e7565b6000612101826127d5565b61210b81856127d9565b93508360208202850161211d856127cf565b8060005b85811015612157578484038952815161213a858261209a565b9450612145836127cf565b60209a909a0199925050600101612121565b5091979650505050505050565b600061216f826127d5565b61217981856127d9565b93508360208202850161218b856127cf565b8060005b8581101561215757848403895281516121a885826120a6565b94506121b3836127cf565b60209a909a019992505060010161218f565b60006121d0826127d5565b6121da81856127d9565b9350836020820285016121ec856127cf565b8060005b85811015612157578484038952815161220985826120b2565b9450612214836127cf565b60209a909a01999250506001016121f0565b6000612231826127d5565b61223b81856127d9565b9350612246836127cf565b8060005b8381101561227457815161225e88826120be565b9750612269836127cf565b92505060010161224a565b509495945050505050565b600061228a826127d5565b61229481856127d9565b935061229f836127cf565b8060005b838110156122745781516122b788826120be565b97506122c2836127cf565b9250506001016122a3565b60006122d8826127d5565b6122e281856127d9565b93506122ed836127cf565b8060005b8381101561227457815161230588826120d2565b9750612310836127cf565b9250506001016122f1565b6000612326826127d5565b61233081856127d9565b9350612340818560208601612835565b61234981612865565b9093019392505050565b600061235e826127d5565b61236881856127e2565b9350612378818560208601612835565b9290920192915050565b600061238f601b836127d9565b7f536166654d6174683a206164646974696f6e206f766572666c6f770000000000815260200192915050565b60006123c8603a836127d9565b7f416464726573733a20756e61626c6520746f2073656e642076616c75652c207281527f6563697069656e74206d61792068617665207265766572746564000000000000602082015260400192915050565b6000612427601d836127d9565b7f416464726573733a20696e73756666696369656e742062616c616e6365000000815260200192915050565b60006124606021836127d9565b7f536166654d6174683a206d756c7469706c69636174696f6e206f766572666c6f8152607760f81b602082015260400192915050565b60006124a36018836127e2565b7f6f7065726174652875696e743235365b5d2c6279746573290000000000000000815260180192915050565b60006117986000836127e2565b805160e0808452600091908401906124f4828261231b565b915050602083015161250960208601826120ed565b5060408301518482036040860152612521828261231b565b9150506060830151848203606086015261253b82826122cd565b9150506080830151848203608086015261255582826122cd565b91505060a083015161256a60a0860182612597565b5060c083015161257d60c0860182612597565b509392505050565b6120e781612803565b6120e781612806565b6120e781612812565b60006119168284612353565b600061179882612496565b6000611798826124cf565b606081016125d082866120de565b6125dd60208301856120de565b611d5f6040830184612585565b604081016125f882856120de565b6119166020830184612585565b604081016125f882856120ed565b604080825281016126248185612164565b90508181036020830152611d5f81846120f6565b6020808252810161179581846121c5565b602080825281016117958184612226565b6040808252810161266b8185612226565b90508181036020830152611d5f818461231b565b60208082528101611795818461231b565b60a080825281016126a1818861231b565b90506126b060208301876120ed565b81810360408301526126c2818661231b565b90506126d16060830185612597565b6126de6080830184612597565b9695505050505050565b6020808252810161179881612382565b60208082528101611798816123bb565b602080825281016117988161241a565b6020808252810161179881612453565b608081016127368287612585565b6127436020830186612585565b61275060408301856120de565b81810360608301526126de818461231b565b6040518181016001600160401b038111828210171561278057600080fd5b604052919050565b60006001600160401b0382111561279e57600080fd5b5060209081020190565b60006001600160401b038211156127be57600080fd5b506020601f91909101601f19160190565b60200190565b5190565b90815260200190565b919050565b6000611798826127f7565b151590565b6001600160a01b031690565b90565b6001600160401b031690565b60ff1690565b6000611798826000611798826127e7565b82818337506000910152565b60005b83811015612850578181015183820152602001612838565b8381111561285f576000848401525b50505050565b601f01601f191690565b612878816127e7565b811461288357600080fd5b50565b612878816127f2565b61287881612803565b6128788161281256fea365627a7a72315820cdf0a9c68217d12172d55990519cb1a94a2eb057d9b25cf2ac76dab672ffd8116c6578706572696d656e74616cf564736f6c63430005110040",
  "compiler": {
    "name": "solc",
    "version": "0.5.17+commit.d19bba13.Emscripten.clang",
    "optimizer": {
      "enabled": true,
      "runs": 200
    },
    "evmVersion": "petersburg"
  }
}