{
  "fileName": "Graph.sol",
  "contractName": "Graph",
  "source": "pragma solidity ^0.5.0;\npragma experimental ABIEncoderV2;\n\nimport \"@openzeppelin/contracts-ethereum-package/contracts/math/SafeMath.sol\";\nimport \"@openzeppelin/contracts-ethereum-package/contracts/utils/Address.sol\";\nimport \"@openzeppelin/contracts-ethereum-package/contracts/token/ERC20/IERC20.sol\";\nimport \"./GraphBase.sol\";\nimport \"./operations/OperationExecutor.sol\";\n\n\ncontract Graph is GraphBase, OperationExecutor {\n    string public constant VERSION = \"1.0.0\";\n\n    using SafeMath for uint256;\n\n    constructor(GraphBase.Element[] memory _elements) public {\n        for (uint256 i; i < _elements.length; i++) {\n            elements.length++;\n            elements[i] = Element({\n                hash: _elements[i].hash,\n                addr: _elements[i].addr,\n                params: _elements[i].params,\n                outputsIndexes: _elements[i].outputsIndexes,\n                outputsInputIndexes: _elements[i].outputsInputIndexes,\n                x: _elements[i].x,\n                y: _elements[i].y\n            });\n        }\n    }\n\n    /**\n     * Fallback function accepts Ether transactions.\n     */\n    function() external payable {}\n\n    /**\n     * Execute many operations.\n     * @param _paramsList params for each element to execute\n     * @param _maxElementInputs max inputs an element has\n     */\n    function execute(bytes[] memory _paramsList, uint256 _maxElementInputs)\n        public\n    {\n        uint256[][] memory inputs = new uint256[][](elements.length);\n        for (uint256 i; i < elements.length; i++) {\n            inputs[i] = new uint256[](_maxElementInputs);\n        }\n        for (uint8 i = 0; i < _paramsList.length; i++) {\n            GraphBase.Element memory element = elements[i];\n            bytes memory params = _paramsList[i];\n            if (element.addr == address(1)) {\n                //InputElement\n                (address asset, uint256 amount) = abi.decode(\n                    params,\n                    (address, uint256)\n                );\n                if (asset != address(0)) {\n                    //No transferFrom for ethers\n                    IERC20(asset).transferFrom(\n                        msg.sender,\n                        address(this),\n                        amount\n                    );\n                }\n                //Input element has one output\n                inputs[element.outputsIndexes[0]][element\n                    .outputsInputIndexes[0]]\n                    .add(amount);\n            } else if (element.addr == address(2)) {\n                //SplitterElement\n                uint8 percentage = abi.decode(params, (uint8));\n                uint256 firstShare = inputs[i][0].mul(percentage).div(100);\n                //Spliiter element has one output\n                inputs[element.outputsIndexes[0]][element\n                    .outputsInputIndexes[0]]\n                    .add(firstShare);\n                inputs[element.outputsIndexes[1]][element\n                    .outputsInputIndexes[1]]\n                    .add(inputs[i][0])\n                    .sub(firstShare);\n            } else if (element.addr == address(3)) {\n                //AddressElement\n                address addr = abi.decode(params, (address));\n                if (inputs[i][0] > 0) {\n                    //ETH\n                    Address.sendValue(msg.sender, inputs[i][0]);\n                } else if (inputs[i][1] > 0) {\n                    //DAI\n                    IERC20(0x6B175474E89094C44Da98b954EedeAC495271d0F).transfer(\n                        msg.sender,\n                        inputs[i][1]\n                    );\n                } else if (inputs[i][2] > 0) {\n                    // WETH\n                    IERC20(0xC02aaA39b223FE8D0A0e5C4F27eAD9083C756Cc2).transfer(\n                        msg.sender,\n                        inputs[i][2]\n                    );\n                } else if (inputs[i][3] > 0) {\n                    //USDC\n                    IERC20(0xA0b86991c6218b36c1d19D4a2e9Eb0cE3606eB48).transfer(\n                        msg.sender,\n                        inputs[i][3]\n                    );\n                } else if (inputs[i][4] > 0) {\n                    //USDT\n                    IERC20(0xdAC17F958D2ee523a2206206994597C13D831ec7).transfer(\n                        msg.sender,\n                        inputs[i][4]\n                    );\n                } else if (inputs[i][5] > 0) {\n                    //SUSD\n                    IERC20(0x57Ab1ec28D129707052df4dF418D58a2D46d5f51).transfer(\n                        msg.sender,\n                        inputs[i][5]\n                    );\n                } else if (inputs[i][6] > 0) {\n                    //WBTC\n                    IERC20(0x2260FAC5E5542a773Aa44fBCfeDf7C193bc2C599).transfer(\n                        msg.sender,\n                        inputs[i][6]\n                    );\n                } else if (inputs[i][7] > 0) {\n                    //REP\n                    IERC20(0x1985365e9f78359a9B6AD760e32412f4a445E862).transfer(\n                        msg.sender,\n                        inputs[i][7]\n                    );\n                } else if (inputs[i][8] > 0) {\n                    //CDAI\n                    IERC20(0x5d3a536E4D6DbD6114cc1Ead35777bAB948E3643).transfer(\n                        msg.sender,\n                        inputs[i][8]\n                    );\n                } else if (inputs[i][9] > 0) {\n                    //CUSDC\n                    IERC20(0x39AA39c021dfbaE8faC545936693aC917d5E7563).transfer(\n                        msg.sender,\n                        inputs[i][9]\n                    );\n                } else if (inputs[i][10] > 0) {\n                    //CWBTC\n                    IERC20(0xC11b1268C1A384e55C48c2391d8d480264A3A7F4).transfer(\n                        msg.sender,\n                        inputs[i][10]\n                    );\n                } else if (inputs[i][11] > 0) {\n                    //CETH\n                    IERC20(0x4Ddc2D193948926D02f9B1fE9e1daa0718270ED5).transfer(\n                        msg.sender,\n                        inputs[i][11]\n                    );\n                }\n            } else {\n                uint256[] memory outAmounts = executeOperation(\n                    element.addr,\n                    inputs[i],\n                    element.params\n                );\n                //Redirect\n                for (\n                    uint8 j = 0;\n                    j < element.outputsIndexes.length;\n                    j++\n                ) {\n                    inputs[element.outputsIndexes[j]][element\n                        .outputsInputIndexes[j]]\n                        .add(outAmounts[j]);\n                }\n            }\n        }\n    }\n\n    function getElements() public view returns (GraphBase.Element[] memory) {\n        return elements;\n    }\n}\n",
  "sourcePath": "contracts/Graph.sol",
  "abi": [
    {
      "inputs": [
        {
          "components": [
            {
              "internalType": "string",
              "name": "hash",
              "type": "string"
            },
            {
              "internalType": "address",
              "name": "addr",
              "type": "address"
            },
            {
              "internalType": "bytes",
              "name": "params",
              "type": "bytes"
            },
            {
              "internalType": "uint64[]",
              "name": "outputsIndexes",
              "type": "uint64[]"
            },
            {
              "internalType": "uint64[]",
              "name": "outputsInputIndexes",
              "type": "uint64[]"
            },
            {
              "internalType": "uint8",
              "name": "x",
              "type": "uint8"
            },
            {
              "internalType": "uint8",
              "name": "y",
              "type": "uint8"
            }
          ],
          "internalType": "struct GraphBase.Element[]",
          "name": "_elements",
          "type": "tuple[]"
        }
      ],
      "payable": false,
      "stateMutability": "nonpayable",
      "type": "constructor"
    },
    {
      "payable": true,
      "stateMutability": "payable",
      "type": "fallback"
    },
    {
      "constant": true,
      "inputs": [],
      "name": "VERSION",
      "outputs": [
        {
          "internalType": "string",
          "name": "",
          "type": "string"
        }
      ],
      "payable": false,
      "stateMutability": "view",
      "type": "function"
    },
    {
      "constant": true,
      "inputs": [
        {
          "internalType": "uint256",
          "name": "",
          "type": "uint256"
        }
      ],
      "name": "elements",
      "outputs": [
        {
          "internalType": "string",
          "name": "hash",
          "type": "string"
        },
        {
          "internalType": "address",
          "name": "addr",
          "type": "address"
        },
        {
          "internalType": "bytes",
          "name": "params",
          "type": "bytes"
        },
        {
          "internalType": "uint8",
          "name": "x",
          "type": "uint8"
        },
        {
          "internalType": "uint8",
          "name": "y",
          "type": "uint8"
        }
      ],
      "payable": false,
      "stateMutability": "view",
      "type": "function"
    },
    {
      "constant": false,
      "inputs": [
        {
          "internalType": "bytes[]",
          "name": "_paramsList",
          "type": "bytes[]"
        },
        {
          "internalType": "uint256",
          "name": "_maxElementInputs",
          "type": "uint256"
        }
      ],
      "name": "execute",
      "outputs": [],
      "payable": false,
      "stateMutability": "nonpayable",
      "type": "function"
    },
    {
      "constant": false,
      "inputs": [
        {
          "internalType": "address",
          "name": "_operation",
          "type": "address"
        },
        {
          "internalType": "uint256[]",
          "name": "_inAmounts",
          "type": "uint256[]"
        },
        {
          "internalType": "bytes",
          "name": "_params",
          "type": "bytes"
        }
      ],
      "name": "executeOperation",
      "outputs": [
        {
          "internalType": "uint256[]",
          "name": "",
          "type": "uint256[]"
        }
      ],
      "payable": false,
      "stateMutability": "nonpayable",
      "type": "function"
    },
    {
      "constant": false,
      "inputs": [
        {
          "components": [
            {
              "internalType": "address",
              "name": "addr",
              "type": "address"
            },
            {
              "internalType": "uint256[]",
              "name": "inAmounts",
              "type": "uint256[]"
            },
            {
              "internalType": "bytes",
              "name": "params",
              "type": "bytes"
            }
          ],
          "internalType": "struct OperationExecutor.Operation[]",
          "name": "_operations",
          "type": "tuple[]"
        }
      ],
      "name": "executeOperations",
      "outputs": [],
      "payable": false,
      "stateMutability": "nonpayable",
      "type": "function"
    },
    {
      "constant": true,
      "inputs": [],
      "name": "getElements",
      "outputs": [
        {
          "components": [
            {
              "internalType": "string",
              "name": "hash",
              "type": "string"
            },
            {
              "internalType": "address",
              "name": "addr",
              "type": "address"
            },
            {
              "internalType": "bytes",
              "name": "params",
              "type": "bytes"
            },
            {
              "internalType": "uint64[]",
              "name": "outputsIndexes",
              "type": "uint64[]"
            },
            {
              "internalType": "uint64[]",
              "name": "outputsInputIndexes",
              "type": "uint64[]"
            },
            {
              "internalType": "uint8",
              "name": "x",
              "type": "uint8"
            },
            {
              "internalType": "uint8",
              "name": "y",
              "type": "uint8"
            }
          ],
          "internalType": "struct GraphBase.Element[]",
          "name": "",
          "type": "tuple[]"
        }
      ],
      "payable": false,
      "stateMutability": "view",
      "type": "function"
    }
  ],
  "bytecode": "0x60806040523480156200001157600080fd5b5060405162002b3438038062002b3483398101604081905262000034916200076d565b60005b81518110156200023457600180549062000054908281016200023c565b506040518060e001604052808383815181106200006d57fe5b60200260200101516000015181526020018383815181106200008b57fe5b6020026020010151602001516001600160a01b03168152602001838381518110620000b257fe5b6020026020010151604001518152602001838381518110620000d057fe5b6020026020010151606001518152602001838381518110620000ee57fe5b60200260200101516080015181526020018383815181106200010c57fe5b602002602001015160a0015160ff1681526020018383815181106200012d57fe5b602002602001015160c0015160ff16815250600182815481106200014d57fe5b906000526020600020906006020160008201518160000190805190602001906200017992919062000270565b506020828101516001830180546001600160a01b0319166001600160a01b0390921691909117905560408301518051620001ba926002850192019062000270565b5060608201518051620001d8916003840191602090910190620002f5565b5060808201518051620001f6916004840191602090910190620002f5565b5060a08201516005909101805460c09093015160ff9081166101000261ff00199190931660ff19909416939093179290921617905560010162000037565b5050620008a1565b8154818355818111156200026b576006028160060283600052602060002091820191016200026b9190620003b0565b505050565b828054600181600116156101000203166002900490600052602060002090601f016020900481019282601f10620002b357805160ff1916838001178555620002e3565b82800160010185558215620002e3579182015b82811115620002e3578251825591602001919060010190620002c6565b50620002f19291506200042a565b5090565b82805482825590600052602060002090600301600490048101928215620003a25791602002820160005b838211156200036b57835183826101000a8154816001600160401b0302191690836001600160401b0316021790555092602001926008016020816007010492830192600103026200031f565b8015620003a05782816101000a8154906001600160401b0302191690556008016020816007010492830192600103026200036b565b505b50620002f192915062000447565b6200042791905b80821115620002f1576000620003ce82826200046e565b6001820180546001600160a01b0319169055620003f06002830160006200046e565b62000400600383016000620004b9565b62000410600483016000620004b9565b5060058101805461ffff19169055600601620003b7565b90565b6200042791905b80821115620002f1576000815560010162000431565b6200042791905b80821115620002f15780546001600160401b03191681556001016200044e565b50805460018160011615610100020316600290046000825580601f10620004965750620004b6565b601f016020900490600052602060002090810190620004b691906200042a565b50565b508054600082556003016004900490600052602060002090810190620004b691906200042a565b8051620004ed8162000874565b92915050565b600082601f8301126200050557600080fd5b81516200051c6200051682620007d4565b620007ad565b81815260209384019390925082018360005b838110156200055e578151860162000547888262000637565b84525060209283019291909101906001016200052e565b5050505092915050565b600082601f8301126200057a57600080fd5b81516200058b6200051682620007d4565b91508181835260208401935060208101905083856020840282011115620005b157600080fd5b60005b838110156200055e5781620005ca888262000753565b8452506020928301929190910190600101620005b4565b600082601f830112620005f357600080fd5b8151620006046200051682620007f5565b915080825260208301602083018583830111156200062157600080fd5b6200062e83828462000841565b50505092915050565b600060e082840312156200064a57600080fd5b6200065660e0620007ad565b82519091506001600160401b038111156200067057600080fd5b6200067e84828501620005e1565b82525060206200069184848301620004e0565b60208301525060408201516001600160401b03811115620006b157600080fd5b620006bf84828501620005e1565b60408301525060608201516001600160401b03811115620006df57600080fd5b620006ed8482850162000568565b60608301525060808201516001600160401b038111156200070d57600080fd5b6200071b8482850162000568565b60808301525060a0620007318482850162000760565b60a08301525060c0620007478482850162000760565b60c08301525092915050565b8051620004ed816200088b565b8051620004ed8162000896565b6000602082840312156200078057600080fd5b81516001600160401b038111156200079757600080fd5b620007a584828501620004f3565b949350505050565b6040518181016001600160401b0381118282101715620007cc57600080fd5b604052919050565b60006001600160401b03821115620007eb57600080fd5b5060209081020190565b60006001600160401b038211156200080c57600080fd5b506020601f91909101601f19160190565b60006001600160a01b038216620004ed565b6001600160401b031690565b60ff1690565b60005b838110156200085e57818101518382015260200162000844565b838111156200086e576000848401525b50505050565b6200087f816200081d565b8114620004b657600080fd5b6200087f816200082f565b6200087f816200083b565b61228380620008b16000396000f3fe6080604052600436106100555760003560e01c80632aa0004d146100575780633ac7f61014610077578063b1a18cc714610097578063d0ec27cf146100c2578063e0d64b37146100ef578063ffa1ad7414610120575b005b34801561006357600080fd5b50610055610072366004611b10565b610142565b34801561008357600080fd5b50610055610092366004611aca565b6101b7565b3480156100a357600080fd5b506100ac610f1d565b6040516100b99190612015565b60405180910390f35b3480156100ce57600080fd5b506100e26100dd366004611a4f565b6111ed565b6040516100b99190612026565b3480156100fb57600080fd5b5061010f61010a366004611b96565b6112f8565b6040516100b995949392919061206d565b34801561012c57600080fd5b5061013561145e565b6040516100b9919061205c565b60005b81518160ff1610156101b3576101aa828260ff168151811061016357fe5b602002602001015160000151838360ff168151811061017e57fe5b602002602001015160200151848460ff168151811061019957fe5b6020026020010151604001516111ed565b50600101610145565b5050565b60015460408051828152602080840282010190915260609180156101ef57816020015b60608152602001906001900390816101da5790505b50905060005b6001548110156102495782604051908082528060200260200182016040528015610229578160200160208202803883390190505b5082828151811061023657fe5b60209081029190910101526001016101f5565b5060005b83518160ff161015610f1757610261611670565b60018260ff168154811061027157fe5b6000918252602091829020604080516006939093029091018054600260018216156101009081026000190190921604601f81018690049095028401810190925260e08301848152929390928492909184918401828280156103135780601f106102e857610100808354040283529160200191610313565b820191906000526020600020905b8154815290600101906020018083116102f657829003601f168201915b50505091835250506001828101546001600160a01b0316602080840191909152600280850180546040805161010096831615969096026000190190911692909204601f810184900484028501840183528085529190940193918301828280156103bd5780601f10610392576101008083540402835291602001916103bd565b820191906000526020600020905b8154815290600101906020018083116103a057829003601f168201915b505050505081526020016003820180548060200260200160405190810160405280929190818152602001828054801561044757602002820191906000526020600020906000905b82829054906101000a90046001600160401b03166001600160401b0316815260200190600801906020826007010492830192600103820291508084116104045790505b50505050508152602001600482018054806020026020016040519081016040528092919081815260200182805480156104d157602002820191906000526020600020906000905b82829054906101000a90046001600160401b03166001600160401b03168152602001906008019060208260070104928301926001038202915080841161048e5790505b50505091835250506005919091015460ff8082166020840152610100909104811660409092019190915286519192506060918791851690811061051057fe5b6020026020010151905060016001600160a01b031682602001516001600160a01b0316141561066b57600080828060200190516105509190810190611a15565b90925090506001600160a01b038216156105e8576040516323b872dd60e01b81526001600160a01b038316906323b872dd9061059490339030908690600401611fd2565b602060405180830381600087803b1580156105ae57600080fd5b505af11580156105c2573d6000803e3d6000fd5b505050506040513d601f19601f820116820180604052506105e69190810190611b78565b505b610663818786606001516000815181106105fe57fe5b60200260200101516001600160401b03168151811061061957fe5b6020026020010151866080015160008151811061063257fe5b60200260200101516001600160401b03168151811061064d57fe5b602002602001015161147f90919063ffffffff16565b505050610f0d565b60208201516001600160a01b031660021415610789576000818060200190516106979190810190611bb4565b905060006106ec60646106e08460ff16898960ff16815181106106b657fe5b60200260200101516000815181106106ca57fe5b60200260200101516114ad90919063ffffffff16565b9063ffffffff6114e716565b9050610704818786606001516000815181106105fe57fe5b506106638161077d888860ff168151811061071b57fe5b602002602001015160008151811061072f57fe5b602002602001015189886060015160018151811061074957fe5b60200260200101516001600160401b03168151811061076457fe5b6020026020010151886080015160018151811061063257fe5b9063ffffffff61152916565b60208201516001600160a01b031660031415610e5d576000818060200190516107b591908101906119ef565b90506000858560ff16815181106107c857fe5b60200260200101516000815181106107dc57fe5b602002602001015111156108235761081e33868660ff16815181106107fd57fe5b602002602001015160008151811061081157fe5b602002602001015161156b565b610e57565b6000858560ff168151811061083457fe5b602002602001015160018151811061084857fe5b6020026020010151111561091a57736b175474e89094c44da98b954eedeac495271d0f6001600160a01b031663a9059cbb33878760ff168151811061088957fe5b602002602001015160018151811061089d57fe5b60200260200101516040518363ffffffff1660e01b81526004016108c2929190611ffa565b602060405180830381600087803b1580156108dc57600080fd5b505af11580156108f0573d6000803e3d6000fd5b505050506040513d601f19601f820116820180604052506109149190810190611b78565b50610e57565b6000858560ff168151811061092b57fe5b602002602001015160028151811061093f57fe5b602002602001015111156109945773c02aaa39b223fe8d0a0e5c4f27ead9083c756cc26001600160a01b031663a9059cbb33878760ff168151811061098057fe5b602002602001015160028151811061089d57fe5b6000858560ff16815181106109a557fe5b60200260200101516003815181106109b957fe5b60200260200101511115610a0e5773a0b86991c6218b36c1d19d4a2e9eb0ce3606eb486001600160a01b031663a9059cbb33878760ff16815181106109fa57fe5b602002602001015160038151811061089d57fe5b6000858560ff1681518110610a1f57fe5b6020026020010151600481518110610a3357fe5b60200260200101511115610a885773dac17f958d2ee523a2206206994597c13d831ec76001600160a01b031663a9059cbb33878760ff1681518110610a7457fe5b602002602001015160048151811061089d57fe5b6000858560ff1681518110610a9957fe5b6020026020010151600581518110610aad57fe5b60200260200101511115610b02577357ab1ec28d129707052df4df418d58a2d46d5f516001600160a01b031663a9059cbb33878760ff1681518110610aee57fe5b602002602001015160058151811061089d57fe5b6000858560ff1681518110610b1357fe5b6020026020010151600681518110610b2757fe5b60200260200101511115610b7c57732260fac5e5542a773aa44fbcfedf7c193bc2c5996001600160a01b031663a9059cbb33878760ff1681518110610b6857fe5b602002602001015160068151811061089d57fe5b6000858560ff1681518110610b8d57fe5b6020026020010151600781518110610ba157fe5b60200260200101511115610bf657731985365e9f78359a9b6ad760e32412f4a445e8626001600160a01b031663a9059cbb33878760ff1681518110610be257fe5b602002602001015160078151811061089d57fe5b6000858560ff1681518110610c0757fe5b6020026020010151600881518110610c1b57fe5b60200260200101511115610c7057735d3a536e4d6dbd6114cc1ead35777bab948e36436001600160a01b031663a9059cbb33878760ff1681518110610c5c57fe5b602002602001015160088151811061089d57fe5b6000858560ff1681518110610c8157fe5b6020026020010151600981518110610c9557fe5b60200260200101511115610cea577339aa39c021dfbae8fac545936693ac917d5e75636001600160a01b031663a9059cbb33878760ff1681518110610cd657fe5b602002602001015160098151811061089d57fe5b6000858560ff1681518110610cfb57fe5b6020026020010151600a81518110610d0f57fe5b60200260200101511115610d645773c11b1268c1a384e55c48c2391d8d480264a3a7f46001600160a01b031663a9059cbb33878760ff1681518110610d5057fe5b6020026020010151600a8151811061089d57fe5b6000858560ff1681518110610d7557fe5b6020026020010151600b81518110610d8957fe5b60200260200101511115610e5757734ddc2d193948926d02f9b1fe9e1daa0718270ed56001600160a01b031663a9059cbb33878760ff1681518110610dca57fe5b6020026020010151600b81518110610dde57fe5b60200260200101516040518363ffffffff1660e01b8152600401610e03929190611ffa565b602060405180830381600087803b158015610e1d57600080fd5b505af1158015610e31573d6000803e3d6000fd5b505050506040513d601f19601f82011682018060405250610e559190810190611b78565b505b50610f0d565b6060610e888360200151868660ff1681518110610e7657fe5b602002602001015185604001516111ed565b905060005b8360600151518160ff161015610f0a57610f01828260ff1681518110610eaf57fe5b60200260200101518786606001518460ff1681518110610ecb57fe5b60200260200101516001600160401b031681518110610ee657fe5b602002602001015186608001518460ff168151811061063257fe5b50600101610e8d565b50505b505060010161024d565b50505050565b60606001805480602002602001604051908101604052809291908181526020016000905b828210156111e457600084815260209081902060408051600686029092018054600260018216156101009081026000190190921604601f81018690049095028401810190925260e0830184815292939092849290918491840182828015610fe95780601f10610fbe57610100808354040283529160200191610fe9565b820191906000526020600020905b815481529060010190602001808311610fcc57829003601f168201915b50505091835250506001828101546001600160a01b0316602080840191909152600280850180546040805161010096831615969096026000190190911692909204601f810184900484028501840183528085529190940193918301828280156110935780601f1061106857610100808354040283529160200191611093565b820191906000526020600020905b81548152906001019060200180831161107657829003601f168201915b505050505081526020016003820180548060200260200160405190810160405280929190818152602001828054801561111d57602002820191906000526020600020906000905b82829054906101000a90046001600160401b03166001600160401b0316815260200190600801906020826007010492830192600103820291508084116110da5790505b50505050508152602001600482018054806020026020016040519081016040528092919081815260200182805480156111a757602002820191906000526020600020906000905b82829054906101000a90046001600160401b03166001600160401b0316815260200190600801906020826007010492830192600103820291508084116111645790505b50505091835250506005919091015460ff808216602080850191909152610100909204166040909201919091529082526001929092019101610f41565b50505050905090565b6060806040516111fc90611fbc565b60405180910390208484604051602401611217929190612037565b604051602081830303815290604052906001600160e01b0319166020820180516001600160e01b038381831617835250505050905060006060866001600160a01b0316836040516112689190611fb0565b600060405180830381855af49150503d80600081146112a3576040519150601f19603f3d011682016040523d82523d6000602084013e6112a8565b606091505b50915091508181906112d65760405162461bcd60e51b81526004016112cd919061205c565b60405180910390fd5b50808060200190516112eb9190810190611b44565b93505050505b9392505050565b6001818154811061130557fe5b60009182526020918290206006919091020180546040805160026001841615610100026000190190931692909204601f81018590048502830185019091528082529193509183919083018282801561139e5780601f106113735761010080835404028352916020019161139e565b820191906000526020600020905b81548152906001019060200180831161138157829003601f168201915b505050506001838101546002808601805460408051602061010097841615979097026000190190921693909304601f810186900486028201860190935282815295966001600160a01b039093169592945091928301828280156114425780601f1061141757610100808354040283529160200191611442565b820191906000526020600020905b81548152906001019060200180831161142557829003601f168201915b5050506005909301549192505060ff8082169161010090041685565b604051806040016040528060058152602001640312e302e360dc1b81525081565b6000828201838110156114a45760405162461bcd60e51b81526004016112cd906120c5565b90505b92915050565b6000826114bc575060006114a7565b828202828482816114c957fe5b04146114a45760405162461bcd60e51b81526004016112cd906120f5565b60006114a483836040518060400160405280601a81526020017f536166654d6174683a206469766973696f6e206279207a65726f00000000000081525061160d565b60006114a483836040518060400160405280601e81526020017f536166654d6174683a207375627472616374696f6e206f766572666c6f770000815250611644565b303181111561158c5760405162461bcd60e51b81526004016112cd906120e5565b6000826001600160a01b0316826040516115a590611fc7565b60006040518083038185875af1925050503d80600081146115e2576040519150601f19603f3d011682016040523d82523d6000602084013e6115e7565b606091505b50509050806116085760405162461bcd60e51b81526004016112cd906120d5565b505050565b6000818361162e5760405162461bcd60e51b81526004016112cd919061205c565b50600083858161163a57fe5b0495945050505050565b600081848411156116685760405162461bcd60e51b81526004016112cd919061205c565b505050900390565b6040518060e001604052806060815260200160006001600160a01b03168152602001606081526020016060815260200160608152602001600060ff168152602001600060ff1681525090565b80356114a78161220e565b80516114a78161220e565b600082601f8301126116e357600080fd5b81356116f66116f18261212b565b612105565b81815260209384019390925082018360005b83811015611734578135860161171e88826118f6565b8452506020928301929190910190600101611708565b5050505092915050565b600082601f83011261174f57600080fd5b813561175d6116f18261212b565b81815260209384019390925082018360005b8381101561173457813586016117858882611945565b845250602092830192919091019060010161176f565b600082601f8301126117ac57600080fd5b81356117ba6116f18261212b565b915081818352602084019350602081019050838560208402820111156117df57600080fd5b60005b8381101561173457816117f588826119ce565b84525060209283019291909101906001016117e2565b600082601f83011261181c57600080fd5b815161182a6116f18261212b565b9150818183526020840193506020810190508385602084028201111561184f57600080fd5b60005b83811015611734578161186588826119d9565b8452506020928301929190910190600101611852565b600082601f83011261188c57600080fd5b813561189a6116f18261212b565b915081818352602084019350602081019050838560208402820111156118bf57600080fd5b60005b8381101561173457816118d588826119ce565b84525060209283019291909101906001016118c2565b80516114a781612225565b600082601f83011261190757600080fd5b81356119156116f18261214b565b9150808252602083016020830185838301111561193157600080fd5b61193c8382846121cc565b50505092915050565b60006060828403121561195757600080fd5b6119616060612105565b9050600061196f84846116bc565b82525060208201356001600160401b0381111561198b57600080fd5b6119978482850161179b565b60208301525060408201356001600160401b038111156119b657600080fd5b6119c2848285016118f6565b60408301525092915050565b80356114a78161222e565b80516114a78161222e565b80516114a781612237565b600060208284031215611a0157600080fd5b6000611a0d84846116c7565b949350505050565b60008060408385031215611a2857600080fd5b6000611a3485856116c7565b9250506020611a45858286016119d9565b9150509250929050565b600080600060608486031215611a6457600080fd5b6000611a7086866116bc565b93505060208401356001600160401b03811115611a8c57600080fd5b611a988682870161187b565b92505060408401356001600160401b03811115611ab457600080fd5b611ac0868287016118f6565b9150509250925092565b60008060408385031215611add57600080fd5b82356001600160401b03811115611af357600080fd5b611aff858286016116d2565b9250506020611a45858286016119ce565b600060208284031215611b2257600080fd5b81356001600160401b03811115611b3857600080fd5b611a0d8482850161173e565b600060208284031215611b5657600080fd5b81516001600160401b03811115611b6c57600080fd5b611a0d8482850161180b565b600060208284031215611b8a57600080fd5b6000611a0d84846118eb565b600060208284031215611ba857600080fd5b6000611a0d84846119ce565b600060208284031215611bc657600080fd5b6000611a0d84846119e4565b60006114a48383611eec565b6000611bea8383611f95565b505060200190565b6000611bea8383611f9e565b611c07816121bb565b82525050565b611c078161218a565b6000611c2182612178565b611c2b818561217c565b935083602082028501611c3d85612172565b8060005b85811015611c775784840389528151611c5a8582611bd2565b9450611c6583612172565b60209a909a0199925050600101611c41565b5091979650505050505050565b6000611c8f82612178565b611c99818561217c565b9350611ca483612172565b8060005b83811015611cd2578151611cbc8882611bde565b9750611cc783612172565b925050600101611ca8565b509495945050505050565b6000611ce882612178565b611cf2818561217c565b9350611cfd83612172565b8060005b83811015611cd2578151611d158882611bf2565b9750611d2083612172565b925050600101611d01565b6000611d3682612178565b611d40818561217c565b9350611d508185602086016121d8565b611d5981612204565b9093019392505050565b6000611d6e82612178565b611d788185612185565b9350611d888185602086016121d8565b9290920192915050565b6000611d9f601b8361217c565b7f536166654d6174683a206164646974696f6e206f766572666c6f770000000000815260200192915050565b6000611dd8603a8361217c565b7f416464726573733a20756e61626c6520746f2073656e642076616c75652c207281527f6563697069656e74206d61792068617665207265766572746564000000000000602082015260400192915050565b6000611e37601d8361217c565b7f416464726573733a20696e73756666696369656e742062616c616e6365000000815260200192915050565b6000611e7060218361217c565b7f536166654d6174683a206d756c7469706c69636174696f6e206f766572666c6f8152607760f81b602082015260400192915050565b6000611eb3601883612185565b7f6f7065726174652875696e743235365b5d2c6279746573290000000000000000815260180192915050565b60006114a7600083612185565b805160e080845260009190840190611f048282611d2b565b9150506020830151611f196020860182611c0d565b5060408301518482036040860152611f318282611d2b565b91505060608301518482036060860152611f4b8282611cdd565b91505060808301518482036080860152611f658282611cdd565b91505060a0830151611f7a60a0860182611fa7565b5060c0830151611f8d60c0860182611fa7565b509392505050565b611c07816121a6565b611c07816121a9565b611c07816121b5565b60006112f18284611d63565b60006114a782611ea6565b60006114a782611edf565b60608101611fe08286611bfe565b611fed6020830185611bfe565b611a0d6040830184611f95565b604081016120088285611bfe565b6112f16020830184611f95565b602080825281016114a48184611c16565b602080825281016114a48184611c84565b604080825281016120488185611c84565b90508181036020830152611a0d8184611d2b565b602080825281016114a48184611d2b565b60a0808252810161207e8188611d2b565b905061208d6020830187611c0d565b818103604083015261209f8186611d2b565b90506120ae6060830185611fa7565b6120bb6080830184611fa7565b9695505050505050565b602080825281016114a781611d92565b602080825281016114a781611dcb565b602080825281016114a781611e2a565b602080825281016114a781611e63565b6040518181016001600160401b038111828210171561212357600080fd5b604052919050565b60006001600160401b0382111561214157600080fd5b5060209081020190565b60006001600160401b0382111561216157600080fd5b506020601f91909101601f19160190565b60200190565b5190565b90815260200190565b919050565b60006114a78261219a565b151590565b6001600160a01b031690565b90565b6001600160401b031690565b60ff1690565b60006114a78260006114a78261218a565b82818337506000910152565b60005b838110156121f35781810151838201526020016121db565b83811115610f175750506000910152565b601f01601f191690565b6122178161218a565b811461222257600080fd5b50565b61221781612195565b612217816121a6565b612217816121b556fea365627a7a723158200d010bc83af6a1cbaf177644c58b4533590e8919f6dadfb02b40fb612e6b22436c6578706572696d656e74616cf564736f6c63430005110040",
  "compiler": {
    "name": "solc",
    "version": "0.5.17+commit.d19bba13.Emscripten.clang",
    "optimizer": {
      "enabled": true,
      "runs": 200
    },
    "evmVersion": "petersburg"
  }
}