{
  "fileName": "Graph.sol",
  "contractName": "Graph",
  "source": "pragma solidity ^0.5.0;\npragma experimental ABIEncoderV2;\n\nimport \"@openzeppelin/contracts-ethereum-package/contracts/math/SafeMath.sol\";\nimport \"@openzeppelin/contracts-ethereum-package/contracts/utils/Address.sol\";\nimport \"@openzeppelin/contracts-ethereum-package/contracts/token/ERC20/IERC20.sol\";\nimport \"./GraphBase.sol\";\n\n\ncontract Graph is GraphBase {\n    string public constant VERSION = \"1.0.0\";\n\n    using SafeMath for uint256;\n\n    constructor(GraphBase.Element[] memory _elements) public {\n        for (uint256 i; i < _elements.length; i++) {\n            elements.length++;\n            elements[i] = Element({\n                hash: _elements[i].hash,\n                addr: _elements[i].addr,\n                params: _elements[i].params,\n                outputsIndexes: _elements[i].outputsIndexes,\n                outputsInputIndexes: _elements[i].outputsInputIndexes,\n                x: _elements[i].x,\n                y: _elements[i].y\n            });\n        }\n    }\n\n    /**\n     * Fallback function accepts Ether transactions.\n     */\n    function() external payable {}\n\n    /**\n     * Execute many operations.\n     * @param _paramsList params for each element to execute\n     * @param _maxElementInputs max inputs an element has\n     */\n    function execute(bytes[] memory _paramsList, uint256 _maxElementInputs)\n        public\n        payable\n    {\n        uint256[][] memory inputs = new uint256[][](elements.length);\n        for (uint256 i; i < elements.length; i++) {\n            inputs[i] = new uint256[](_maxElementInputs);\n        }\n        for (uint8 i = 0; i < _paramsList.length; i++) {\n            GraphBase.Element memory element = elements[i];\n            bytes memory params = _paramsList[i];\n            if (element.addr == address(1)) {\n                //InputElement\n                (address asset, uint256 amount) = abi.decode(\n                    params,\n                    (address, uint256)\n                );\n                if (asset != address(0) && amount > 0) {\n                    //No transferFrom for ethers\n                    IERC20(asset).transferFrom(\n                        msg.sender,\n                        address(this),\n                        amount\n                    );\n                }\n                //Input element has one output\n                addAmountToInput(\n                    inputs,\n                    element.outputsIndexes[0],\n                    element.outputsInputIndexes[0],\n                    amount\n                );\n            } else if (element.addr == address(2)) {\n                //SplitterElement\n                uint8 percentage = abi.decode(params, (uint8));\n                uint256 firstShare = inputs[i][0].mul(percentage).div(100);\n                //Spliiter element has one output\n                addAmountToInput(\n                    inputs,\n                    element.outputsIndexes[0],\n                    element.outputsInputIndexes[0],\n                    firstShare\n                );\n                addAmountToInput(\n                    inputs,\n                    element.outputsIndexes[1],\n                    element.outputsInputIndexes[1],\n                    inputs[i][0].sub(firstShare)\n                );\n            } else if (element.addr == address(3)) {\n                //AddressElement\n                address payable addr = abi.decode(params, (address));\n                if (inputs[i][0] > 0) {\n                    //ETH\n                    Address.sendValue(addr, inputs[i][0]);\n                } else if (inputs[i][1] > 0) {\n                    //DAI\n                    IERC20(0x6B175474E89094C44Da98b954EedeAC495271d0F).transfer(\n                        addr,\n                        inputs[i][1]\n                    );\n                } else if (inputs[i][2] > 0) {\n                    // WETH\n                    IERC20(0xC02aaA39b223FE8D0A0e5C4F27eAD9083C756Cc2).transfer(\n                        addr,\n                        inputs[i][2]\n                    );\n                } else if (inputs[i][3] > 0) {\n                    //USDC\n                    IERC20(0xA0b86991c6218b36c1d19D4a2e9Eb0cE3606eB48).transfer(\n                        addr,\n                        inputs[i][3]\n                    );\n                } else if (inputs[i][4] > 0) {\n                    //USDT\n                    IERC20(0xdAC17F958D2ee523a2206206994597C13D831ec7).transfer(\n                        addr,\n                        inputs[i][4]\n                    );\n                } else if (inputs[i][5] > 0) {\n                    //SUSD\n                    IERC20(0x57Ab1ec28D129707052df4dF418D58a2D46d5f51).transfer(\n                        addr,\n                        inputs[i][5]\n                    );\n                } else if (inputs[i][6] > 0) {\n                    //WBTC\n                    IERC20(0x2260FAC5E5542a773Aa44fBCfeDf7C193bc2C599).transfer(\n                        addr,\n                        inputs[i][6]\n                    );\n                } else if (inputs[i][7] > 0) {\n                    //REP\n                    IERC20(0x1985365e9f78359a9B6AD760e32412f4a445E862).transfer(\n                        addr,\n                        inputs[i][7]\n                    );\n                } else if (inputs[i][8] > 0) {\n                    //CDAI\n                    IERC20(0x5d3a536E4D6DbD6114cc1Ead35777bAB948E3643).transfer(\n                        addr,\n                        inputs[i][8]\n                    );\n                } else if (inputs[i][9] > 0) {\n                    //CUSDC\n                    IERC20(0x39AA39c021dfbaE8faC545936693aC917d5E7563).transfer(\n                        addr,\n                        inputs[i][9]\n                    );\n                } else if (inputs[i][10] > 0) {\n                    //CWBTC\n                    IERC20(0xC11b1268C1A384e55C48c2391d8d480264A3A7F4).transfer(\n                        addr,\n                        inputs[i][10]\n                    );\n                } else if (inputs[i][11] > 0) {\n                    //CETH\n                    IERC20(0x4Ddc2D193948926D02f9B1fE9e1daa0718270ED5).transfer(\n                        addr,\n                        inputs[i][11]\n                    );\n                }\n            } else {\n                uint256[] memory outAmounts = executeOperation(\n                    element.addr,\n                    inputs[i],\n                    params\n                );\n                //Redirect\n                for (uint8 j = 0; j < element.outputsIndexes.length; j++) {\n                    addAmountToInput(\n                        inputs,\n                        element.outputsIndexes[j],\n                        element.outputsInputIndexes[j],\n                        outAmounts[j]\n                    );\n                }\n            }\n        }\n        //TODO: send all remains to sender\n    }\n\n    /**\n     * Execute one operation.\n     * @param _operation operaetion to execute\n     * @param _inAmounts params is the amount to swap\n     * @param _params params contains the min amount to buy and the time deadline\n     */\n    function executeOperation(\n        address _operation,\n        uint256[] memory _inAmounts,\n        bytes memory _params\n    ) public returns (uint256[] memory outAmounts) {\n        bytes memory data = abi.encodeWithSelector(\n            bytes4(keccak256(\"operate(uint256[],bytes)\")),\n            _inAmounts,\n            _params\n        );\n        (bool success, bytes memory returnedData) = _operation.delegatecall(\n            data\n        );\n        require(success, string(returnedData));\n        outAmounts = abi.decode(returnedData, (uint256[]));\n    }\n\n    function addAmountToInput(\n        uint256[][] memory inputs,\n        uint64 index1,\n        uint64 index2,\n        uint256 amount\n    ) private {\n        inputs[index1][index2] = inputs[index1][index2] == 0\n            ? amount\n            : (inputs[index1][index2]).add(amount);\n    }\n\n    function getElements() public view returns (GraphBase.Element[] memory) {\n        return elements;\n    }\n}\n",
  "sourcePath": "contracts/Graph.sol",
  "abi": [
    {
      "inputs": [
        {
          "components": [
            {
              "internalType": "string",
              "name": "hash",
              "type": "string"
            },
            {
              "internalType": "address",
              "name": "addr",
              "type": "address"
            },
            {
              "internalType": "bytes",
              "name": "params",
              "type": "bytes"
            },
            {
              "internalType": "uint64[]",
              "name": "outputsIndexes",
              "type": "uint64[]"
            },
            {
              "internalType": "uint64[]",
              "name": "outputsInputIndexes",
              "type": "uint64[]"
            },
            {
              "internalType": "uint8",
              "name": "x",
              "type": "uint8"
            },
            {
              "internalType": "uint8",
              "name": "y",
              "type": "uint8"
            }
          ],
          "internalType": "struct GraphBase.Element[]",
          "name": "_elements",
          "type": "tuple[]"
        }
      ],
      "payable": false,
      "stateMutability": "nonpayable",
      "type": "constructor"
    },
    {
      "payable": true,
      "stateMutability": "payable",
      "type": "fallback"
    },
    {
      "constant": true,
      "inputs": [],
      "name": "VERSION",
      "outputs": [
        {
          "internalType": "string",
          "name": "",
          "type": "string"
        }
      ],
      "payable": false,
      "stateMutability": "view",
      "type": "function"
    },
    {
      "constant": true,
      "inputs": [
        {
          "internalType": "uint256",
          "name": "",
          "type": "uint256"
        }
      ],
      "name": "elements",
      "outputs": [
        {
          "internalType": "string",
          "name": "hash",
          "type": "string"
        },
        {
          "internalType": "address",
          "name": "addr",
          "type": "address"
        },
        {
          "internalType": "bytes",
          "name": "params",
          "type": "bytes"
        },
        {
          "internalType": "uint8",
          "name": "x",
          "type": "uint8"
        },
        {
          "internalType": "uint8",
          "name": "y",
          "type": "uint8"
        }
      ],
      "payable": false,
      "stateMutability": "view",
      "type": "function"
    },
    {
      "constant": false,
      "inputs": [
        {
          "internalType": "bytes[]",
          "name": "_paramsList",
          "type": "bytes[]"
        },
        {
          "internalType": "uint256",
          "name": "_maxElementInputs",
          "type": "uint256"
        }
      ],
      "name": "execute",
      "outputs": [],
      "payable": true,
      "stateMutability": "payable",
      "type": "function"
    },
    {
      "constant": false,
      "inputs": [
        {
          "internalType": "address",
          "name": "_operation",
          "type": "address"
        },
        {
          "internalType": "uint256[]",
          "name": "_inAmounts",
          "type": "uint256[]"
        },
        {
          "internalType": "bytes",
          "name": "_params",
          "type": "bytes"
        }
      ],
      "name": "executeOperation",
      "outputs": [
        {
          "internalType": "uint256[]",
          "name": "outAmounts",
          "type": "uint256[]"
        }
      ],
      "payable": false,
      "stateMutability": "nonpayable",
      "type": "function"
    },
    {
      "constant": true,
      "inputs": [],
      "name": "getElements",
      "outputs": [
        {
          "components": [
            {
              "internalType": "string",
              "name": "hash",
              "type": "string"
            },
            {
              "internalType": "address",
              "name": "addr",
              "type": "address"
            },
            {
              "internalType": "bytes",
              "name": "params",
              "type": "bytes"
            },
            {
              "internalType": "uint64[]",
              "name": "outputsIndexes",
              "type": "uint64[]"
            },
            {
              "internalType": "uint64[]",
              "name": "outputsInputIndexes",
              "type": "uint64[]"
            },
            {
              "internalType": "uint8",
              "name": "x",
              "type": "uint8"
            },
            {
              "internalType": "uint8",
              "name": "y",
              "type": "uint8"
            }
          ],
          "internalType": "struct GraphBase.Element[]",
          "name": "",
          "type": "tuple[]"
        }
      ],
      "payable": false,
      "stateMutability": "view",
      "type": "function"
    }
  ],
  "bytecode": "0x60806040523480156200001157600080fd5b506040516200297d3803806200297d83398101604081905262000034916200076d565b60005b81518110156200023457600180549062000054908281016200023c565b506040518060e001604052808383815181106200006d57fe5b60200260200101516000015181526020018383815181106200008b57fe5b6020026020010151602001516001600160a01b03168152602001838381518110620000b257fe5b6020026020010151604001518152602001838381518110620000d057fe5b6020026020010151606001518152602001838381518110620000ee57fe5b60200260200101516080015181526020018383815181106200010c57fe5b602002602001015160a0015160ff1681526020018383815181106200012d57fe5b602002602001015160c0015160ff16815250600182815481106200014d57fe5b906000526020600020906006020160008201518160000190805190602001906200017992919062000270565b506020828101516001830180546001600160a01b0319166001600160a01b0390921691909117905560408301518051620001ba926002850192019062000270565b5060608201518051620001d8916003840191602090910190620002f5565b5060808201518051620001f6916004840191602090910190620002f5565b5060a08201516005909101805460c09093015160ff9081166101000261ff00199190931660ff19909416939093179290921617905560010162000037565b5050620008a1565b8154818355818111156200026b576006028160060283600052602060002091820191016200026b9190620003b0565b505050565b828054600181600116156101000203166002900490600052602060002090601f016020900481019282601f10620002b357805160ff1916838001178555620002e3565b82800160010185558215620002e3579182015b82811115620002e3578251825591602001919060010190620002c6565b50620002f19291506200042a565b5090565b82805482825590600052602060002090600301600490048101928215620003a25791602002820160005b838211156200036b57835183826101000a8154816001600160401b0302191690836001600160401b0316021790555092602001926008016020816007010492830192600103026200031f565b8015620003a05782816101000a8154906001600160401b0302191690556008016020816007010492830192600103026200036b565b505b50620002f192915062000447565b6200042791905b80821115620002f1576000620003ce82826200046e565b6001820180546001600160a01b0319169055620003f06002830160006200046e565b62000400600383016000620004b9565b62000410600483016000620004b9565b5060058101805461ffff19169055600601620003b7565b90565b6200042791905b80821115620002f1576000815560010162000431565b6200042791905b80821115620002f15780546001600160401b03191681556001016200044e565b50805460018160011615610100020316600290046000825580601f10620004965750620004b6565b601f016020900490600052602060002090810190620004b691906200042a565b50565b508054600082556003016004900490600052602060002090810190620004b691906200042a565b8051620004ed8162000874565b92915050565b600082601f8301126200050557600080fd5b81516200051c6200051682620007d4565b620007ad565b81815260209384019390925082018360005b838110156200055e578151860162000547888262000637565b84525060209283019291909101906001016200052e565b5050505092915050565b600082601f8301126200057a57600080fd5b81516200058b6200051682620007d4565b91508181835260208401935060208101905083856020840282011115620005b157600080fd5b60005b838110156200055e5781620005ca888262000753565b8452506020928301929190910190600101620005b4565b600082601f830112620005f357600080fd5b8151620006046200051682620007f5565b915080825260208301602083018583830111156200062157600080fd5b6200062e83828462000841565b50505092915050565b600060e082840312156200064a57600080fd5b6200065660e0620007ad565b82519091506001600160401b038111156200067057600080fd5b6200067e84828501620005e1565b82525060206200069184848301620004e0565b60208301525060408201516001600160401b03811115620006b157600080fd5b620006bf84828501620005e1565b60408301525060608201516001600160401b03811115620006df57600080fd5b620006ed8482850162000568565b60608301525060808201516001600160401b038111156200070d57600080fd5b6200071b8482850162000568565b60808301525060a0620007318482850162000760565b60a08301525060c0620007478482850162000760565b60c08301525092915050565b8051620004ed816200088b565b8051620004ed8162000896565b6000602082840312156200078057600080fd5b81516001600160401b038111156200079757600080fd5b620007a584828501620004f3565b949350505050565b6040518181016001600160401b0381118282101715620007cc57600080fd5b604052919050565b60006001600160401b03821115620007eb57600080fd5b5060209081020190565b60006001600160401b038211156200080c57600080fd5b506020601f91909101601f19160190565b60006001600160a01b038216620004ed565b6001600160401b031690565b60ff1690565b60005b838110156200085e57818101518382015260200162000844565b838111156200086e576000848401525b50505050565b6200087f816200081d565b8114620004b657600080fd5b6200087f816200082f565b6200087f816200083b565b6120cc80620008b16000396000f3fe60806040526004361061004a5760003560e01c80633ac7f6101461004c578063b1a18cc71461005f578063d0ec27cf1461008a578063e0d64b37146100b7578063ffa1ad74146100e8575b005b61004a61005a366004611947565b61010a565b34801561006b57600080fd5b50610074610e1b565b6040516100819190611e5e565b60405180910390f35b34801561009657600080fd5b506100aa6100a53660046118cc565b6110eb565b6040516100819190611e6f565b3480156100c357600080fd5b506100d76100d23660046119df565b6111f4565b604051610081959493929190611eb6565b3480156100f457600080fd5b506100fd61135a565b6040516100819190611ea5565b600154604080518281526020808402820101909152606091801561014257816020015b606081526020019060019003908161012d5790505b50905060005b60015481101561019c578260405190808252806020026020018201604052801561017c578160200160208202803883390190505b5082828151811061018957fe5b6020908102919091010152600101610148565b5060005b83518160ff161015610e15576101b4611643565b60018260ff16815481106101c457fe5b6000918252602091829020604080516006939093029091018054600260018216156101009081026000190190921604601f81018690049095028401810190925260e08301848152929390928492909184918401828280156102665780601f1061023b57610100808354040283529160200191610266565b820191906000526020600020905b81548152906001019060200180831161024957829003601f168201915b50505091835250506001828101546001600160a01b0316602080840191909152600280850180546040805161010096831615969096026000190190911692909204601f810184900484028501840183528085529190940193918301828280156103105780601f106102e557610100808354040283529160200191610310565b820191906000526020600020905b8154815290600101906020018083116102f357829003601f168201915b505050505081526020016003820180548060200260200160405190810160405280929190818152602001828054801561039a57602002820191906000526020600020906000905b82829054906101000a90046001600160401b03166001600160401b0316815260200190600801906020826007010492830192600103820291508084116103575790505b505050505081526020016004820180548060200260200160405190810160405280929190818152602001828054801561042457602002820191906000526020600020906000905b82829054906101000a90046001600160401b03166001600160401b0316815260200190600801906020826007010492830192600103820291508084116103e15790505b50505091835250506005919091015460ff8082166020840152610100909104811660409092019190915286519192506060918791851690811061046357fe5b6020026020010151905060016001600160a01b031682602001516001600160a01b0316141561058c57600080828060200190516104a39190810190611892565b90925090506001600160a01b038216158015906104c05750600081115b15610549576040516323b872dd60e01b81526001600160a01b038316906323b872dd906104f590339030908690600401611e1b565b602060405180830381600087803b15801561050f57600080fd5b505af1158015610523573d6000803e3d6000fd5b505050506040513d601f19601f8201168201806040525061054791908101906119c1565b505b61058586856060015160008151811061055e57fe5b6020026020010151866080015160008151811061057757fe5b60200260200101518461137b565b5050610e0b565b60208201516001600160a01b03166002141561069c576000818060200190516105b891908101906119fd565b9050600061060d60646106018460ff16898960ff16815181106105d757fe5b60200260200101516000815181106105eb57fe5b602002602001015161145090919063ffffffff16565b9063ffffffff61149316565b905061062486856060015160008151811061055e57fe5b61058586856060015160018151811061063957fe5b6020026020010151866080015160018151811061065257fe5b6020026020010151610697858b8b60ff168151811061066d57fe5b602002602001015160008151811061068157fe5b60200260200101516114d590919063ffffffff16565b61137b565b60208201516001600160a01b031660031415610d6e576000818060200190516106c8919081019061186c565b90506000858560ff16815181106106db57fe5b60200260200101516000815181106106ef57fe5b602002602001015111156107365761073181868660ff168151811061071057fe5b602002602001015160008151811061072457fe5b6020026020010151611517565b610d68565b6000858560ff168151811061074757fe5b602002602001015160018151811061075b57fe5b6020026020010151111561082d57736b175474e89094c44da98b954eedeac495271d0f6001600160a01b031663a9059cbb82878760ff168151811061079c57fe5b60200260200101516001815181106107b057fe5b60200260200101516040518363ffffffff1660e01b81526004016107d5929190611e43565b602060405180830381600087803b1580156107ef57600080fd5b505af1158015610803573d6000803e3d6000fd5b505050506040513d601f19601f8201168201806040525061082791908101906119c1565b50610d68565b6000858560ff168151811061083e57fe5b602002602001015160028151811061085257fe5b602002602001015111156108a75773c02aaa39b223fe8d0a0e5c4f27ead9083c756cc26001600160a01b031663a9059cbb82878760ff168151811061089357fe5b60200260200101516002815181106107b057fe5b6000858560ff16815181106108b857fe5b60200260200101516003815181106108cc57fe5b602002602001015111156109215773a0b86991c6218b36c1d19d4a2e9eb0ce3606eb486001600160a01b031663a9059cbb82878760ff168151811061090d57fe5b60200260200101516003815181106107b057fe5b6000858560ff168151811061093257fe5b602002602001015160048151811061094657fe5b6020026020010151111561099b5773dac17f958d2ee523a2206206994597c13d831ec76001600160a01b031663a9059cbb82878760ff168151811061098757fe5b60200260200101516004815181106107b057fe5b6000858560ff16815181106109ac57fe5b60200260200101516005815181106109c057fe5b60200260200101511115610a15577357ab1ec28d129707052df4df418d58a2d46d5f516001600160a01b031663a9059cbb82878760ff1681518110610a0157fe5b60200260200101516005815181106107b057fe5b6000858560ff1681518110610a2657fe5b6020026020010151600681518110610a3a57fe5b60200260200101511115610a8f57732260fac5e5542a773aa44fbcfedf7c193bc2c5996001600160a01b031663a9059cbb82878760ff1681518110610a7b57fe5b60200260200101516006815181106107b057fe5b6000858560ff1681518110610aa057fe5b6020026020010151600781518110610ab457fe5b60200260200101511115610b0957731985365e9f78359a9b6ad760e32412f4a445e8626001600160a01b031663a9059cbb82878760ff1681518110610af557fe5b60200260200101516007815181106107b057fe5b6000858560ff1681518110610b1a57fe5b6020026020010151600881518110610b2e57fe5b60200260200101511115610b8357735d3a536e4d6dbd6114cc1ead35777bab948e36436001600160a01b031663a9059cbb82878760ff1681518110610b6f57fe5b60200260200101516008815181106107b057fe5b6000858560ff1681518110610b9457fe5b6020026020010151600981518110610ba857fe5b60200260200101511115610bfd577339aa39c021dfbae8fac545936693ac917d5e75636001600160a01b031663a9059cbb82878760ff1681518110610be957fe5b60200260200101516009815181106107b057fe5b6000858560ff1681518110610c0e57fe5b6020026020010151600a81518110610c2257fe5b60200260200101511115610c775773c11b1268c1a384e55c48c2391d8d480264a3a7f46001600160a01b031663a9059cbb82878760ff1681518110610c6357fe5b6020026020010151600a815181106107b057fe5b6000858560ff1681518110610c8857fe5b6020026020010151600b81518110610c9c57fe5b60200260200101511115610d6857734ddc2d193948926d02f9b1fe9e1daa0718270ed56001600160a01b031663a9059cbb82878760ff1681518110610cdd57fe5b6020026020010151600b81518110610cf157fe5b60200260200101516040518363ffffffff1660e01b8152600401610d16929190611e43565b602060405180830381600087803b158015610d3057600080fd5b505af1158015610d44573d6000803e3d6000fd5b505050506040513d601f19601f8201168201806040525061058591908101906119c1565b50610e0b565b6060610d958360200151868660ff1681518110610d8757fe5b6020026020010151846110eb565b905060005b8360600151518160ff161015610e0857610e008685606001518360ff1681518110610dc157fe5b602002602001015186608001518460ff1681518110610ddc57fe5b6020026020010151858560ff1681518110610df357fe5b602002602001015161137b565b600101610d9a565b50505b50506001016101a0565b50505050565b60606001805480602002602001604051908101604052809291908181526020016000905b828210156110e257600084815260209081902060408051600686029092018054600260018216156101009081026000190190921604601f81018690049095028401810190925260e0830184815292939092849290918491840182828015610ee75780601f10610ebc57610100808354040283529160200191610ee7565b820191906000526020600020905b815481529060010190602001808311610eca57829003601f168201915b50505091835250506001828101546001600160a01b0316602080840191909152600280850180546040805161010096831615969096026000190190911692909204601f81018490048402850184018352808552919094019391830182828015610f915780601f10610f6657610100808354040283529160200191610f91565b820191906000526020600020905b815481529060010190602001808311610f7457829003601f168201915b505050505081526020016003820180548060200260200160405190810160405280929190818152602001828054801561101b57602002820191906000526020600020906000905b82829054906101000a90046001600160401b03166001600160401b031681526020019060080190602082600701049283019260010382029150808411610fd85790505b50505050508152602001600482018054806020026020016040519081016040528092919081815260200182805480156110a557602002820191906000526020600020906000905b82829054906101000a90046001600160401b03166001600160401b0316815260200190600801906020826007010492830192600103820291508084116110625790505b50505091835250506005919091015460ff808216602080850191909152610100909204166040909201919091529082526001929092019101610e3f565b50505050905090565b6060806040516110fa90611e05565b60405180910390208484604051602401611115929190611e80565b604051602081830303815290604052906001600160e01b0319166020820180516001600160e01b038381831617835250505050905060006060866001600160a01b0316836040516111669190611df9565b600060405180830381855af49150503d80600081146111a1576040519150601f19603f3d011682016040523d82523d6000602084013e6111a6565b606091505b50915091508181906111d45760405162461bcd60e51b81526004016111cb9190611ea5565b60405180910390fd5b50808060200190516111e9919081019061198d565b979650505050505050565b6001818154811061120157fe5b60009182526020918290206006919091020180546040805160026001841615610100026000190190931692909204601f81018590048502830185019091528082529193509183919083018282801561129a5780601f1061126f5761010080835404028352916020019161129a565b820191906000526020600020905b81548152906001019060200180831161127d57829003601f168201915b505050506001838101546002808601805460408051602061010097841615979097026000190190921693909304601f810186900486028201860190935282815295966001600160a01b0390931695929450919283018282801561133e5780601f106113135761010080835404028352916020019161133e565b820191906000526020600020905b81548152906001019060200180831161132157829003601f168201915b5050506005909301549192505060ff8082169161010090041685565b604051806040016040528060058152602001640312e302e360dc1b81525081565b83836001600160401b03168151811061139057fe5b6020026020010151826001600160401b0316815181106113ac57fe5b602002602001015160001461140b576114068185856001600160401b0316815181106113d457fe5b6020026020010151846001600160401b0316815181106113f057fe5b60200260200101516115b990919063ffffffff16565b61140d565b805b84846001600160401b03168151811061142257fe5b6020026020010151836001600160401b03168151811061143e57fe5b60200260200101818152505050505050565b60008261145f5750600061148d565b8282028284828161146c57fe5b041461148a5760405162461bcd60e51b81526004016111cb90611f3e565b90505b92915050565b600061148a83836040518060400160405280601a81526020017f536166654d6174683a206469766973696f6e206279207a65726f0000000000008152506115de565b600061148a83836040518060400160405280601e81526020017f536166654d6174683a207375627472616374696f6e206f766572666c6f770000815250611617565b30318111156115385760405162461bcd60e51b81526004016111cb90611f2e565b6000826001600160a01b03168260405161155190611e10565b60006040518083038185875af1925050503d806000811461158e576040519150601f19603f3d011682016040523d82523d6000602084013e611593565b606091505b50509050806115b45760405162461bcd60e51b81526004016111cb90611f1e565b505050565b60008282018381101561148a5760405162461bcd60e51b81526004016111cb90611f0e565b600081836115ff5760405162461bcd60e51b81526004016111cb9190611ea5565b50600083858161160b57fe5b049150505b9392505050565b6000818484111561163b5760405162461bcd60e51b81526004016111cb9190611ea5565b505050900390565b6040518060e001604052806060815260200160006001600160a01b03168152602001606081526020016060815260200160608152602001600060ff168152602001600060ff1681525090565b803561148d81612057565b805161148d81612057565b600082601f8301126116b657600080fd5b81356116c96116c482611f74565b611f4e565b81815260209384019390925082018360005b8381101561170757813586016116f188826117fc565b84525060209283019291909101906001016116db565b5050505092915050565b600082601f83011261172257600080fd5b81516117306116c482611f74565b9150818183526020840193506020810190508385602084028201111561175557600080fd5b60005b83811015611707578161176b8882611856565b8452506020928301929190910190600101611758565b600082601f83011261179257600080fd5b81356117a06116c482611f74565b915081818352602084019350602081019050838560208402820111156117c557600080fd5b60005b8381101561170757816117db888261184b565b84525060209283019291909101906001016117c8565b805161148d8161206e565b600082601f83011261180d57600080fd5b813561181b6116c482611f94565b9150808252602083016020830185838301111561183757600080fd5b611842838284612015565b50505092915050565b803561148d81612077565b805161148d81612077565b805161148d81612080565b60006020828403121561187e57600080fd5b600061188a848461169a565b949350505050565b600080604083850312156118a557600080fd5b60006118b1858561169a565b92505060206118c285828601611856565b9150509250929050565b6000806000606084860312156118e157600080fd5b60006118ed868661168f565b93505060208401356001600160401b0381111561190957600080fd5b61191586828701611781565b92505060408401356001600160401b0381111561193157600080fd5b61193d868287016117fc565b9150509250925092565b6000806040838503121561195a57600080fd5b82356001600160401b0381111561197057600080fd5b61197c858286016116a5565b92505060206118c28582860161184b565b60006020828403121561199f57600080fd5b81516001600160401b038111156119b557600080fd5b61188a84828501611711565b6000602082840312156119d357600080fd5b600061188a84846117f1565b6000602082840312156119f157600080fd5b600061188a848461184b565b600060208284031215611a0f57600080fd5b600061188a8484611861565b600061148a8383611d35565b6000611a338383611dde565b505060200190565b6000611a338383611de7565b611a5081612004565b82525050565b611a5081611fd3565b6000611a6a82611fc1565b611a748185611fc5565b935083602082028501611a8685611fbb565b8060005b85811015611ac05784840389528151611aa38582611a1b565b9450611aae83611fbb565b60209a909a0199925050600101611a8a565b5091979650505050505050565b6000611ad882611fc1565b611ae28185611fc5565b9350611aed83611fbb565b8060005b83811015611b1b578151611b058882611a27565b9750611b1083611fbb565b925050600101611af1565b509495945050505050565b6000611b3182611fc1565b611b3b8185611fc5565b9350611b4683611fbb565b8060005b83811015611b1b578151611b5e8882611a3b565b9750611b6983611fbb565b925050600101611b4a565b6000611b7f82611fc1565b611b898185611fc5565b9350611b99818560208601612021565b611ba28161204d565b9093019392505050565b6000611bb782611fc1565b611bc18185611fce565b9350611bd1818560208601612021565b9290920192915050565b6000611be8601b83611fc5565b7f536166654d6174683a206164646974696f6e206f766572666c6f770000000000815260200192915050565b6000611c21603a83611fc5565b7f416464726573733a20756e61626c6520746f2073656e642076616c75652c207281527f6563697069656e74206d61792068617665207265766572746564000000000000602082015260400192915050565b6000611c80601d83611fc5565b7f416464726573733a20696e73756666696369656e742062616c616e6365000000815260200192915050565b6000611cb9602183611fc5565b7f536166654d6174683a206d756c7469706c69636174696f6e206f766572666c6f8152607760f81b602082015260400192915050565b6000611cfc601883611fce565b7f6f7065726174652875696e743235365b5d2c6279746573290000000000000000815260180192915050565b600061148d600083611fce565b805160e080845260009190840190611d4d8282611b74565b9150506020830151611d626020860182611a56565b5060408301518482036040860152611d7a8282611b74565b91505060608301518482036060860152611d948282611b26565b91505060808301518482036080860152611dae8282611b26565b91505060a0830151611dc360a0860182611df0565b5060c0830151611dd660c0860182611df0565b509392505050565b611a5081611fef565b611a5081611ff2565b611a5081611ffe565b60006116108284611bac565b600061148d82611cef565b600061148d82611d28565b60608101611e298286611a47565b611e366020830185611a47565b61188a6040830184611dde565b60408101611e518285611a47565b6116106020830184611dde565b6020808252810161148a8184611a5f565b6020808252810161148a8184611acd565b60408082528101611e918185611acd565b9050818103602083015261188a8184611b74565b6020808252810161148a8184611b74565b60a08082528101611ec78188611b74565b9050611ed66020830187611a56565b8181036040830152611ee88186611b74565b9050611ef76060830185611df0565b611f046080830184611df0565b9695505050505050565b6020808252810161148d81611bdb565b6020808252810161148d81611c14565b6020808252810161148d81611c73565b6020808252810161148d81611cac565b6040518181016001600160401b0381118282101715611f6c57600080fd5b604052919050565b60006001600160401b03821115611f8a57600080fd5b5060209081020190565b60006001600160401b03821115611faa57600080fd5b506020601f91909101601f19160190565b60200190565b5190565b90815260200190565b919050565b600061148d82611fe3565b151590565b6001600160a01b031690565b90565b6001600160401b031690565b60ff1690565b600061148d82600061148d82611fd3565b82818337506000910152565b60005b8381101561203c578181015183820152602001612024565b83811115610e155750506000910152565b601f01601f191690565b61206081611fd3565b811461206b57600080fd5b50565b61206081611fde565b61206081611fef565b61206081611ffe56fea365627a7a7231582079ea84f2c592ee657d86a749ef81783633e96aa69306b8b62d7691470fc292626c6578706572696d656e74616cf564736f6c63430005110040",
  "compiler": {
    "name": "solc",
    "version": "0.5.17+commit.d19bba13.Emscripten.clang",
    "optimizer": {
      "enabled": true,
      "runs": 200
    },
    "evmVersion": "petersburg"
  }
}