{
  "fileName": "Graph.sol",
  "contractName": "Graph",
  "source": "pragma solidity ^0.5.0;\npragma experimental ABIEncoderV2;\n\nimport \"@openzeppelin/contracts-ethereum-package/contracts/math/SafeMath.sol\";\nimport \"@openzeppelin/contracts-ethereum-package/contracts/utils/Address.sol\";\nimport \"@openzeppelin/contracts-ethereum-package/contracts/token/ERC20/IERC20.sol\";\nimport \"./GraphBase.sol\";\nimport \"./operations/OperationExecutor.sol\";\n\n\ncontract Graph is GraphBase, OperationExecutor {\n    string public constant VERSION = \"1.0.0\";\n\n    using SafeMath for uint256;\n\n    constructor(GraphBase.Element[] memory _elements) public {\n        for (uint256 i; i < _elements.length; i++) {\n            elements.length++;\n            elements[i] = Element({\n                hash: _elements[i].hash,\n                addr: _elements[i].addr,\n                params: _elements[i].params,\n                outputsIndexes: _elements[i].outputsIndexes,\n                outputsInputIndexes: _elements[i].outputsInputIndexes,\n                x: _elements[i].x,\n                y: _elements[i].y\n            });\n        }\n    }\n\n    /**\n     * Fallback function accepts Ether transactions.\n     */\n    function() external payable {}\n\n    /**\n     * Execute many operations.\n     * @param _paramsList params for each element to execute\n     * @param _maxElementInputs max inputs an element has\n     */\n    function execute(bytes[] memory _paramsList, uint256 _maxElementInputs)\n        public\n        payable\n    {\n        uint256[][] memory inputs = new uint256[][](elements.length);\n        for (uint256 i; i < elements.length; i++) {\n            inputs[i] = new uint256[](_maxElementInputs);\n        }\n        for (uint8 i = 0; i < _paramsList.length; i++) {\n            GraphBase.Element memory element = elements[i];\n            bytes memory params = _paramsList[i];\n            if (element.addr == address(1)) {\n                //InputElement\n                (address asset, uint256 amount) = abi.decode(\n                    params,\n                    (address, uint256)\n                );\n                if (asset != address(0)) {\n                    //No transferFrom for ethers\n                    IERC20(asset).transferFrom(\n                        msg.sender,\n                        address(this),\n                        amount\n                    );\n                }\n                //Input element has one output\n                inputs[element.outputsIndexes[0]][element\n                    .outputsInputIndexes[0]]\n                    .add(amount);\n            } else if (element.addr == address(2)) {\n                //SplitterElement\n                uint8 percentage = abi.decode(params, (uint8));\n                uint256 firstShare = inputs[i][0].mul(percentage).div(100);\n                //Spliiter element has one output\n                inputs[element.outputsIndexes[0]][element\n                    .outputsInputIndexes[0]]\n                    .add(firstShare);\n                inputs[element.outputsIndexes[1]][element\n                    .outputsInputIndexes[1]]\n                    .add(inputs[i][0])\n                    .sub(firstShare);\n            } else if (element.addr == address(3)) {\n                //AddressElement\n                address addr = abi.decode(params, (address));\n                if (inputs[i][0] > 0) {\n                    //ETH\n                    Address.sendValue(msg.sender, inputs[i][0]);\n                } else if (inputs[i][1] > 0) {\n                    //DAI\n                    IERC20(0x6B175474E89094C44Da98b954EedeAC495271d0F).transfer(\n                        msg.sender,\n                        inputs[i][1]\n                    );\n                } else if (inputs[i][2] > 0) {\n                    // WETH\n                    IERC20(0xC02aaA39b223FE8D0A0e5C4F27eAD9083C756Cc2).transfer(\n                        msg.sender,\n                        inputs[i][2]\n                    );\n                } else if (inputs[i][3] > 0) {\n                    //USDC\n                    IERC20(0xA0b86991c6218b36c1d19D4a2e9Eb0cE3606eB48).transfer(\n                        msg.sender,\n                        inputs[i][3]\n                    );\n                } else if (inputs[i][4] > 0) {\n                    //USDT\n                    IERC20(0xdAC17F958D2ee523a2206206994597C13D831ec7).transfer(\n                        msg.sender,\n                        inputs[i][4]\n                    );\n                } else if (inputs[i][5] > 0) {\n                    //SUSD\n                    IERC20(0x57Ab1ec28D129707052df4dF418D58a2D46d5f51).transfer(\n                        msg.sender,\n                        inputs[i][5]\n                    );\n                } else if (inputs[i][6] > 0) {\n                    //WBTC\n                    IERC20(0x2260FAC5E5542a773Aa44fBCfeDf7C193bc2C599).transfer(\n                        msg.sender,\n                        inputs[i][6]\n                    );\n                } else if (inputs[i][7] > 0) {\n                    //REP\n                    IERC20(0x1985365e9f78359a9B6AD760e32412f4a445E862).transfer(\n                        msg.sender,\n                        inputs[i][7]\n                    );\n                } else if (inputs[i][8] > 0) {\n                    //CDAI\n                    IERC20(0x5d3a536E4D6DbD6114cc1Ead35777bAB948E3643).transfer(\n                        msg.sender,\n                        inputs[i][8]\n                    );\n                } else if (inputs[i][9] > 0) {\n                    //CUSDC\n                    IERC20(0x39AA39c021dfbaE8faC545936693aC917d5E7563).transfer(\n                        msg.sender,\n                        inputs[i][9]\n                    );\n                } else if (inputs[i][10] > 0) {\n                    //CWBTC\n                    IERC20(0xC11b1268C1A384e55C48c2391d8d480264A3A7F4).transfer(\n                        msg.sender,\n                        inputs[i][10]\n                    );\n                } else if (inputs[i][11] > 0) {\n                    //CETH\n                    IERC20(0x4Ddc2D193948926D02f9B1fE9e1daa0718270ED5).transfer(\n                        msg.sender,\n                        inputs[i][11]\n                    );\n                }\n            } else {\n                uint256[] memory outAmounts = executeOperation(\n                    element.addr,\n                    inputs[i],\n                    element.params\n                );\n                //Redirect\n                for (uint8 j = 0; j < element.outputsIndexes.length; j++) {\n                    inputs[element.outputsIndexes[j]][element\n                        .outputsInputIndexes[j]]\n                        .add(outAmounts[j]);\n                }\n            }\n        }\n    }\n\n    function getElements() public view returns (GraphBase.Element[] memory) {\n        return elements;\n    }\n}\n",
  "sourcePath": "contracts/Graph.sol",
  "abi": [
    {
      "inputs": [
        {
          "components": [
            {
              "internalType": "string",
              "name": "hash",
              "type": "string"
            },
            {
              "internalType": "address",
              "name": "addr",
              "type": "address"
            },
            {
              "internalType": "bytes",
              "name": "params",
              "type": "bytes"
            },
            {
              "internalType": "uint64[]",
              "name": "outputsIndexes",
              "type": "uint64[]"
            },
            {
              "internalType": "uint64[]",
              "name": "outputsInputIndexes",
              "type": "uint64[]"
            },
            {
              "internalType": "uint8",
              "name": "x",
              "type": "uint8"
            },
            {
              "internalType": "uint8",
              "name": "y",
              "type": "uint8"
            }
          ],
          "internalType": "struct GraphBase.Element[]",
          "name": "_elements",
          "type": "tuple[]"
        }
      ],
      "payable": false,
      "stateMutability": "nonpayable",
      "type": "constructor"
    },
    {
      "payable": true,
      "stateMutability": "payable",
      "type": "fallback"
    },
    {
      "constant": true,
      "inputs": [],
      "name": "VERSION",
      "outputs": [
        {
          "internalType": "string",
          "name": "",
          "type": "string"
        }
      ],
      "payable": false,
      "stateMutability": "view",
      "type": "function"
    },
    {
      "constant": true,
      "inputs": [
        {
          "internalType": "uint256",
          "name": "",
          "type": "uint256"
        }
      ],
      "name": "elements",
      "outputs": [
        {
          "internalType": "string",
          "name": "hash",
          "type": "string"
        },
        {
          "internalType": "address",
          "name": "addr",
          "type": "address"
        },
        {
          "internalType": "bytes",
          "name": "params",
          "type": "bytes"
        },
        {
          "internalType": "uint8",
          "name": "x",
          "type": "uint8"
        },
        {
          "internalType": "uint8",
          "name": "y",
          "type": "uint8"
        }
      ],
      "payable": false,
      "stateMutability": "view",
      "type": "function"
    },
    {
      "constant": false,
      "inputs": [
        {
          "internalType": "bytes[]",
          "name": "_paramsList",
          "type": "bytes[]"
        },
        {
          "internalType": "uint256",
          "name": "_maxElementInputs",
          "type": "uint256"
        }
      ],
      "name": "execute",
      "outputs": [],
      "payable": true,
      "stateMutability": "payable",
      "type": "function"
    },
    {
      "constant": false,
      "inputs": [
        {
          "internalType": "address",
          "name": "_operation",
          "type": "address"
        },
        {
          "internalType": "uint256[]",
          "name": "_inAmounts",
          "type": "uint256[]"
        },
        {
          "internalType": "bytes",
          "name": "_params",
          "type": "bytes"
        }
      ],
      "name": "executeOperation",
      "outputs": [
        {
          "internalType": "uint256[]",
          "name": "",
          "type": "uint256[]"
        }
      ],
      "payable": false,
      "stateMutability": "nonpayable",
      "type": "function"
    },
    {
      "constant": false,
      "inputs": [
        {
          "components": [
            {
              "internalType": "address",
              "name": "addr",
              "type": "address"
            },
            {
              "internalType": "uint256[]",
              "name": "inAmounts",
              "type": "uint256[]"
            },
            {
              "internalType": "bytes",
              "name": "params",
              "type": "bytes"
            }
          ],
          "internalType": "struct OperationExecutor.Operation[]",
          "name": "_operations",
          "type": "tuple[]"
        }
      ],
      "name": "executeOperations",
      "outputs": [],
      "payable": false,
      "stateMutability": "nonpayable",
      "type": "function"
    },
    {
      "constant": true,
      "inputs": [],
      "name": "getElements",
      "outputs": [
        {
          "components": [
            {
              "internalType": "string",
              "name": "hash",
              "type": "string"
            },
            {
              "internalType": "address",
              "name": "addr",
              "type": "address"
            },
            {
              "internalType": "bytes",
              "name": "params",
              "type": "bytes"
            },
            {
              "internalType": "uint64[]",
              "name": "outputsIndexes",
              "type": "uint64[]"
            },
            {
              "internalType": "uint64[]",
              "name": "outputsInputIndexes",
              "type": "uint64[]"
            },
            {
              "internalType": "uint8",
              "name": "x",
              "type": "uint8"
            },
            {
              "internalType": "uint8",
              "name": "y",
              "type": "uint8"
            }
          ],
          "internalType": "struct GraphBase.Element[]",
          "name": "",
          "type": "tuple[]"
        }
      ],
      "payable": false,
      "stateMutability": "view",
      "type": "function"
    }
  ],
  "bytecode": "0x60806040523480156200001157600080fd5b5060405162002b2738038062002b2783398101604081905262000034916200076d565b60005b81518110156200023457600180549062000054908281016200023c565b506040518060e001604052808383815181106200006d57fe5b60200260200101516000015181526020018383815181106200008b57fe5b6020026020010151602001516001600160a01b03168152602001838381518110620000b257fe5b6020026020010151604001518152602001838381518110620000d057fe5b6020026020010151606001518152602001838381518110620000ee57fe5b60200260200101516080015181526020018383815181106200010c57fe5b602002602001015160a0015160ff1681526020018383815181106200012d57fe5b602002602001015160c0015160ff16815250600182815481106200014d57fe5b906000526020600020906006020160008201518160000190805190602001906200017992919062000270565b506020828101516001830180546001600160a01b0319166001600160a01b0390921691909117905560408301518051620001ba926002850192019062000270565b5060608201518051620001d8916003840191602090910190620002f5565b5060808201518051620001f6916004840191602090910190620002f5565b5060a08201516005909101805460c09093015160ff9081166101000261ff00199190931660ff19909416939093179290921617905560010162000037565b5050620008a1565b8154818355818111156200026b576006028160060283600052602060002091820191016200026b9190620003b0565b505050565b828054600181600116156101000203166002900490600052602060002090601f016020900481019282601f10620002b357805160ff1916838001178555620002e3565b82800160010185558215620002e3579182015b82811115620002e3578251825591602001919060010190620002c6565b50620002f19291506200042a565b5090565b82805482825590600052602060002090600301600490048101928215620003a25791602002820160005b838211156200036b57835183826101000a8154816001600160401b0302191690836001600160401b0316021790555092602001926008016020816007010492830192600103026200031f565b8015620003a05782816101000a8154906001600160401b0302191690556008016020816007010492830192600103026200036b565b505b50620002f192915062000447565b6200042791905b80821115620002f1576000620003ce82826200046e565b6001820180546001600160a01b0319169055620003f06002830160006200046e565b62000400600383016000620004b9565b62000410600483016000620004b9565b5060058101805461ffff19169055600601620003b7565b90565b6200042791905b80821115620002f1576000815560010162000431565b6200042791905b80821115620002f15780546001600160401b03191681556001016200044e565b50805460018160011615610100020316600290046000825580601f10620004965750620004b6565b601f016020900490600052602060002090810190620004b691906200042a565b50565b508054600082556003016004900490600052602060002090810190620004b691906200042a565b8051620004ed8162000874565b92915050565b600082601f8301126200050557600080fd5b81516200051c6200051682620007d4565b620007ad565b81815260209384019390925082018360005b838110156200055e578151860162000547888262000637565b84525060209283019291909101906001016200052e565b5050505092915050565b600082601f8301126200057a57600080fd5b81516200058b6200051682620007d4565b91508181835260208401935060208101905083856020840282011115620005b157600080fd5b60005b838110156200055e5781620005ca888262000753565b8452506020928301929190910190600101620005b4565b600082601f830112620005f357600080fd5b8151620006046200051682620007f5565b915080825260208301602083018583830111156200062157600080fd5b6200062e83828462000841565b50505092915050565b600060e082840312156200064a57600080fd5b6200065660e0620007ad565b82519091506001600160401b038111156200067057600080fd5b6200067e84828501620005e1565b82525060206200069184848301620004e0565b60208301525060408201516001600160401b03811115620006b157600080fd5b620006bf84828501620005e1565b60408301525060608201516001600160401b03811115620006df57600080fd5b620006ed8482850162000568565b60608301525060808201516001600160401b038111156200070d57600080fd5b6200071b8482850162000568565b60808301525060a0620007318482850162000760565b60a08301525060c0620007478482850162000760565b60c08301525092915050565b8051620004ed816200088b565b8051620004ed8162000896565b6000602082840312156200078057600080fd5b81516001600160401b038111156200079757600080fd5b620007a584828501620004f3565b949350505050565b6040518181016001600160401b0381118282101715620007cc57600080fd5b604052919050565b60006001600160401b03821115620007eb57600080fd5b5060209081020190565b60006001600160401b038211156200080c57600080fd5b506020601f91909101601f19160190565b60006001600160a01b038216620004ed565b6001600160401b031690565b60ff1690565b60005b838110156200085e57818101518382015260200162000844565b838111156200086e576000848401525b50505050565b6200087f816200081d565b8114620004b657600080fd5b6200087f816200082f565b6200087f816200083b565b61227680620008b16000396000f3fe6080604052600436106100555760003560e01c80632aa0004d146100575780633ac7f61014610077578063b1a18cc71461008a578063d0ec27cf146100b5578063e0d64b37146100e2578063ffa1ad7414610113575b005b34801561006357600080fd5b50610055610072366004611b03565b610135565b610055610085366004611abd565b6101aa565b34801561009657600080fd5b5061009f610f10565b6040516100ac9190612008565b60405180910390f35b3480156100c157600080fd5b506100d56100d0366004611a42565b6111e0565b6040516100ac9190612019565b3480156100ee57600080fd5b506101026100fd366004611b89565b6112eb565b6040516100ac959493929190612060565b34801561011f57600080fd5b50610128611451565b6040516100ac919061204f565b60005b81518160ff1610156101a65761019d828260ff168151811061015657fe5b602002602001015160000151838360ff168151811061017157fe5b602002602001015160200151848460ff168151811061018c57fe5b6020026020010151604001516111e0565b50600101610138565b5050565b60015460408051828152602080840282010190915260609180156101e257816020015b60608152602001906001900390816101cd5790505b50905060005b60015481101561023c578260405190808252806020026020018201604052801561021c578160200160208202803883390190505b5082828151811061022957fe5b60209081029190910101526001016101e8565b5060005b83518160ff161015610f0a57610254611663565b60018260ff168154811061026457fe5b6000918252602091829020604080516006939093029091018054600260018216156101009081026000190190921604601f81018690049095028401810190925260e08301848152929390928492909184918401828280156103065780601f106102db57610100808354040283529160200191610306565b820191906000526020600020905b8154815290600101906020018083116102e957829003601f168201915b50505091835250506001828101546001600160a01b0316602080840191909152600280850180546040805161010096831615969096026000190190911692909204601f810184900484028501840183528085529190940193918301828280156103b05780601f10610385576101008083540402835291602001916103b0565b820191906000526020600020905b81548152906001019060200180831161039357829003601f168201915b505050505081526020016003820180548060200260200160405190810160405280929190818152602001828054801561043a57602002820191906000526020600020906000905b82829054906101000a90046001600160401b03166001600160401b0316815260200190600801906020826007010492830192600103820291508084116103f75790505b50505050508152602001600482018054806020026020016040519081016040528092919081815260200182805480156104c457602002820191906000526020600020906000905b82829054906101000a90046001600160401b03166001600160401b0316815260200190600801906020826007010492830192600103820291508084116104815790505b50505091835250506005919091015460ff8082166020840152610100909104811660409092019190915286519192506060918791851690811061050357fe5b6020026020010151905060016001600160a01b031682602001516001600160a01b0316141561065e57600080828060200190516105439190810190611a08565b90925090506001600160a01b038216156105db576040516323b872dd60e01b81526001600160a01b038316906323b872dd9061058790339030908690600401611fc5565b602060405180830381600087803b1580156105a157600080fd5b505af11580156105b5573d6000803e3d6000fd5b505050506040513d601f19601f820116820180604052506105d99190810190611b6b565b505b610656818786606001516000815181106105f157fe5b60200260200101516001600160401b03168151811061060c57fe5b6020026020010151866080015160008151811061062557fe5b60200260200101516001600160401b03168151811061064057fe5b602002602001015161147290919063ffffffff16565b505050610f00565b60208201516001600160a01b03166002141561077c5760008180602001905161068a9190810190611ba7565b905060006106df60646106d38460ff16898960ff16815181106106a957fe5b60200260200101516000815181106106bd57fe5b60200260200101516114a090919063ffffffff16565b9063ffffffff6114da16565b90506106f7818786606001516000815181106105f157fe5b5061065681610770888860ff168151811061070e57fe5b602002602001015160008151811061072257fe5b602002602001015189886060015160018151811061073c57fe5b60200260200101516001600160401b03168151811061075757fe5b6020026020010151886080015160018151811061062557fe5b9063ffffffff61151c16565b60208201516001600160a01b031660031415610e50576000818060200190516107a891908101906119e2565b90506000858560ff16815181106107bb57fe5b60200260200101516000815181106107cf57fe5b602002602001015111156108165761081133868660ff16815181106107f057fe5b602002602001015160008151811061080457fe5b602002602001015161155e565b610e4a565b6000858560ff168151811061082757fe5b602002602001015160018151811061083b57fe5b6020026020010151111561090d57736b175474e89094c44da98b954eedeac495271d0f6001600160a01b031663a9059cbb33878760ff168151811061087c57fe5b602002602001015160018151811061089057fe5b60200260200101516040518363ffffffff1660e01b81526004016108b5929190611fed565b602060405180830381600087803b1580156108cf57600080fd5b505af11580156108e3573d6000803e3d6000fd5b505050506040513d601f19601f820116820180604052506109079190810190611b6b565b50610e4a565b6000858560ff168151811061091e57fe5b602002602001015160028151811061093257fe5b602002602001015111156109875773c02aaa39b223fe8d0a0e5c4f27ead9083c756cc26001600160a01b031663a9059cbb33878760ff168151811061097357fe5b602002602001015160028151811061089057fe5b6000858560ff168151811061099857fe5b60200260200101516003815181106109ac57fe5b60200260200101511115610a015773a0b86991c6218b36c1d19d4a2e9eb0ce3606eb486001600160a01b031663a9059cbb33878760ff16815181106109ed57fe5b602002602001015160038151811061089057fe5b6000858560ff1681518110610a1257fe5b6020026020010151600481518110610a2657fe5b60200260200101511115610a7b5773dac17f958d2ee523a2206206994597c13d831ec76001600160a01b031663a9059cbb33878760ff1681518110610a6757fe5b602002602001015160048151811061089057fe5b6000858560ff1681518110610a8c57fe5b6020026020010151600581518110610aa057fe5b60200260200101511115610af5577357ab1ec28d129707052df4df418d58a2d46d5f516001600160a01b031663a9059cbb33878760ff1681518110610ae157fe5b602002602001015160058151811061089057fe5b6000858560ff1681518110610b0657fe5b6020026020010151600681518110610b1a57fe5b60200260200101511115610b6f57732260fac5e5542a773aa44fbcfedf7c193bc2c5996001600160a01b031663a9059cbb33878760ff1681518110610b5b57fe5b602002602001015160068151811061089057fe5b6000858560ff1681518110610b8057fe5b6020026020010151600781518110610b9457fe5b60200260200101511115610be957731985365e9f78359a9b6ad760e32412f4a445e8626001600160a01b031663a9059cbb33878760ff1681518110610bd557fe5b602002602001015160078151811061089057fe5b6000858560ff1681518110610bfa57fe5b6020026020010151600881518110610c0e57fe5b60200260200101511115610c6357735d3a536e4d6dbd6114cc1ead35777bab948e36436001600160a01b031663a9059cbb33878760ff1681518110610c4f57fe5b602002602001015160088151811061089057fe5b6000858560ff1681518110610c7457fe5b6020026020010151600981518110610c8857fe5b60200260200101511115610cdd577339aa39c021dfbae8fac545936693ac917d5e75636001600160a01b031663a9059cbb33878760ff1681518110610cc957fe5b602002602001015160098151811061089057fe5b6000858560ff1681518110610cee57fe5b6020026020010151600a81518110610d0257fe5b60200260200101511115610d575773c11b1268c1a384e55c48c2391d8d480264a3a7f46001600160a01b031663a9059cbb33878760ff1681518110610d4357fe5b6020026020010151600a8151811061089057fe5b6000858560ff1681518110610d6857fe5b6020026020010151600b81518110610d7c57fe5b60200260200101511115610e4a57734ddc2d193948926d02f9b1fe9e1daa0718270ed56001600160a01b031663a9059cbb33878760ff1681518110610dbd57fe5b6020026020010151600b81518110610dd157fe5b60200260200101516040518363ffffffff1660e01b8152600401610df6929190611fed565b602060405180830381600087803b158015610e1057600080fd5b505af1158015610e24573d6000803e3d6000fd5b505050506040513d601f19601f82011682018060405250610e489190810190611b6b565b505b50610f00565b6060610e7b8360200151868660ff1681518110610e6957fe5b602002602001015185604001516111e0565b905060005b8360600151518160ff161015610efd57610ef4828260ff1681518110610ea257fe5b60200260200101518786606001518460ff1681518110610ebe57fe5b60200260200101516001600160401b031681518110610ed957fe5b602002602001015186608001518460ff168151811061062557fe5b50600101610e80565b50505b5050600101610240565b50505050565b60606001805480602002602001604051908101604052809291908181526020016000905b828210156111d757600084815260209081902060408051600686029092018054600260018216156101009081026000190190921604601f81018690049095028401810190925260e0830184815292939092849290918491840182828015610fdc5780601f10610fb157610100808354040283529160200191610fdc565b820191906000526020600020905b815481529060010190602001808311610fbf57829003601f168201915b50505091835250506001828101546001600160a01b0316602080840191909152600280850180546040805161010096831615969096026000190190911692909204601f810184900484028501840183528085529190940193918301828280156110865780601f1061105b57610100808354040283529160200191611086565b820191906000526020600020905b81548152906001019060200180831161106957829003601f168201915b505050505081526020016003820180548060200260200160405190810160405280929190818152602001828054801561111057602002820191906000526020600020906000905b82829054906101000a90046001600160401b03166001600160401b0316815260200190600801906020826007010492830192600103820291508084116110cd5790505b505050505081526020016004820180548060200260200160405190810160405280929190818152602001828054801561119a57602002820191906000526020600020906000905b82829054906101000a90046001600160401b03166001600160401b0316815260200190600801906020826007010492830192600103820291508084116111575790505b50505091835250506005919091015460ff808216602080850191909152610100909204166040909201919091529082526001929092019101610f34565b50505050905090565b6060806040516111ef90611faf565b6040518091039020848460405160240161120a92919061202a565b604051602081830303815290604052906001600160e01b0319166020820180516001600160e01b038381831617835250505050905060006060866001600160a01b03168360405161125b9190611fa3565b600060405180830381855af49150503d8060008114611296576040519150601f19603f3d011682016040523d82523d6000602084013e61129b565b606091505b50915091508181906112c95760405162461bcd60e51b81526004016112c0919061204f565b60405180910390fd5b50808060200190516112de9190810190611b37565b93505050505b9392505050565b600181815481106112f857fe5b60009182526020918290206006919091020180546040805160026001841615610100026000190190931692909204601f8101859004850283018501909152808252919350918391908301828280156113915780601f1061136657610100808354040283529160200191611391565b820191906000526020600020905b81548152906001019060200180831161137457829003601f168201915b505050506001838101546002808601805460408051602061010097841615979097026000190190921693909304601f810186900486028201860190935282815295966001600160a01b039093169592945091928301828280156114355780601f1061140a57610100808354040283529160200191611435565b820191906000526020600020905b81548152906001019060200180831161141857829003601f168201915b5050506005909301549192505060ff8082169161010090041685565b604051806040016040528060058152602001640312e302e360dc1b81525081565b6000828201838110156114975760405162461bcd60e51b81526004016112c0906120b8565b90505b92915050565b6000826114af5750600061149a565b828202828482816114bc57fe5b04146114975760405162461bcd60e51b81526004016112c0906120e8565b600061149783836040518060400160405280601a81526020017f536166654d6174683a206469766973696f6e206279207a65726f000000000000815250611600565b600061149783836040518060400160405280601e81526020017f536166654d6174683a207375627472616374696f6e206f766572666c6f770000815250611637565b303181111561157f5760405162461bcd60e51b81526004016112c0906120d8565b6000826001600160a01b03168260405161159890611fba565b60006040518083038185875af1925050503d80600081146115d5576040519150601f19603f3d011682016040523d82523d6000602084013e6115da565b606091505b50509050806115fb5760405162461bcd60e51b81526004016112c0906120c8565b505050565b600081836116215760405162461bcd60e51b81526004016112c0919061204f565b50600083858161162d57fe5b0495945050505050565b6000818484111561165b5760405162461bcd60e51b81526004016112c0919061204f565b505050900390565b6040518060e001604052806060815260200160006001600160a01b03168152602001606081526020016060815260200160608152602001600060ff168152602001600060ff1681525090565b803561149a81612201565b805161149a81612201565b600082601f8301126116d657600080fd5b81356116e96116e48261211e565b6120f8565b81815260209384019390925082018360005b83811015611727578135860161171188826118e9565b84525060209283019291909101906001016116fb565b5050505092915050565b600082601f83011261174257600080fd5b81356117506116e48261211e565b81815260209384019390925082018360005b8381101561172757813586016117788882611938565b8452506020928301929190910190600101611762565b600082601f83011261179f57600080fd5b81356117ad6116e48261211e565b915081818352602084019350602081019050838560208402820111156117d257600080fd5b60005b8381101561172757816117e888826119c1565b84525060209283019291909101906001016117d5565b600082601f83011261180f57600080fd5b815161181d6116e48261211e565b9150818183526020840193506020810190508385602084028201111561184257600080fd5b60005b83811015611727578161185888826119cc565b8452506020928301929190910190600101611845565b600082601f83011261187f57600080fd5b813561188d6116e48261211e565b915081818352602084019350602081019050838560208402820111156118b257600080fd5b60005b8381101561172757816118c888826119c1565b84525060209283019291909101906001016118b5565b805161149a81612218565b600082601f8301126118fa57600080fd5b81356119086116e48261213e565b9150808252602083016020830185838301111561192457600080fd5b61192f8382846121bf565b50505092915050565b60006060828403121561194a57600080fd5b61195460606120f8565b9050600061196284846116af565b82525060208201356001600160401b0381111561197e57600080fd5b61198a8482850161178e565b60208301525060408201356001600160401b038111156119a957600080fd5b6119b5848285016118e9565b60408301525092915050565b803561149a81612221565b805161149a81612221565b805161149a8161222a565b6000602082840312156119f457600080fd5b6000611a0084846116ba565b949350505050565b60008060408385031215611a1b57600080fd5b6000611a2785856116ba565b9250506020611a38858286016119cc565b9150509250929050565b600080600060608486031215611a5757600080fd5b6000611a6386866116af565b93505060208401356001600160401b03811115611a7f57600080fd5b611a8b8682870161186e565b92505060408401356001600160401b03811115611aa757600080fd5b611ab3868287016118e9565b9150509250925092565b60008060408385031215611ad057600080fd5b82356001600160401b03811115611ae657600080fd5b611af2858286016116c5565b9250506020611a38858286016119c1565b600060208284031215611b1557600080fd5b81356001600160401b03811115611b2b57600080fd5b611a0084828501611731565b600060208284031215611b4957600080fd5b81516001600160401b03811115611b5f57600080fd5b611a00848285016117fe565b600060208284031215611b7d57600080fd5b6000611a0084846118de565b600060208284031215611b9b57600080fd5b6000611a0084846119c1565b600060208284031215611bb957600080fd5b6000611a0084846119d7565b60006114978383611edf565b6000611bdd8383611f88565b505060200190565b6000611bdd8383611f91565b611bfa816121ae565b82525050565b611bfa8161217d565b6000611c148261216b565b611c1e818561216f565b935083602082028501611c3085612165565b8060005b85811015611c6a5784840389528151611c4d8582611bc5565b9450611c5883612165565b60209a909a0199925050600101611c34565b5091979650505050505050565b6000611c828261216b565b611c8c818561216f565b9350611c9783612165565b8060005b83811015611cc5578151611caf8882611bd1565b9750611cba83612165565b925050600101611c9b565b509495945050505050565b6000611cdb8261216b565b611ce5818561216f565b9350611cf083612165565b8060005b83811015611cc5578151611d088882611be5565b9750611d1383612165565b925050600101611cf4565b6000611d298261216b565b611d33818561216f565b9350611d438185602086016121cb565b611d4c816121f7565b9093019392505050565b6000611d618261216b565b611d6b8185612178565b9350611d7b8185602086016121cb565b9290920192915050565b6000611d92601b8361216f565b7f536166654d6174683a206164646974696f6e206f766572666c6f770000000000815260200192915050565b6000611dcb603a8361216f565b7f416464726573733a20756e61626c6520746f2073656e642076616c75652c207281527f6563697069656e74206d61792068617665207265766572746564000000000000602082015260400192915050565b6000611e2a601d8361216f565b7f416464726573733a20696e73756666696369656e742062616c616e6365000000815260200192915050565b6000611e6360218361216f565b7f536166654d6174683a206d756c7469706c69636174696f6e206f766572666c6f8152607760f81b602082015260400192915050565b6000611ea6601883612178565b7f6f7065726174652875696e743235365b5d2c6279746573290000000000000000815260180192915050565b600061149a600083612178565b805160e080845260009190840190611ef78282611d1e565b9150506020830151611f0c6020860182611c00565b5060408301518482036040860152611f248282611d1e565b91505060608301518482036060860152611f3e8282611cd0565b91505060808301518482036080860152611f588282611cd0565b91505060a0830151611f6d60a0860182611f9a565b5060c0830151611f8060c0860182611f9a565b509392505050565b611bfa81612199565b611bfa8161219c565b611bfa816121a8565b60006112e48284611d56565b600061149a82611e99565b600061149a82611ed2565b60608101611fd38286611bf1565b611fe06020830185611bf1565b611a006040830184611f88565b60408101611ffb8285611bf1565b6112e46020830184611f88565b602080825281016114978184611c09565b602080825281016114978184611c77565b6040808252810161203b8185611c77565b90508181036020830152611a008184611d1e565b602080825281016114978184611d1e565b60a080825281016120718188611d1e565b90506120806020830187611c00565b81810360408301526120928186611d1e565b90506120a16060830185611f9a565b6120ae6080830184611f9a565b9695505050505050565b6020808252810161149a81611d85565b6020808252810161149a81611dbe565b6020808252810161149a81611e1d565b6020808252810161149a81611e56565b6040518181016001600160401b038111828210171561211657600080fd5b604052919050565b60006001600160401b0382111561213457600080fd5b5060209081020190565b60006001600160401b0382111561215457600080fd5b506020601f91909101601f19160190565b60200190565b5190565b90815260200190565b919050565b600061149a8261218d565b151590565b6001600160a01b031690565b90565b6001600160401b031690565b60ff1690565b600061149a82600061149a8261217d565b82818337506000910152565b60005b838110156121e65781810151838201526020016121ce565b83811115610f0a5750506000910152565b601f01601f191690565b61220a8161217d565b811461221557600080fd5b50565b61220a81612188565b61220a81612199565b61220a816121a856fea365627a7a72315820b38a09c75b96bafce166227b1fdf35cc9b230b8d630ab683c802f5cc1836ac036c6578706572696d656e74616cf564736f6c63430005110040",
  "compiler": {
    "name": "solc",
    "version": "0.5.17+commit.d19bba13.Emscripten.clang",
    "optimizer": {
      "enabled": true,
      "runs": 200
    },
    "evmVersion": "petersburg"
  }
}